{
	"contracts/FundeMe.sol": {
		"FundMe": {
			"abi": [
				{
					"inputs": [
						{
							"internalType": "address",
							"name": "",
							"type": "address"
						}
					],
					"name": "addressToAmountFounded",
					"outputs": [
						{
							"internalType": "uint256",
							"name": "",
							"type": "uint256"
						}
					],
					"stateMutability": "view",
					"type": "function"
				},
				{
					"inputs": [],
					"name": "fund",
					"outputs": [],
					"stateMutability": "payable",
					"type": "function"
				},
				{
					"inputs": [
						{
							"internalType": "uint256",
							"name": "btcAmount",
							"type": "uint256"
						}
					],
					"name": "getConversionRate",
					"outputs": [
						{
							"internalType": "uint256",
							"name": "",
							"type": "uint256"
						}
					],
					"stateMutability": "view",
					"type": "function"
				},
				{
					"inputs": [],
					"name": "getPrice",
					"outputs": [
						{
							"internalType": "uint256",
							"name": "",
							"type": "uint256"
						}
					],
					"stateMutability": "view",
					"type": "function"
				},
				{
					"inputs": [],
					"name": "getVersion",
					"outputs": [
						{
							"internalType": "uint256",
							"name": "",
							"type": "uint256"
						}
					],
					"stateMutability": "view",
					"type": "function"
				}
			],
			"devdoc": {
				"kind": "dev",
				"methods": {},
				"version": 1
			},
			"evm": {
				"assembly": "    /* \"contracts/FundeMe.sol\":184:1491  contract FundMe{... */\n  mstore(0x40, 0x80)\n  callvalue\n  dup1\n  iszero\n  tag_1\n  jumpi\n  0x00\n  dup1\n  revert\ntag_1:\n  pop\n  dataSize(sub_0)\n  dup1\n  dataOffset(sub_0)\n  0x00\n  codecopy\n  0x00\n  return\nstop\n\nsub_0: assembly {\n        /* \"contracts/FundeMe.sol\":184:1491  contract FundMe{... */\n      mstore(0x40, 0x80)\n      jumpi(tag_1, lt(calldatasize, 0x04))\n      shr(0xe0, calldataload(0x00))\n      dup1\n      0x0d8e6e2c\n      eq\n      tag_2\n      jumpi\n      dup1\n      0x69d1c5af\n      eq\n      tag_3\n      jumpi\n      dup1\n      0x6e5b6b28\n      eq\n      tag_4\n      jumpi\n      dup1\n      0x98d5fdca\n      eq\n      tag_5\n      jumpi\n      dup1\n      0xb60d4288\n      eq\n      tag_6\n      jumpi\n    tag_1:\n      0x00\n      dup1\n      revert\n        /* \"contracts/FundeMe.sol\":532:822  function getVersion() public view returns(uint256){... */\n    tag_2:\n      callvalue\n      dup1\n      iszero\n      tag_7\n      jumpi\n      0x00\n      dup1\n      revert\n    tag_7:\n      pop\n      tag_8\n      tag_9\n      jump\t// in\n    tag_8:\n      mload(0x40)\n      tag_10\n      swap2\n      swap1\n      tag_11\n      jump\t// in\n    tag_10:\n      mload(0x40)\n      dup1\n      swap2\n      sub\n      swap1\n      return\n        /* \"contracts/FundeMe.sol\":206:262  mapping (address=>uint256) public addressToAmountFounded */\n    tag_3:\n      callvalue\n      dup1\n      iszero\n      tag_12\n      jumpi\n      0x00\n      dup1\n      revert\n    tag_12:\n      pop\n      tag_13\n      0x04\n      dup1\n      calldatasize\n      sub\n      dup2\n      add\n      swap1\n      tag_14\n      swap2\n      swap1\n      tag_15\n      jump\t// in\n    tag_14:\n      tag_16\n      jump\t// in\n    tag_13:\n      mload(0x40)\n      tag_17\n      swap2\n      swap1\n      tag_11\n      jump\t// in\n    tag_17:\n      mload(0x40)\n      dup1\n      swap2\n      sub\n      swap1\n      return\n        /* \"contracts/FundeMe.sol\":1275:1488  function getConversionRate (uint256 btcAmount) public view returns (uint256){... */\n    tag_4:\n      callvalue\n      dup1\n      iszero\n      tag_18\n      jumpi\n      0x00\n      dup1\n      revert\n    tag_18:\n      pop\n      tag_19\n      0x04\n      dup1\n      calldatasize\n      sub\n      dup2\n      add\n      swap1\n      tag_20\n      swap2\n      swap1\n      tag_21\n      jump\t// in\n    tag_20:\n      tag_22\n      jump\t// in\n    tag_19:\n      mload(0x40)\n      tag_23\n      swap2\n      swap1\n      tag_11\n      jump\t// in\n    tag_23:\n      mload(0x40)\n      dup1\n      swap2\n      sub\n      swap1\n      return\n        /* \"contracts/FundeMe.sol\":831:1269  function getPrice() public view returns (uint256){... */\n    tag_5:\n      callvalue\n      dup1\n      iszero\n      tag_24\n      jumpi\n      0x00\n      dup1\n      revert\n    tag_24:\n      pop\n      tag_25\n      tag_26\n      jump\t// in\n    tag_25:\n      mload(0x40)\n      tag_27\n      swap2\n      swap1\n      tag_11\n      jump\t// in\n    tag_27:\n      mload(0x40)\n      dup1\n      swap2\n      sub\n      swap1\n      return\n        /* \"contracts/FundeMe.sol\":271:526  function fund()public payable{... */\n    tag_6:\n      tag_28\n      tag_29\n      jump\t// in\n    tag_28:\n      stop\n        /* \"contracts/FundeMe.sol\":532:822  function getVersion() public view returns(uint256){... */\n    tag_9:\n        /* \"contracts/FundeMe.sol\":574:581  uint256 */\n      0x00\n        /* \"contracts/FundeMe.sol\":593:624  AggregatorV3Interface priceFeed */\n      dup1\n        /* \"contracts/FundeMe.sol\":649:691  0x1b44F3514812d835EB1BDB0acB33d3fA3351Ee43 */\n      0x1b44f3514812d835eb1bdb0acb33d3fa3351ee43\n        /* \"contracts/FundeMe.sol\":593:692  AggregatorV3Interface priceFeed = AggregatorV3Interface(0x1b44F3514812d835EB1BDB0acB33d3fA3351Ee43) */\n      swap1\n      pop\n        /* \"contracts/FundeMe.sol\":753:762  priceFeed */\n      dup1\n        /* \"contracts/FundeMe.sol\":753:770  priceFeed.version */\n      0xffffffffffffffffffffffffffffffffffffffff\n      and\n      0x54fd4d50\n        /* \"contracts/FundeMe.sol\":753:772  priceFeed.version() */\n      mload(0x40)\n      dup2\n      0xffffffff\n      and\n      0xe0\n      shl\n      dup2\n      mstore\n      0x04\n      add\n      0x20\n      mload(0x40)\n      dup1\n      dup4\n      sub\n      dup2\n      dup7\n      gas\n      staticcall\n      iszero\n      dup1\n      iszero\n      tag_32\n      jumpi\n      returndatasize\n      0x00\n      dup1\n      returndatacopy\n      revert(0x00, returndatasize)\n    tag_32:\n      pop\n      pop\n      pop\n      pop\n      mload(0x40)\n      returndatasize\n      not(0x1f)\n      0x1f\n      dup3\n      add\n      and\n      dup3\n      add\n      dup1\n      0x40\n      mstore\n      pop\n      dup2\n      add\n      swap1\n      tag_33\n      swap2\n      swap1\n      tag_34\n      jump\t// in\n    tag_33:\n        /* \"contracts/FundeMe.sol\":746:772  return priceFeed.version() */\n      swap2\n      pop\n      pop\n        /* \"contracts/FundeMe.sol\":532:822  function getVersion() public view returns(uint256){... */\n      swap1\n      jump\t// out\n        /* \"contracts/FundeMe.sol\":206:262  mapping (address=>uint256) public addressToAmountFounded */\n    tag_16:\n      mstore(0x20, 0x00)\n      dup1\n      0x00\n      mstore\n      keccak256(0x00, 0x40)\n      0x00\n      swap2\n      pop\n      swap1\n      pop\n      sload\n      dup2\n      jump\t// out\n        /* \"contracts/FundeMe.sol\":1275:1488  function getConversionRate (uint256 btcAmount) public view returns (uint256){... */\n    tag_22:\n        /* \"contracts/FundeMe.sol\":1343:1350  uint256 */\n      0x00\n        /* \"contracts/FundeMe.sol\":1362:1378  uint256 btcPrice */\n      dup1\n        /* \"contracts/FundeMe.sol\":1380:1390  getPrice() */\n      tag_36\n        /* \"contracts/FundeMe.sol\":1380:1388  getPrice */\n      tag_26\n        /* \"contracts/FundeMe.sol\":1380:1390  getPrice() */\n      jump\t// in\n    tag_36:\n        /* \"contracts/FundeMe.sol\":1362:1390  uint256 btcPrice= getPrice() */\n      swap1\n      pop\n        /* \"contracts/FundeMe.sol\":1401:1423  uint256 btcAmountInUsd */\n      0x00\n        /* \"contracts/FundeMe.sol\":1438:1447  btcAmount */\n      dup4\n        /* \"contracts/FundeMe.sol\":1427:1435  btcPrice */\n      dup3\n        /* \"contracts/FundeMe.sol\":1427:1447  btcPrice * btcAmount */\n      tag_37\n      swap2\n      swap1\n      tag_38\n      jump\t// in\n    tag_37:\n        /* \"contracts/FundeMe.sol\":1401:1448  uint256 btcAmountInUsd = (btcPrice * btcAmount) */\n      swap1\n      pop\n        /* \"contracts/FundeMe.sol\":1466:1480  btcAmountInUsd */\n      dup1\n        /* \"contracts/FundeMe.sol\":1459:1480  return btcAmountInUsd */\n      swap3\n      pop\n      pop\n      pop\n        /* \"contracts/FundeMe.sol\":1275:1488  function getConversionRate (uint256 btcAmount) public view returns (uint256){... */\n      swap2\n      swap1\n      pop\n      jump\t// out\n        /* \"contracts/FundeMe.sol\":831:1269  function getPrice() public view returns (uint256){... */\n    tag_26:\n        /* \"contracts/FundeMe.sol\":872:879  uint256 */\n      0x00\n        /* \"contracts/FundeMe.sol\":891:922  AggregatorV3Interface priceFeed */\n      dup1\n        /* \"contracts/FundeMe.sol\":947:989  0x1b44F3514812d835EB1BDB0acB33d3fA3351Ee43 */\n      0x1b44f3514812d835eb1bdb0acb33d3fa3351ee43\n        /* \"contracts/FundeMe.sol\":891:990  AggregatorV3Interface priceFeed = AggregatorV3Interface(0x1b44F3514812d835EB1BDB0acB33d3fA3351Ee43) */\n      swap1\n      pop\n        /* \"contracts/FundeMe.sol\":1003:1016  int256 answer */\n      0x00\n        /* \"contracts/FundeMe.sol\":1022:1031  priceFeed */\n      dup2\n        /* \"contracts/FundeMe.sol\":1022:1047  priceFeed.latestRoundData */\n      0xffffffffffffffffffffffffffffffffffffffff\n      and\n      0xfeaf968c\n        /* \"contracts/FundeMe.sol\":1022:1049  priceFeed.latestRoundData() */\n      mload(0x40)\n      dup2\n      0xffffffff\n      and\n      0xe0\n      shl\n      dup2\n      mstore\n      0x04\n      add\n      0xa0\n      mload(0x40)\n      dup1\n      dup4\n      sub\n      dup2\n      dup7\n      gas\n      staticcall\n      iszero\n      dup1\n      iszero\n      tag_41\n      jumpi\n      returndatasize\n      0x00\n      dup1\n      returndatacopy\n      revert(0x00, returndatasize)\n    tag_41:\n      pop\n      pop\n      pop\n      pop\n      mload(0x40)\n      returndatasize\n      not(0x1f)\n      0x1f\n      dup3\n      add\n      and\n      dup3\n      add\n      dup1\n      0x40\n      mstore\n      pop\n      dup2\n      add\n      swap1\n      tag_42\n      swap2\n      swap1\n      tag_43\n      jump\t// in\n    tag_42:\n        /* \"contracts/FundeMe.sol\":1001:1049  (,int256 answer,,,)= priceFeed.latestRoundData() */\n      pop\n      pop\n      pop\n      swap2\n      pop\n      pop\n        /* \"contracts/FundeMe.sol\":1211:1222  10000000000 */\n      0x02540be400\n        /* \"contracts/FundeMe.sol\":1202:1208  answer */\n      dup2\n        /* \"contracts/FundeMe.sol\":1202:1222  answer * 10000000000 */\n      tag_44\n      swap2\n      swap1\n      tag_45\n      jump\t// in\n    tag_44:\n        /* \"contracts/FundeMe.sol\":1187:1223  return uint256(answer * 10000000000) */\n      swap3\n      pop\n      pop\n      pop\n        /* \"contracts/FundeMe.sol\":831:1269  function getPrice() public view returns (uint256){... */\n      swap1\n      jump\t// out\n        /* \"contracts/FundeMe.sol\":271:526  function fund()public payable{... */\n    tag_29:\n        /* \"contracts/FundeMe.sol\":311:329  uint256 minimumUSD */\n      0x00\n        /* \"contracts/FundeMe.sol\":332:344  50 * 10 **18 */\n      0x02b5e3af16b1880000\n        /* \"contracts/FundeMe.sol\":311:344  uint256 minimumUSD = 50 * 10 **18 */\n      swap1\n      pop\n        /* \"contracts/FundeMe.sol\":424:434  minimumUSD */\n      dup1\n        /* \"contracts/FundeMe.sol\":392:420  getConversionRate(msg.value) */\n      tag_47\n        /* \"contracts/FundeMe.sol\":410:419  msg.value */\n      callvalue\n        /* \"contracts/FundeMe.sol\":392:409  getConversionRate */\n      tag_22\n        /* \"contracts/FundeMe.sol\":392:420  getConversionRate(msg.value) */\n      jump\t// in\n    tag_47:\n        /* \"contracts/FundeMe.sol\":392:434  getConversionRate(msg.value) >= minimumUSD */\n      lt\n      iszero\n        /* \"contracts/FundeMe.sol\":384:460  require(getConversionRate(msg.value) >= minimumUSD, \"Higher Ammount Needed\") */\n      tag_48\n      jumpi\n      mload(0x40)\n      0x08c379a000000000000000000000000000000000000000000000000000000000\n      dup2\n      mstore\n      0x04\n      add\n      tag_49\n      swap1\n      tag_50\n      jump\t// in\n    tag_49:\n      mload(0x40)\n      dup1\n      swap2\n      sub\n      swap1\n      revert\n    tag_48:\n        /* \"contracts/FundeMe.sol\":509:518  msg.value */\n      callvalue\n        /* \"contracts/FundeMe.sol\":471:493  addressToAmountFounded */\n      0x00\n        /* \"contracts/FundeMe.sol\":471:505  addressToAmountFounded[msg.sender] */\n      dup1\n        /* \"contracts/FundeMe.sol\":494:504  msg.sender */\n      caller\n        /* \"contracts/FundeMe.sol\":471:505  addressToAmountFounded[msg.sender] */\n      0xffffffffffffffffffffffffffffffffffffffff\n      and\n      0xffffffffffffffffffffffffffffffffffffffff\n      and\n      dup2\n      mstore\n      0x20\n      add\n      swap1\n      dup2\n      mstore\n      0x20\n      add\n      0x00\n      keccak256\n      0x00\n        /* \"contracts/FundeMe.sol\":471:518  addressToAmountFounded[msg.sender] += msg.value */\n      dup3\n      dup3\n      sload\n      tag_51\n      swap2\n      swap1\n      tag_52\n      jump\t// in\n    tag_51:\n      swap3\n      pop\n      pop\n      dup2\n      swap1\n      sstore\n      pop\n        /* \"contracts/FundeMe.sol\":300:526  {... */\n      pop\n        /* \"contracts/FundeMe.sol\":271:526  function fund()public payable{... */\n      jump\t// out\n        /* \"#utility.yul\":7:84   */\n    tag_53:\n        /* \"#utility.yul\":44:51   */\n      0x00\n        /* \"#utility.yul\":73:78   */\n      dup2\n        /* \"#utility.yul\":62:78   */\n      swap1\n      pop\n        /* \"#utility.yul\":7:84   */\n      swap2\n      swap1\n      pop\n      jump\t// out\n        /* \"#utility.yul\":90:208   */\n    tag_54:\n        /* \"#utility.yul\":177:201   */\n      tag_78\n        /* \"#utility.yul\":195:200   */\n      dup2\n        /* \"#utility.yul\":177:201   */\n      tag_53\n      jump\t// in\n    tag_78:\n        /* \"#utility.yul\":172:175   */\n      dup3\n        /* \"#utility.yul\":165:202   */\n      mstore\n        /* \"#utility.yul\":90:208   */\n      pop\n      pop\n      jump\t// out\n        /* \"#utility.yul\":214:436   */\n    tag_11:\n        /* \"#utility.yul\":307:311   */\n      0x00\n        /* \"#utility.yul\":345:347   */\n      0x20\n        /* \"#utility.yul\":334:343   */\n      dup3\n        /* \"#utility.yul\":330:348   */\n      add\n        /* \"#utility.yul\":322:348   */\n      swap1\n      pop\n        /* \"#utility.yul\":358:429   */\n      tag_80\n        /* \"#utility.yul\":426:427   */\n      0x00\n        /* \"#utility.yul\":415:424   */\n      dup4\n        /* \"#utility.yul\":411:428   */\n      add\n        /* \"#utility.yul\":402:408   */\n      dup5\n        /* \"#utility.yul\":358:429   */\n      tag_54\n      jump\t// in\n    tag_80:\n        /* \"#utility.yul\":214:436   */\n      swap3\n      swap2\n      pop\n      pop\n      jump\t// out\n        /* \"#utility.yul\":523:640   */\n    tag_56:\n        /* \"#utility.yul\":632:633   */\n      0x00\n        /* \"#utility.yul\":629:630   */\n      dup1\n        /* \"#utility.yul\":622:634   */\n      revert\n        /* \"#utility.yul\":769:895   */\n    tag_58:\n        /* \"#utility.yul\":806:813   */\n      0x00\n        /* \"#utility.yul\":846:888   */\n      0xffffffffffffffffffffffffffffffffffffffff\n        /* \"#utility.yul\":839:844   */\n      dup3\n        /* \"#utility.yul\":835:889   */\n      and\n        /* \"#utility.yul\":824:889   */\n      swap1\n      pop\n        /* \"#utility.yul\":769:895   */\n      swap2\n      swap1\n      pop\n      jump\t// out\n        /* \"#utility.yul\":901:997   */\n    tag_59:\n        /* \"#utility.yul\":938:945   */\n      0x00\n        /* \"#utility.yul\":967:991   */\n      tag_86\n        /* \"#utility.yul\":985:990   */\n      dup3\n        /* \"#utility.yul\":967:991   */\n      tag_58\n      jump\t// in\n    tag_86:\n        /* \"#utility.yul\":956:991   */\n      swap1\n      pop\n        /* \"#utility.yul\":901:997   */\n      swap2\n      swap1\n      pop\n      jump\t// out\n        /* \"#utility.yul\":1003:1125   */\n    tag_60:\n        /* \"#utility.yul\":1076:1100   */\n      tag_88\n        /* \"#utility.yul\":1094:1099   */\n      dup2\n        /* \"#utility.yul\":1076:1100   */\n      tag_59\n      jump\t// in\n    tag_88:\n        /* \"#utility.yul\":1069:1074   */\n      dup2\n        /* \"#utility.yul\":1066:1101   */\n      eq\n        /* \"#utility.yul\":1056:1119   */\n      tag_89\n      jumpi\n        /* \"#utility.yul\":1115:1116   */\n      0x00\n        /* \"#utility.yul\":1112:1113   */\n      dup1\n        /* \"#utility.yul\":1105:1117   */\n      revert\n        /* \"#utility.yul\":1056:1119   */\n    tag_89:\n        /* \"#utility.yul\":1003:1125   */\n      pop\n      jump\t// out\n        /* \"#utility.yul\":1131:1270   */\n    tag_61:\n        /* \"#utility.yul\":1177:1182   */\n      0x00\n        /* \"#utility.yul\":1215:1221   */\n      dup2\n        /* \"#utility.yul\":1202:1222   */\n      calldataload\n        /* \"#utility.yul\":1193:1222   */\n      swap1\n      pop\n        /* \"#utility.yul\":1231:1264   */\n      tag_91\n        /* \"#utility.yul\":1258:1263   */\n      dup2\n        /* \"#utility.yul\":1231:1264   */\n      tag_60\n      jump\t// in\n    tag_91:\n        /* \"#utility.yul\":1131:1270   */\n      swap3\n      swap2\n      pop\n      pop\n      jump\t// out\n        /* \"#utility.yul\":1276:1605   */\n    tag_15:\n        /* \"#utility.yul\":1335:1341   */\n      0x00\n        /* \"#utility.yul\":1384:1386   */\n      0x20\n        /* \"#utility.yul\":1372:1381   */\n      dup3\n        /* \"#utility.yul\":1363:1370   */\n      dup5\n        /* \"#utility.yul\":1359:1382   */\n      sub\n        /* \"#utility.yul\":1355:1387   */\n      slt\n        /* \"#utility.yul\":1352:1471   */\n      iszero\n      tag_93\n      jumpi\n        /* \"#utility.yul\":1390:1469   */\n      tag_94\n      tag_56\n      jump\t// in\n    tag_94:\n        /* \"#utility.yul\":1352:1471   */\n    tag_93:\n        /* \"#utility.yul\":1510:1511   */\n      0x00\n        /* \"#utility.yul\":1535:1588   */\n      tag_95\n        /* \"#utility.yul\":1580:1587   */\n      dup5\n        /* \"#utility.yul\":1571:1577   */\n      dup3\n        /* \"#utility.yul\":1560:1569   */\n      dup6\n        /* \"#utility.yul\":1556:1578   */\n      add\n        /* \"#utility.yul\":1535:1588   */\n      tag_61\n      jump\t// in\n    tag_95:\n        /* \"#utility.yul\":1525:1588   */\n      swap2\n      pop\n        /* \"#utility.yul\":1481:1598   */\n      pop\n        /* \"#utility.yul\":1276:1605   */\n      swap3\n      swap2\n      pop\n      pop\n      jump\t// out\n        /* \"#utility.yul\":1611:1733   */\n    tag_62:\n        /* \"#utility.yul\":1684:1708   */\n      tag_97\n        /* \"#utility.yul\":1702:1707   */\n      dup2\n        /* \"#utility.yul\":1684:1708   */\n      tag_53\n      jump\t// in\n    tag_97:\n        /* \"#utility.yul\":1677:1682   */\n      dup2\n        /* \"#utility.yul\":1674:1709   */\n      eq\n        /* \"#utility.yul\":1664:1727   */\n      tag_98\n      jumpi\n        /* \"#utility.yul\":1723:1724   */\n      0x00\n        /* \"#utility.yul\":1720:1721   */\n      dup1\n        /* \"#utility.yul\":1713:1725   */\n      revert\n        /* \"#utility.yul\":1664:1727   */\n    tag_98:\n        /* \"#utility.yul\":1611:1733   */\n      pop\n      jump\t// out\n        /* \"#utility.yul\":1739:1878   */\n    tag_63:\n        /* \"#utility.yul\":1785:1790   */\n      0x00\n        /* \"#utility.yul\":1823:1829   */\n      dup2\n        /* \"#utility.yul\":1810:1830   */\n      calldataload\n        /* \"#utility.yul\":1801:1830   */\n      swap1\n      pop\n        /* \"#utility.yul\":1839:1872   */\n      tag_100\n        /* \"#utility.yul\":1866:1871   */\n      dup2\n        /* \"#utility.yul\":1839:1872   */\n      tag_62\n      jump\t// in\n    tag_100:\n        /* \"#utility.yul\":1739:1878   */\n      swap3\n      swap2\n      pop\n      pop\n      jump\t// out\n        /* \"#utility.yul\":1884:2213   */\n    tag_21:\n        /* \"#utility.yul\":1943:1949   */\n      0x00\n        /* \"#utility.yul\":1992:1994   */\n      0x20\n        /* \"#utility.yul\":1980:1989   */\n      dup3\n        /* \"#utility.yul\":1971:1978   */\n      dup5\n        /* \"#utility.yul\":1967:1990   */\n      sub\n        /* \"#utility.yul\":1963:1995   */\n      slt\n        /* \"#utility.yul\":1960:2079   */\n      iszero\n      tag_102\n      jumpi\n        /* \"#utility.yul\":1998:2077   */\n      tag_103\n      tag_56\n      jump\t// in\n    tag_103:\n        /* \"#utility.yul\":1960:2079   */\n    tag_102:\n        /* \"#utility.yul\":2118:2119   */\n      0x00\n        /* \"#utility.yul\":2143:2196   */\n      tag_104\n        /* \"#utility.yul\":2188:2195   */\n      dup5\n        /* \"#utility.yul\":2179:2185   */\n      dup3\n        /* \"#utility.yul\":2168:2177   */\n      dup6\n        /* \"#utility.yul\":2164:2186   */\n      add\n        /* \"#utility.yul\":2143:2196   */\n      tag_63\n      jump\t// in\n    tag_104:\n        /* \"#utility.yul\":2133:2196   */\n      swap2\n      pop\n        /* \"#utility.yul\":2089:2206   */\n      pop\n        /* \"#utility.yul\":1884:2213   */\n      swap3\n      swap2\n      pop\n      pop\n      jump\t// out\n        /* \"#utility.yul\":2219:2362   */\n    tag_64:\n        /* \"#utility.yul\":2276:2281   */\n      0x00\n        /* \"#utility.yul\":2307:2313   */\n      dup2\n        /* \"#utility.yul\":2301:2314   */\n      mload\n        /* \"#utility.yul\":2292:2314   */\n      swap1\n      pop\n        /* \"#utility.yul\":2323:2356   */\n      tag_106\n        /* \"#utility.yul\":2350:2355   */\n      dup2\n        /* \"#utility.yul\":2323:2356   */\n      tag_62\n      jump\t// in\n    tag_106:\n        /* \"#utility.yul\":2219:2362   */\n      swap3\n      swap2\n      pop\n      pop\n      jump\t// out\n        /* \"#utility.yul\":2368:2719   */\n    tag_34:\n        /* \"#utility.yul\":2438:2444   */\n      0x00\n        /* \"#utility.yul\":2487:2489   */\n      0x20\n        /* \"#utility.yul\":2475:2484   */\n      dup3\n        /* \"#utility.yul\":2466:2473   */\n      dup5\n        /* \"#utility.yul\":2462:2485   */\n      sub\n        /* \"#utility.yul\":2458:2490   */\n      slt\n        /* \"#utility.yul\":2455:2574   */\n      iszero\n      tag_108\n      jumpi\n        /* \"#utility.yul\":2493:2572   */\n      tag_109\n      tag_56\n      jump\t// in\n    tag_109:\n        /* \"#utility.yul\":2455:2574   */\n    tag_108:\n        /* \"#utility.yul\":2613:2614   */\n      0x00\n        /* \"#utility.yul\":2638:2702   */\n      tag_110\n        /* \"#utility.yul\":2694:2701   */\n      dup5\n        /* \"#utility.yul\":2685:2691   */\n      dup3\n        /* \"#utility.yul\":2674:2683   */\n      dup6\n        /* \"#utility.yul\":2670:2692   */\n      add\n        /* \"#utility.yul\":2638:2702   */\n      tag_64\n      jump\t// in\n    tag_110:\n        /* \"#utility.yul\":2628:2702   */\n      swap2\n      pop\n        /* \"#utility.yul\":2584:2712   */\n      pop\n        /* \"#utility.yul\":2368:2719   */\n      swap3\n      swap2\n      pop\n      pop\n      jump\t// out\n        /* \"#utility.yul\":2725:2905   */\n    tag_65:\n        /* \"#utility.yul\":2773:2850   */\n      0x4e487b7100000000000000000000000000000000000000000000000000000000\n        /* \"#utility.yul\":2770:2771   */\n      0x00\n        /* \"#utility.yul\":2763:2851   */\n      mstore\n        /* \"#utility.yul\":2870:2874   */\n      0x11\n        /* \"#utility.yul\":2867:2868   */\n      0x04\n        /* \"#utility.yul\":2860:2875   */\n      mstore\n        /* \"#utility.yul\":2894:2898   */\n      0x24\n        /* \"#utility.yul\":2891:2892   */\n      0x00\n        /* \"#utility.yul\":2884:2899   */\n      revert\n        /* \"#utility.yul\":2911:3321   */\n    tag_38:\n        /* \"#utility.yul\":2951:2958   */\n      0x00\n        /* \"#utility.yul\":2974:2994   */\n      tag_113\n        /* \"#utility.yul\":2992:2993   */\n      dup3\n        /* \"#utility.yul\":2974:2994   */\n      tag_53\n      jump\t// in\n    tag_113:\n        /* \"#utility.yul\":2969:2994   */\n      swap2\n      pop\n        /* \"#utility.yul\":3008:3028   */\n      tag_114\n        /* \"#utility.yul\":3026:3027   */\n      dup4\n        /* \"#utility.yul\":3008:3028   */\n      tag_53\n      jump\t// in\n    tag_114:\n        /* \"#utility.yul\":3003:3028   */\n      swap3\n      pop\n        /* \"#utility.yul\":3063:3064   */\n      dup3\n        /* \"#utility.yul\":3060:3061   */\n      dup3\n        /* \"#utility.yul\":3056:3065   */\n      mul\n        /* \"#utility.yul\":3085:3115   */\n      tag_115\n        /* \"#utility.yul\":3103:3114   */\n      dup2\n        /* \"#utility.yul\":3085:3115   */\n      tag_53\n      jump\t// in\n    tag_115:\n        /* \"#utility.yul\":3074:3115   */\n      swap2\n      pop\n        /* \"#utility.yul\":3264:3265   */\n      dup3\n        /* \"#utility.yul\":3255:3262   */\n      dup3\n        /* \"#utility.yul\":3251:3266   */\n      div\n        /* \"#utility.yul\":3248:3249   */\n      dup5\n        /* \"#utility.yul\":3245:3267   */\n      eq\n        /* \"#utility.yul\":3225:3226   */\n      dup4\n        /* \"#utility.yul\":3218:3227   */\n      iszero\n        /* \"#utility.yul\":3198:3281   */\n      or\n        /* \"#utility.yul\":3175:3314   */\n      tag_116\n      jumpi\n        /* \"#utility.yul\":3294:3312   */\n      tag_117\n      tag_65\n      jump\t// in\n    tag_117:\n        /* \"#utility.yul\":3175:3314   */\n    tag_116:\n        /* \"#utility.yul\":2959:3321   */\n      pop\n        /* \"#utility.yul\":2911:3321   */\n      swap3\n      swap2\n      pop\n      pop\n      jump\t// out\n        /* \"#utility.yul\":3327:3432   */\n    tag_66:\n        /* \"#utility.yul\":3363:3370   */\n      0x00\n        /* \"#utility.yul\":3403:3425   */\n      0xffffffffffffffffffff\n        /* \"#utility.yul\":3396:3401   */\n      dup3\n        /* \"#utility.yul\":3392:3426   */\n      and\n        /* \"#utility.yul\":3381:3426   */\n      swap1\n      pop\n        /* \"#utility.yul\":3327:3432   */\n      swap2\n      swap1\n      pop\n      jump\t// out\n        /* \"#utility.yul\":3438:3558   */\n    tag_67:\n        /* \"#utility.yul\":3510:3533   */\n      tag_120\n        /* \"#utility.yul\":3527:3532   */\n      dup2\n        /* \"#utility.yul\":3510:3533   */\n      tag_66\n      jump\t// in\n    tag_120:\n        /* \"#utility.yul\":3503:3508   */\n      dup2\n        /* \"#utility.yul\":3500:3534   */\n      eq\n        /* \"#utility.yul\":3490:3552   */\n      tag_121\n      jumpi\n        /* \"#utility.yul\":3548:3549   */\n      0x00\n        /* \"#utility.yul\":3545:3546   */\n      dup1\n        /* \"#utility.yul\":3538:3550   */\n      revert\n        /* \"#utility.yul\":3490:3552   */\n    tag_121:\n        /* \"#utility.yul\":3438:3558   */\n      pop\n      jump\t// out\n        /* \"#utility.yul\":3564:3705   */\n    tag_68:\n        /* \"#utility.yul\":3620:3625   */\n      0x00\n        /* \"#utility.yul\":3651:3657   */\n      dup2\n        /* \"#utility.yul\":3645:3658   */\n      mload\n        /* \"#utility.yul\":3636:3658   */\n      swap1\n      pop\n        /* \"#utility.yul\":3667:3699   */\n      tag_123\n        /* \"#utility.yul\":3693:3698   */\n      dup2\n        /* \"#utility.yul\":3667:3699   */\n      tag_67\n      jump\t// in\n    tag_123:\n        /* \"#utility.yul\":3564:3705   */\n      swap3\n      swap2\n      pop\n      pop\n      jump\t// out\n        /* \"#utility.yul\":3711:3787   */\n    tag_69:\n        /* \"#utility.yul\":3747:3754   */\n      0x00\n        /* \"#utility.yul\":3776:3781   */\n      dup2\n        /* \"#utility.yul\":3765:3781   */\n      swap1\n      pop\n        /* \"#utility.yul\":3711:3787   */\n      swap2\n      swap1\n      pop\n      jump\t// out\n        /* \"#utility.yul\":3793:3913   */\n    tag_70:\n        /* \"#utility.yul\":3865:3888   */\n      tag_126\n        /* \"#utility.yul\":3882:3887   */\n      dup2\n        /* \"#utility.yul\":3865:3888   */\n      tag_69\n      jump\t// in\n    tag_126:\n        /* \"#utility.yul\":3858:3863   */\n      dup2\n        /* \"#utility.yul\":3855:3889   */\n      eq\n        /* \"#utility.yul\":3845:3907   */\n      tag_127\n      jumpi\n        /* \"#utility.yul\":3903:3904   */\n      0x00\n        /* \"#utility.yul\":3900:3901   */\n      dup1\n        /* \"#utility.yul\":3893:3905   */\n      revert\n        /* \"#utility.yul\":3845:3907   */\n    tag_127:\n        /* \"#utility.yul\":3793:3913   */\n      pop\n      jump\t// out\n        /* \"#utility.yul\":3919:4060   */\n    tag_71:\n        /* \"#utility.yul\":3975:3980   */\n      0x00\n        /* \"#utility.yul\":4006:4012   */\n      dup2\n        /* \"#utility.yul\":4000:4013   */\n      mload\n        /* \"#utility.yul\":3991:4013   */\n      swap1\n      pop\n        /* \"#utility.yul\":4022:4054   */\n      tag_129\n        /* \"#utility.yul\":4048:4053   */\n      dup2\n        /* \"#utility.yul\":4022:4054   */\n      tag_70\n      jump\t// in\n    tag_129:\n        /* \"#utility.yul\":3919:4060   */\n      swap3\n      swap2\n      pop\n      pop\n      jump\t// out\n        /* \"#utility.yul\":4066:5037   */\n    tag_43:\n        /* \"#utility.yul\":4169:4175   */\n      0x00\n        /* \"#utility.yul\":4177:4183   */\n      dup1\n        /* \"#utility.yul\":4185:4191   */\n      0x00\n        /* \"#utility.yul\":4193:4199   */\n      dup1\n        /* \"#utility.yul\":4201:4207   */\n      0x00\n        /* \"#utility.yul\":4250:4253   */\n      0xa0\n        /* \"#utility.yul\":4238:4247   */\n      dup7\n        /* \"#utility.yul\":4229:4236   */\n      dup9\n        /* \"#utility.yul\":4225:4248   */\n      sub\n        /* \"#utility.yul\":4221:4254   */\n      slt\n        /* \"#utility.yul\":4218:4338   */\n      iszero\n      tag_131\n      jumpi\n        /* \"#utility.yul\":4257:4336   */\n      tag_132\n      tag_56\n      jump\t// in\n    tag_132:\n        /* \"#utility.yul\":4218:4338   */\n    tag_131:\n        /* \"#utility.yul\":4377:4378   */\n      0x00\n        /* \"#utility.yul\":4402:4465   */\n      tag_133\n        /* \"#utility.yul\":4457:4464   */\n      dup9\n        /* \"#utility.yul\":4448:4454   */\n      dup3\n        /* \"#utility.yul\":4437:4446   */\n      dup10\n        /* \"#utility.yul\":4433:4455   */\n      add\n        /* \"#utility.yul\":4402:4465   */\n      tag_68\n      jump\t// in\n    tag_133:\n        /* \"#utility.yul\":4392:4465   */\n      swap6\n      pop\n        /* \"#utility.yul\":4348:4475   */\n      pop\n        /* \"#utility.yul\":4514:4516   */\n      0x20\n        /* \"#utility.yul\":4540:4603   */\n      tag_134\n        /* \"#utility.yul\":4595:4602   */\n      dup9\n        /* \"#utility.yul\":4586:4592   */\n      dup3\n        /* \"#utility.yul\":4575:4584   */\n      dup10\n        /* \"#utility.yul\":4571:4593   */\n      add\n        /* \"#utility.yul\":4540:4603   */\n      tag_71\n      jump\t// in\n    tag_134:\n        /* \"#utility.yul\":4530:4603   */\n      swap5\n      pop\n        /* \"#utility.yul\":4485:4613   */\n      pop\n        /* \"#utility.yul\":4652:4654   */\n      0x40\n        /* \"#utility.yul\":4678:4742   */\n      tag_135\n        /* \"#utility.yul\":4734:4741   */\n      dup9\n        /* \"#utility.yul\":4725:4731   */\n      dup3\n        /* \"#utility.yul\":4714:4723   */\n      dup10\n        /* \"#utility.yul\":4710:4732   */\n      add\n        /* \"#utility.yul\":4678:4742   */\n      tag_64\n      jump\t// in\n    tag_135:\n        /* \"#utility.yul\":4668:4742   */\n      swap4\n      pop\n        /* \"#utility.yul\":4623:4752   */\n      pop\n        /* \"#utility.yul\":4791:4793   */\n      0x60\n        /* \"#utility.yul\":4817:4881   */\n      tag_136\n        /* \"#utility.yul\":4873:4880   */\n      dup9\n        /* \"#utility.yul\":4864:4870   */\n      dup3\n        /* \"#utility.yul\":4853:4862   */\n      dup10\n        /* \"#utility.yul\":4849:4871   */\n      add\n        /* \"#utility.yul\":4817:4881   */\n      tag_64\n      jump\t// in\n    tag_136:\n        /* \"#utility.yul\":4807:4881   */\n      swap3\n      pop\n        /* \"#utility.yul\":4762:4891   */\n      pop\n        /* \"#utility.yul\":4930:4933   */\n      0x80\n        /* \"#utility.yul\":4957:5020   */\n      tag_137\n        /* \"#utility.yul\":5012:5019   */\n      dup9\n        /* \"#utility.yul\":5003:5009   */\n      dup3\n        /* \"#utility.yul\":4992:5001   */\n      dup10\n        /* \"#utility.yul\":4988:5010   */\n      add\n        /* \"#utility.yul\":4957:5020   */\n      tag_68\n      jump\t// in\n    tag_137:\n        /* \"#utility.yul\":4947:5020   */\n      swap2\n      pop\n        /* \"#utility.yul\":4901:5030   */\n      pop\n        /* \"#utility.yul\":4066:5037   */\n      swap3\n      swap6\n      pop\n      swap3\n      swap6\n      swap1\n      swap4\n      pop\n      jump\t// out\n        /* \"#utility.yul\":5043:5599   */\n    tag_45:\n        /* \"#utility.yul\":5082:5089   */\n      0x00\n        /* \"#utility.yul\":5105:5124   */\n      tag_139\n        /* \"#utility.yul\":5122:5123   */\n      dup3\n        /* \"#utility.yul\":5105:5124   */\n      tag_69\n      jump\t// in\n    tag_139:\n        /* \"#utility.yul\":5100:5124   */\n      swap2\n      pop\n        /* \"#utility.yul\":5138:5157   */\n      tag_140\n        /* \"#utility.yul\":5155:5156   */\n      dup4\n        /* \"#utility.yul\":5138:5157   */\n      tag_69\n      jump\t// in\n    tag_140:\n        /* \"#utility.yul\":5133:5157   */\n      swap3\n      pop\n        /* \"#utility.yul\":5192:5193   */\n      dup3\n        /* \"#utility.yul\":5189:5190   */\n      dup3\n        /* \"#utility.yul\":5185:5194   */\n      mul\n        /* \"#utility.yul\":5214:5243   */\n      tag_141\n        /* \"#utility.yul\":5231:5242   */\n      dup2\n        /* \"#utility.yul\":5214:5243   */\n      tag_69\n      jump\t// in\n    tag_141:\n        /* \"#utility.yul\":5203:5243   */\n      swap2\n      pop\n        /* \"#utility.yul\":5301:5367   */\n      0x8000000000000000000000000000000000000000000000000000000000000000\n        /* \"#utility.yul\":5298:5299   */\n      dup5\n        /* \"#utility.yul\":5295:5368   */\n      eq\n        /* \"#utility.yul\":5291:5292   */\n      0x00\n        /* \"#utility.yul\":5288:5289   */\n      dup5\n        /* \"#utility.yul\":5284:5293   */\n      slt\n        /* \"#utility.yul\":5280:5369   */\n      and\n        /* \"#utility.yul\":5277:5392   */\n      iszero\n      tag_142\n      jumpi\n        /* \"#utility.yul\":5372:5390   */\n      tag_143\n      tag_65\n      jump\t// in\n    tag_143:\n        /* \"#utility.yul\":5277:5392   */\n    tag_142:\n        /* \"#utility.yul\":5542:5543   */\n      dup3\n        /* \"#utility.yul\":5533:5540   */\n      dup3\n        /* \"#utility.yul\":5528:5544   */\n      sdiv\n        /* \"#utility.yul\":5525:5526   */\n      dup5\n        /* \"#utility.yul\":5522:5545   */\n      eq\n        /* \"#utility.yul\":5502:5503   */\n      dup4\n        /* \"#utility.yul\":5495:5504   */\n      iszero\n        /* \"#utility.yul\":5475:5559   */\n      or\n        /* \"#utility.yul\":5452:5592   */\n      tag_144\n      jumpi\n        /* \"#utility.yul\":5572:5590   */\n      tag_145\n      tag_65\n      jump\t// in\n    tag_145:\n        /* \"#utility.yul\":5452:5592   */\n    tag_144:\n        /* \"#utility.yul\":5090:5599   */\n      pop\n        /* \"#utility.yul\":5043:5599   */\n      swap3\n      swap2\n      pop\n      pop\n      jump\t// out\n        /* \"#utility.yul\":5605:5774   */\n    tag_72:\n        /* \"#utility.yul\":5689:5700   */\n      0x00\n        /* \"#utility.yul\":5723:5729   */\n      dup3\n        /* \"#utility.yul\":5718:5721   */\n      dup3\n        /* \"#utility.yul\":5711:5730   */\n      mstore\n        /* \"#utility.yul\":5763:5767   */\n      0x20\n        /* \"#utility.yul\":5758:5761   */\n      dup3\n        /* \"#utility.yul\":5754:5768   */\n      add\n        /* \"#utility.yul\":5739:5768   */\n      swap1\n      pop\n        /* \"#utility.yul\":5605:5774   */\n      swap3\n      swap2\n      pop\n      pop\n      jump\t// out\n        /* \"#utility.yul\":5780:5951   */\n    tag_73:\n        /* \"#utility.yul\":5920:5943   */\n      0x48696768657220416d6d6f756e74204e65656465640000000000000000000000\n        /* \"#utility.yul\":5916:5917   */\n      0x00\n        /* \"#utility.yul\":5908:5914   */\n      dup3\n        /* \"#utility.yul\":5904:5918   */\n      add\n        /* \"#utility.yul\":5897:5944   */\n      mstore\n        /* \"#utility.yul\":5780:5951   */\n      pop\n      jump\t// out\n        /* \"#utility.yul\":5957:6323   */\n    tag_74:\n        /* \"#utility.yul\":6099:6102   */\n      0x00\n        /* \"#utility.yul\":6120:6187   */\n      tag_149\n        /* \"#utility.yul\":6184:6186   */\n      0x15\n        /* \"#utility.yul\":6179:6182   */\n      dup4\n        /* \"#utility.yul\":6120:6187   */\n      tag_72\n      jump\t// in\n    tag_149:\n        /* \"#utility.yul\":6113:6187   */\n      swap2\n      pop\n        /* \"#utility.yul\":6196:6289   */\n      tag_150\n        /* \"#utility.yul\":6285:6288   */\n      dup3\n        /* \"#utility.yul\":6196:6289   */\n      tag_73\n      jump\t// in\n    tag_150:\n        /* \"#utility.yul\":6314:6316   */\n      0x20\n        /* \"#utility.yul\":6309:6312   */\n      dup3\n        /* \"#utility.yul\":6305:6317   */\n      add\n        /* \"#utility.yul\":6298:6317   */\n      swap1\n      pop\n        /* \"#utility.yul\":5957:6323   */\n      swap2\n      swap1\n      pop\n      jump\t// out\n        /* \"#utility.yul\":6329:6748   */\n    tag_50:\n        /* \"#utility.yul\":6495:6499   */\n      0x00\n        /* \"#utility.yul\":6533:6535   */\n      0x20\n        /* \"#utility.yul\":6522:6531   */\n      dup3\n        /* \"#utility.yul\":6518:6536   */\n      add\n        /* \"#utility.yul\":6510:6536   */\n      swap1\n      pop\n        /* \"#utility.yul\":6582:6591   */\n      dup2\n        /* \"#utility.yul\":6576:6580   */\n      dup2\n        /* \"#utility.yul\":6572:6592   */\n      sub\n        /* \"#utility.yul\":6568:6569   */\n      0x00\n        /* \"#utility.yul\":6557:6566   */\n      dup4\n        /* \"#utility.yul\":6553:6570   */\n      add\n        /* \"#utility.yul\":6546:6593   */\n      mstore\n        /* \"#utility.yul\":6610:6741   */\n      tag_152\n        /* \"#utility.yul\":6736:6740   */\n      dup2\n        /* \"#utility.yul\":6610:6741   */\n      tag_74\n      jump\t// in\n    tag_152:\n        /* \"#utility.yul\":6602:6741   */\n      swap1\n      pop\n        /* \"#utility.yul\":6329:6748   */\n      swap2\n      swap1\n      pop\n      jump\t// out\n        /* \"#utility.yul\":6754:6945   */\n    tag_52:\n        /* \"#utility.yul\":6794:6797   */\n      0x00\n        /* \"#utility.yul\":6813:6833   */\n      tag_154\n        /* \"#utility.yul\":6831:6832   */\n      dup3\n        /* \"#utility.yul\":6813:6833   */\n      tag_53\n      jump\t// in\n    tag_154:\n        /* \"#utility.yul\":6808:6833   */\n      swap2\n      pop\n        /* \"#utility.yul\":6847:6867   */\n      tag_155\n        /* \"#utility.yul\":6865:6866   */\n      dup4\n        /* \"#utility.yul\":6847:6867   */\n      tag_53\n      jump\t// in\n    tag_155:\n        /* \"#utility.yul\":6842:6867   */\n      swap3\n      pop\n        /* \"#utility.yul\":6890:6891   */\n      dup3\n        /* \"#utility.yul\":6887:6888   */\n      dup3\n        /* \"#utility.yul\":6883:6892   */\n      add\n        /* \"#utility.yul\":6876:6892   */\n      swap1\n      pop\n        /* \"#utility.yul\":6911:6914   */\n      dup1\n        /* \"#utility.yul\":6908:6909   */\n      dup3\n        /* \"#utility.yul\":6905:6915   */\n      gt\n        /* \"#utility.yul\":6902:6938   */\n      iszero\n      tag_156\n      jumpi\n        /* \"#utility.yul\":6918:6936   */\n      tag_157\n      tag_65\n      jump\t// in\n    tag_157:\n        /* \"#utility.yul\":6902:6938   */\n    tag_156:\n        /* \"#utility.yul\":6754:6945   */\n      swap3\n      swap2\n      pop\n      pop\n      jump\t// out\n\n    auxdata: 0xa2646970667358221220989afb825badd82f270b6c73d8139afe7b3b6fbd3deeabf4462be20c99a4871064736f6c634300081a0033\n}\n",
				"bytecode": {
					"linkReferences": {},
					"object": "6080604052348015600e575f80fd5b506107368061001c5f395ff3fe608060405260043610610049575f3560e01c80630d8e6e2c1461004d57806369d1c5af146100775780636e5b6b28146100b357806398d5fdca146100ef578063b60d428814610119575b5f80fd5b348015610058575f80fd5b50610061610123565b60405161006e9190610352565b60405180910390f35b348015610082575f80fd5b5061009d600480360381019061009891906103c9565b6101af565b6040516100aa9190610352565b60405180910390f35b3480156100be575f80fd5b506100d960048036038101906100d4919061041e565b6101c3565b6040516100e69190610352565b60405180910390f35b3480156100fa575f80fd5b506101036101e8565b6040516101109190610352565b60405180910390f35b61012161028d565b005b5f80731b44f3514812d835eb1bdb0acb33d3fa3351ee4390508073ffffffffffffffffffffffffffffffffffffffff166354fd4d506040518163ffffffff1660e01b8152600401602060405180830381865afa158015610185573d5f803e3d5ffd5b505050506040513d601f19601f820116820180604052508101906101a9919061045d565b91505090565b5f602052805f5260405f205f915090505481565b5f806101cd6101e8565b90505f83826101dc91906104b5565b90508092505050919050565b5f80731b44f3514812d835eb1bdb0acb33d3fa3351ee4390505f8173ffffffffffffffffffffffffffffffffffffffff1663feaf968c6040518163ffffffff1660e01b815260040160a060405180830381865afa15801561024b573d5f803e3d5ffd5b505050506040513d601f19601f8201168201806040525081019061026f9190610568565b5050509150506402540be4008161028691906105df565b9250505090565b5f6802b5e3af16b18800009050806102a4346101c3565b10156102e5576040517f08c379a00000000000000000000000000000000000000000000000000000000081526004016102dc906106af565b60405180910390fd5b345f803373ffffffffffffffffffffffffffffffffffffffff1673ffffffffffffffffffffffffffffffffffffffff1681526020019081526020015f205f82825461033091906106cd565b9250508190555050565b5f819050919050565b61034c8161033a565b82525050565b5f6020820190506103655f830184610343565b92915050565b5f80fd5b5f73ffffffffffffffffffffffffffffffffffffffff82169050919050565b5f6103988261036f565b9050919050565b6103a88161038e565b81146103b2575f80fd5b50565b5f813590506103c38161039f565b92915050565b5f602082840312156103de576103dd61036b565b5b5f6103eb848285016103b5565b91505092915050565b6103fd8161033a565b8114610407575f80fd5b50565b5f81359050610418816103f4565b92915050565b5f602082840312156104335761043261036b565b5b5f6104408482850161040a565b91505092915050565b5f81519050610457816103f4565b92915050565b5f602082840312156104725761047161036b565b5b5f61047f84828501610449565b91505092915050565b7f4e487b71000000000000000000000000000000000000000000000000000000005f52601160045260245ffd5b5f6104bf8261033a565b91506104ca8361033a565b92508282026104d88161033a565b915082820484148315176104ef576104ee610488565b5b5092915050565b5f69ffffffffffffffffffff82169050919050565b610514816104f6565b811461051e575f80fd5b50565b5f8151905061052f8161050b565b92915050565b5f819050919050565b61054781610535565b8114610551575f80fd5b50565b5f815190506105628161053e565b92915050565b5f805f805f60a086880312156105815761058061036b565b5b5f61058e88828901610521565b955050602061059f88828901610554565b94505060406105b088828901610449565b93505060606105c188828901610449565b92505060806105d288828901610521565b9150509295509295909350565b5f6105e982610535565b91506105f483610535565b925082820261060281610535565b91507f800000000000000000000000000000000000000000000000000000000000000084145f8412161561063957610638610488565b5b828205841483151761064e5761064d610488565b5b5092915050565b5f82825260208201905092915050565b7f48696768657220416d6d6f756e74204e656564656400000000000000000000005f82015250565b5f610699601583610655565b91506106a482610665565b602082019050919050565b5f6020820190508181035f8301526106c68161068d565b9050919050565b5f6106d78261033a565b91506106e28361033a565b92508282019050808211156106fa576106f9610488565b5b9291505056fea2646970667358221220989afb825badd82f270b6c73d8139afe7b3b6fbd3deeabf4462be20c99a4871064736f6c634300081a0033",
					"opcodes": "PUSH1 0x80 PUSH1 0x40 MSTORE CALLVALUE DUP1 ISZERO PUSH1 0xE JUMPI PUSH0 DUP1 REVERT JUMPDEST POP PUSH2 0x736 DUP1 PUSH2 0x1C PUSH0 CODECOPY PUSH0 RETURN INVALID PUSH1 0x80 PUSH1 0x40 MSTORE PUSH1 0x4 CALLDATASIZE LT PUSH2 0x49 JUMPI PUSH0 CALLDATALOAD PUSH1 0xE0 SHR DUP1 PUSH4 0xD8E6E2C EQ PUSH2 0x4D JUMPI DUP1 PUSH4 0x69D1C5AF EQ PUSH2 0x77 JUMPI DUP1 PUSH4 0x6E5B6B28 EQ PUSH2 0xB3 JUMPI DUP1 PUSH4 0x98D5FDCA EQ PUSH2 0xEF JUMPI DUP1 PUSH4 0xB60D4288 EQ PUSH2 0x119 JUMPI JUMPDEST PUSH0 DUP1 REVERT JUMPDEST CALLVALUE DUP1 ISZERO PUSH2 0x58 JUMPI PUSH0 DUP1 REVERT JUMPDEST POP PUSH2 0x61 PUSH2 0x123 JUMP JUMPDEST PUSH1 0x40 MLOAD PUSH2 0x6E SWAP2 SWAP1 PUSH2 0x352 JUMP JUMPDEST PUSH1 0x40 MLOAD DUP1 SWAP2 SUB SWAP1 RETURN JUMPDEST CALLVALUE DUP1 ISZERO PUSH2 0x82 JUMPI PUSH0 DUP1 REVERT JUMPDEST POP PUSH2 0x9D PUSH1 0x4 DUP1 CALLDATASIZE SUB DUP2 ADD SWAP1 PUSH2 0x98 SWAP2 SWAP1 PUSH2 0x3C9 JUMP JUMPDEST PUSH2 0x1AF JUMP JUMPDEST PUSH1 0x40 MLOAD PUSH2 0xAA SWAP2 SWAP1 PUSH2 0x352 JUMP JUMPDEST PUSH1 0x40 MLOAD DUP1 SWAP2 SUB SWAP1 RETURN JUMPDEST CALLVALUE DUP1 ISZERO PUSH2 0xBE JUMPI PUSH0 DUP1 REVERT JUMPDEST POP PUSH2 0xD9 PUSH1 0x4 DUP1 CALLDATASIZE SUB DUP2 ADD SWAP1 PUSH2 0xD4 SWAP2 SWAP1 PUSH2 0x41E JUMP JUMPDEST PUSH2 0x1C3 JUMP JUMPDEST PUSH1 0x40 MLOAD PUSH2 0xE6 SWAP2 SWAP1 PUSH2 0x352 JUMP JUMPDEST PUSH1 0x40 MLOAD DUP1 SWAP2 SUB SWAP1 RETURN JUMPDEST CALLVALUE DUP1 ISZERO PUSH2 0xFA JUMPI PUSH0 DUP1 REVERT JUMPDEST POP PUSH2 0x103 PUSH2 0x1E8 JUMP JUMPDEST PUSH1 0x40 MLOAD PUSH2 0x110 SWAP2 SWAP1 PUSH2 0x352 JUMP JUMPDEST PUSH1 0x40 MLOAD DUP1 SWAP2 SUB SWAP1 RETURN JUMPDEST PUSH2 0x121 PUSH2 0x28D JUMP JUMPDEST STOP JUMPDEST PUSH0 DUP1 PUSH20 0x1B44F3514812D835EB1BDB0ACB33D3FA3351EE43 SWAP1 POP DUP1 PUSH20 0xFFFFFFFFFFFFFFFFFFFFFFFFFFFFFFFFFFFFFFFF AND PUSH4 0x54FD4D50 PUSH1 0x40 MLOAD DUP2 PUSH4 0xFFFFFFFF AND PUSH1 0xE0 SHL DUP2 MSTORE PUSH1 0x4 ADD PUSH1 0x20 PUSH1 0x40 MLOAD DUP1 DUP4 SUB DUP2 DUP7 GAS STATICCALL ISZERO DUP1 ISZERO PUSH2 0x185 JUMPI RETURNDATASIZE PUSH0 DUP1 RETURNDATACOPY RETURNDATASIZE PUSH0 REVERT JUMPDEST POP POP POP POP PUSH1 0x40 MLOAD RETURNDATASIZE PUSH1 0x1F NOT PUSH1 0x1F DUP3 ADD AND DUP3 ADD DUP1 PUSH1 0x40 MSTORE POP DUP2 ADD SWAP1 PUSH2 0x1A9 SWAP2 SWAP1 PUSH2 0x45D JUMP JUMPDEST SWAP2 POP POP SWAP1 JUMP JUMPDEST PUSH0 PUSH1 0x20 MSTORE DUP1 PUSH0 MSTORE PUSH1 0x40 PUSH0 KECCAK256 PUSH0 SWAP2 POP SWAP1 POP SLOAD DUP2 JUMP JUMPDEST PUSH0 DUP1 PUSH2 0x1CD PUSH2 0x1E8 JUMP JUMPDEST SWAP1 POP PUSH0 DUP4 DUP3 PUSH2 0x1DC SWAP2 SWAP1 PUSH2 0x4B5 JUMP JUMPDEST SWAP1 POP DUP1 SWAP3 POP POP POP SWAP2 SWAP1 POP JUMP JUMPDEST PUSH0 DUP1 PUSH20 0x1B44F3514812D835EB1BDB0ACB33D3FA3351EE43 SWAP1 POP PUSH0 DUP2 PUSH20 0xFFFFFFFFFFFFFFFFFFFFFFFFFFFFFFFFFFFFFFFF AND PUSH4 0xFEAF968C PUSH1 0x40 MLOAD DUP2 PUSH4 0xFFFFFFFF AND PUSH1 0xE0 SHL DUP2 MSTORE PUSH1 0x4 ADD PUSH1 0xA0 PUSH1 0x40 MLOAD DUP1 DUP4 SUB DUP2 DUP7 GAS STATICCALL ISZERO DUP1 ISZERO PUSH2 0x24B JUMPI RETURNDATASIZE PUSH0 DUP1 RETURNDATACOPY RETURNDATASIZE PUSH0 REVERT JUMPDEST POP POP POP POP PUSH1 0x40 MLOAD RETURNDATASIZE PUSH1 0x1F NOT PUSH1 0x1F DUP3 ADD AND DUP3 ADD DUP1 PUSH1 0x40 MSTORE POP DUP2 ADD SWAP1 PUSH2 0x26F SWAP2 SWAP1 PUSH2 0x568 JUMP JUMPDEST POP POP POP SWAP2 POP POP PUSH5 0x2540BE400 DUP2 PUSH2 0x286 SWAP2 SWAP1 PUSH2 0x5DF JUMP JUMPDEST SWAP3 POP POP POP SWAP1 JUMP JUMPDEST PUSH0 PUSH9 0x2B5E3AF16B1880000 SWAP1 POP DUP1 PUSH2 0x2A4 CALLVALUE PUSH2 0x1C3 JUMP JUMPDEST LT ISZERO PUSH2 0x2E5 JUMPI PUSH1 0x40 MLOAD PUSH32 0x8C379A000000000000000000000000000000000000000000000000000000000 DUP2 MSTORE PUSH1 0x4 ADD PUSH2 0x2DC SWAP1 PUSH2 0x6AF JUMP JUMPDEST PUSH1 0x40 MLOAD DUP1 SWAP2 SUB SWAP1 REVERT JUMPDEST CALLVALUE PUSH0 DUP1 CALLER PUSH20 0xFFFFFFFFFFFFFFFFFFFFFFFFFFFFFFFFFFFFFFFF AND PUSH20 0xFFFFFFFFFFFFFFFFFFFFFFFFFFFFFFFFFFFFFFFF AND DUP2 MSTORE PUSH1 0x20 ADD SWAP1 DUP2 MSTORE PUSH1 0x20 ADD PUSH0 KECCAK256 PUSH0 DUP3 DUP3 SLOAD PUSH2 0x330 SWAP2 SWAP1 PUSH2 0x6CD JUMP JUMPDEST SWAP3 POP POP DUP2 SWAP1 SSTORE POP POP JUMP JUMPDEST PUSH0 DUP2 SWAP1 POP SWAP2 SWAP1 POP JUMP JUMPDEST PUSH2 0x34C DUP2 PUSH2 0x33A JUMP JUMPDEST DUP3 MSTORE POP POP JUMP JUMPDEST PUSH0 PUSH1 0x20 DUP3 ADD SWAP1 POP PUSH2 0x365 PUSH0 DUP4 ADD DUP5 PUSH2 0x343 JUMP JUMPDEST SWAP3 SWAP2 POP POP JUMP JUMPDEST PUSH0 DUP1 REVERT JUMPDEST PUSH0 PUSH20 0xFFFFFFFFFFFFFFFFFFFFFFFFFFFFFFFFFFFFFFFF DUP3 AND SWAP1 POP SWAP2 SWAP1 POP JUMP JUMPDEST PUSH0 PUSH2 0x398 DUP3 PUSH2 0x36F JUMP JUMPDEST SWAP1 POP SWAP2 SWAP1 POP JUMP JUMPDEST PUSH2 0x3A8 DUP2 PUSH2 0x38E JUMP JUMPDEST DUP2 EQ PUSH2 0x3B2 JUMPI PUSH0 DUP1 REVERT JUMPDEST POP JUMP JUMPDEST PUSH0 DUP2 CALLDATALOAD SWAP1 POP PUSH2 0x3C3 DUP2 PUSH2 0x39F JUMP JUMPDEST SWAP3 SWAP2 POP POP JUMP JUMPDEST PUSH0 PUSH1 0x20 DUP3 DUP5 SUB SLT ISZERO PUSH2 0x3DE JUMPI PUSH2 0x3DD PUSH2 0x36B JUMP JUMPDEST JUMPDEST PUSH0 PUSH2 0x3EB DUP5 DUP3 DUP6 ADD PUSH2 0x3B5 JUMP JUMPDEST SWAP2 POP POP SWAP3 SWAP2 POP POP JUMP JUMPDEST PUSH2 0x3FD DUP2 PUSH2 0x33A JUMP JUMPDEST DUP2 EQ PUSH2 0x407 JUMPI PUSH0 DUP1 REVERT JUMPDEST POP JUMP JUMPDEST PUSH0 DUP2 CALLDATALOAD SWAP1 POP PUSH2 0x418 DUP2 PUSH2 0x3F4 JUMP JUMPDEST SWAP3 SWAP2 POP POP JUMP JUMPDEST PUSH0 PUSH1 0x20 DUP3 DUP5 SUB SLT ISZERO PUSH2 0x433 JUMPI PUSH2 0x432 PUSH2 0x36B JUMP JUMPDEST JUMPDEST PUSH0 PUSH2 0x440 DUP5 DUP3 DUP6 ADD PUSH2 0x40A JUMP JUMPDEST SWAP2 POP POP SWAP3 SWAP2 POP POP JUMP JUMPDEST PUSH0 DUP2 MLOAD SWAP1 POP PUSH2 0x457 DUP2 PUSH2 0x3F4 JUMP JUMPDEST SWAP3 SWAP2 POP POP JUMP JUMPDEST PUSH0 PUSH1 0x20 DUP3 DUP5 SUB SLT ISZERO PUSH2 0x472 JUMPI PUSH2 0x471 PUSH2 0x36B JUMP JUMPDEST JUMPDEST PUSH0 PUSH2 0x47F DUP5 DUP3 DUP6 ADD PUSH2 0x449 JUMP JUMPDEST SWAP2 POP POP SWAP3 SWAP2 POP POP JUMP JUMPDEST PUSH32 0x4E487B7100000000000000000000000000000000000000000000000000000000 PUSH0 MSTORE PUSH1 0x11 PUSH1 0x4 MSTORE PUSH1 0x24 PUSH0 REVERT JUMPDEST PUSH0 PUSH2 0x4BF DUP3 PUSH2 0x33A JUMP JUMPDEST SWAP2 POP PUSH2 0x4CA DUP4 PUSH2 0x33A JUMP JUMPDEST SWAP3 POP DUP3 DUP3 MUL PUSH2 0x4D8 DUP2 PUSH2 0x33A JUMP JUMPDEST SWAP2 POP DUP3 DUP3 DIV DUP5 EQ DUP4 ISZERO OR PUSH2 0x4EF JUMPI PUSH2 0x4EE PUSH2 0x488 JUMP JUMPDEST JUMPDEST POP SWAP3 SWAP2 POP POP JUMP JUMPDEST PUSH0 PUSH10 0xFFFFFFFFFFFFFFFFFFFF DUP3 AND SWAP1 POP SWAP2 SWAP1 POP JUMP JUMPDEST PUSH2 0x514 DUP2 PUSH2 0x4F6 JUMP JUMPDEST DUP2 EQ PUSH2 0x51E JUMPI PUSH0 DUP1 REVERT JUMPDEST POP JUMP JUMPDEST PUSH0 DUP2 MLOAD SWAP1 POP PUSH2 0x52F DUP2 PUSH2 0x50B JUMP JUMPDEST SWAP3 SWAP2 POP POP JUMP JUMPDEST PUSH0 DUP2 SWAP1 POP SWAP2 SWAP1 POP JUMP JUMPDEST PUSH2 0x547 DUP2 PUSH2 0x535 JUMP JUMPDEST DUP2 EQ PUSH2 0x551 JUMPI PUSH0 DUP1 REVERT JUMPDEST POP JUMP JUMPDEST PUSH0 DUP2 MLOAD SWAP1 POP PUSH2 0x562 DUP2 PUSH2 0x53E JUMP JUMPDEST SWAP3 SWAP2 POP POP JUMP JUMPDEST PUSH0 DUP1 PUSH0 DUP1 PUSH0 PUSH1 0xA0 DUP7 DUP9 SUB SLT ISZERO PUSH2 0x581 JUMPI PUSH2 0x580 PUSH2 0x36B JUMP JUMPDEST JUMPDEST PUSH0 PUSH2 0x58E DUP9 DUP3 DUP10 ADD PUSH2 0x521 JUMP JUMPDEST SWAP6 POP POP PUSH1 0x20 PUSH2 0x59F DUP9 DUP3 DUP10 ADD PUSH2 0x554 JUMP JUMPDEST SWAP5 POP POP PUSH1 0x40 PUSH2 0x5B0 DUP9 DUP3 DUP10 ADD PUSH2 0x449 JUMP JUMPDEST SWAP4 POP POP PUSH1 0x60 PUSH2 0x5C1 DUP9 DUP3 DUP10 ADD PUSH2 0x449 JUMP JUMPDEST SWAP3 POP POP PUSH1 0x80 PUSH2 0x5D2 DUP9 DUP3 DUP10 ADD PUSH2 0x521 JUMP JUMPDEST SWAP2 POP POP SWAP3 SWAP6 POP SWAP3 SWAP6 SWAP1 SWAP4 POP JUMP JUMPDEST PUSH0 PUSH2 0x5E9 DUP3 PUSH2 0x535 JUMP JUMPDEST SWAP2 POP PUSH2 0x5F4 DUP4 PUSH2 0x535 JUMP JUMPDEST SWAP3 POP DUP3 DUP3 MUL PUSH2 0x602 DUP2 PUSH2 0x535 JUMP JUMPDEST SWAP2 POP PUSH32 0x8000000000000000000000000000000000000000000000000000000000000000 DUP5 EQ PUSH0 DUP5 SLT AND ISZERO PUSH2 0x639 JUMPI PUSH2 0x638 PUSH2 0x488 JUMP JUMPDEST JUMPDEST DUP3 DUP3 SDIV DUP5 EQ DUP4 ISZERO OR PUSH2 0x64E JUMPI PUSH2 0x64D PUSH2 0x488 JUMP JUMPDEST JUMPDEST POP SWAP3 SWAP2 POP POP JUMP JUMPDEST PUSH0 DUP3 DUP3 MSTORE PUSH1 0x20 DUP3 ADD SWAP1 POP SWAP3 SWAP2 POP POP JUMP JUMPDEST PUSH32 0x48696768657220416D6D6F756E74204E65656465640000000000000000000000 PUSH0 DUP3 ADD MSTORE POP JUMP JUMPDEST PUSH0 PUSH2 0x699 PUSH1 0x15 DUP4 PUSH2 0x655 JUMP JUMPDEST SWAP2 POP PUSH2 0x6A4 DUP3 PUSH2 0x665 JUMP JUMPDEST PUSH1 0x20 DUP3 ADD SWAP1 POP SWAP2 SWAP1 POP JUMP JUMPDEST PUSH0 PUSH1 0x20 DUP3 ADD SWAP1 POP DUP2 DUP2 SUB PUSH0 DUP4 ADD MSTORE PUSH2 0x6C6 DUP2 PUSH2 0x68D JUMP JUMPDEST SWAP1 POP SWAP2 SWAP1 POP JUMP JUMPDEST PUSH0 PUSH2 0x6D7 DUP3 PUSH2 0x33A JUMP JUMPDEST SWAP2 POP PUSH2 0x6E2 DUP4 PUSH2 0x33A JUMP JUMPDEST SWAP3 POP DUP3 DUP3 ADD SWAP1 POP DUP1 DUP3 GT ISZERO PUSH2 0x6FA JUMPI PUSH2 0x6F9 PUSH2 0x488 JUMP JUMPDEST JUMPDEST SWAP3 SWAP2 POP POP JUMP INVALID LOG2 PUSH5 0x6970667358 0x22 SLT KECCAK256 SWAP9 SWAP11 0xFB DUP3 JUMPDEST 0xAD 0xD8 0x2F 0x27 SIGNEXTEND PUSH13 0x73D8139AFE7B3B6FBD3DEEABF4 CHAINID 0x2B 0xE2 0xC SWAP10 LOG4 DUP8 LT PUSH5 0x736F6C6343 STOP ADDMOD BYTE STOP CALLER "
				},
				"gasEstimates": {
					"creation": {
						"codeDepositCost": "369200",
						"executionCost": "403",
						"totalCost": "369603"
					},
					"external": {
						"addressToAmountFounded(address)": "2801",
						"fund()": "infinite",
						"getConversionRate(uint256)": "infinite",
						"getPrice()": "infinite",
						"getVersion()": "infinite"
					}
				},
				"methodIdentifiers": {
					"addressToAmountFounded(address)": "69d1c5af",
					"fund()": "b60d4288",
					"getConversionRate(uint256)": "6e5b6b28",
					"getPrice()": "98d5fdca",
					"getVersion()": "0d8e6e2c"
				}
			},
			"storageLayout": {
				"storage": [
					{
						"astId": 53,
						"contract": "contracts/FundeMe.sol:FundMe",
						"label": "addressToAmountFounded",
						"offset": 0,
						"slot": "0",
						"type": "t_mapping(t_address,t_uint256)"
					}
				],
				"types": {
					"t_address": {
						"encoding": "inplace",
						"label": "address",
						"numberOfBytes": "20"
					},
					"t_mapping(t_address,t_uint256)": {
						"encoding": "mapping",
						"key": "t_address",
						"label": "mapping(address => uint256)",
						"numberOfBytes": "32",
						"value": "t_uint256"
					},
					"t_uint256": {
						"encoding": "inplace",
						"label": "uint256",
						"numberOfBytes": "32"
					}
				}
			},
			"userdoc": {
				"kind": "user",
				"methods": {},
				"version": 1
			}
		}
	}
}