{
	"contracts/TaskConract.sol": {
		"TasContract": {
			"abi": [
				{
					"inputs": [
						{
							"internalType": "string",
							"name": "_name",
							"type": "string"
						},
						{
							"internalType": "string",
							"name": "_description",
							"type": "string"
						}
					],
					"name": "createTask",
					"outputs": [],
					"stateMutability": "nonpayable",
					"type": "function"
				},
				{
					"inputs": [
						{
							"internalType": "uint256",
							"name": "_id",
							"type": "uint256"
						}
					],
					"name": "readTask",
					"outputs": [
						{
							"internalType": "uint256",
							"name": "",
							"type": "uint256"
						},
						{
							"internalType": "string",
							"name": "",
							"type": "string"
						},
						{
							"internalType": "string",
							"name": "",
							"type": "string"
						}
					],
					"stateMutability": "view",
					"type": "function"
				}
			],
			"devdoc": {
				"kind": "dev",
				"methods": {},
				"version": 1
			},
			"evm": {
				"assembly": "    /* \"contracts/TaskConract.sol\":60:791  contract TasContract {... */\n  mstore(0x40, 0x80)\n  callvalue\n  dup1\n  iszero\n  tag_1\n  jumpi\n  revert(0x00, 0x00)\ntag_1:\n  pop\n  dataSize(sub_0)\n  dup1\n  dataOffset(sub_0)\n  0x00\n  codecopy\n  0x00\n  return\nstop\n\nsub_0: assembly {\n        /* \"contracts/TaskConract.sol\":60:791  contract TasContract {... */\n      mstore(0x40, 0x80)\n      callvalue\n      dup1\n      iszero\n      tag_1\n      jumpi\n      revert(0x00, 0x00)\n    tag_1:\n      pop\n      jumpi(tag_2, lt(calldatasize, 0x04))\n      shr(0xe0, calldataload(0x00))\n      dup1\n      0x292a4585\n      eq\n      tag_3\n      jumpi\n      dup1\n      0xab755faf\n      eq\n      tag_4\n      jumpi\n    tag_2:\n      revert(0x00, 0x00)\n        /* \"contracts/TaskConract.sol\":200:349  function createTask (string memory _name,string memory _description) public {... */\n    tag_3:\n      tag_5\n      0x04\n      dup1\n      calldatasize\n      sub\n      dup2\n      add\n      swap1\n      tag_6\n      swap2\n      swap1\n      tag_7\n      jump\t// in\n    tag_6:\n      tag_8\n      jump\t// in\n    tag_5:\n      stop\n        /* \"contracts/TaskConract.sol\":588:788  function readTask (uint _id) public view returns (uint, string memory, string memory) {... */\n    tag_4:\n      tag_9\n      0x04\n      dup1\n      calldatasize\n      sub\n      dup2\n      add\n      swap1\n      tag_10\n      swap2\n      swap1\n      tag_11\n      jump\t// in\n    tag_10:\n      tag_12\n      jump\t// in\n    tag_9:\n      mload(0x40)\n      tag_13\n      swap4\n      swap3\n      swap2\n      swap1\n      tag_14\n      jump\t// in\n    tag_13:\n      mload(0x40)\n      dup1\n      swap2\n      sub\n      swap1\n      return\n        /* \"contracts/TaskConract.sol\":200:349  function createTask (string memory _name,string memory _description) public {... */\n    tag_8:\n        /* \"contracts/TaskConract.sol\":283:288  tasks */\n      0x01\n        /* \"contracts/TaskConract.sol\":294:327  Task(nextId, _name, _description) */\n      mload(0x40)\n      dup1\n      0x60\n      add\n      0x40\n      mstore\n      dup1\n        /* \"contracts/TaskConract.sol\":299:305  nextId */\n      sload(0x00)\n        /* \"contracts/TaskConract.sol\":294:327  Task(nextId, _name, _description) */\n      dup2\n      mstore\n      0x20\n      add\n        /* \"contracts/TaskConract.sol\":307:312  _name */\n      dup5\n        /* \"contracts/TaskConract.sol\":294:327  Task(nextId, _name, _description) */\n      dup2\n      mstore\n      0x20\n      add\n        /* \"contracts/TaskConract.sol\":314:326  _description */\n      dup4\n        /* \"contracts/TaskConract.sol\":294:327  Task(nextId, _name, _description) */\n      dup2\n      mstore\n      pop\n        /* \"contracts/TaskConract.sol\":283:328  tasks.push(Task(nextId, _name, _description)) */\n      swap1\n      dup1\n      0x01\n      dup2\n      sload\n      add\n      dup1\n      dup3\n      sstore\n      dup1\n      swap2\n      pop\n      pop\n      0x01\n      swap1\n      sub\n      swap1\n      0x00\n      mstore\n      keccak256(0x00, 0x20)\n      swap1\n      0x03\n      mul\n      add\n      0x00\n      swap1\n      swap2\n      swap1\n      swap2\n      swap1\n      swap2\n      pop\n      0x00\n      dup3\n      add\n      mload\n      dup2\n      0x00\n      add\n      sstore\n      0x20\n      dup3\n      add\n      mload\n      dup2\n      0x01\n      add\n      swap1\n      dup2\n      tag_17\n      swap2\n      swap1\n      tag_18\n      jump\t// in\n    tag_17:\n      pop\n      0x40\n      dup3\n      add\n      mload\n      dup2\n      0x02\n      add\n      swap1\n      dup2\n      tag_19\n      swap2\n      swap1\n      tag_18\n      jump\t// in\n    tag_19:\n      pop\n      pop\n      pop\n        /* \"contracts/TaskConract.sol\":335:341  nextId */\n      0x00\n      0x00\n        /* \"contracts/TaskConract.sol\":335:343  nextId++ */\n      dup2\n      sload\n      dup1\n      swap3\n      swap2\n      swap1\n      tag_20\n      swap1\n      tag_21\n      jump\t// in\n    tag_20:\n      swap2\n      swap1\n      pop\n      sstore\n      pop\n        /* \"contracts/TaskConract.sol\":200:349  function createTask (string memory _name,string memory _description) public {... */\n      pop\n      pop\n      jump\t// out\n        /* \"contracts/TaskConract.sol\":588:788  function readTask (uint _id) public view returns (uint, string memory, string memory) {... */\n    tag_12:\n        /* \"contracts/TaskConract.sol\":638:642  uint */\n      0x00\n        /* \"contracts/TaskConract.sol\":644:657  string memory */\n      0x60\n        /* \"contracts/TaskConract.sol\":659:672  string memory */\n      dup1\n        /* \"contracts/TaskConract.sol\":680:690  uint index */\n      0x00\n        /* \"contracts/TaskConract.sol\":693:707  findIndex(_id) */\n      tag_23\n        /* \"contracts/TaskConract.sol\":703:706  _id */\n      dup6\n        /* \"contracts/TaskConract.sol\":693:702  findIndex */\n      tag_24\n        /* \"contracts/TaskConract.sol\":693:707  findIndex(_id) */\n      jump\t// in\n    tag_23:\n        /* \"contracts/TaskConract.sol\":680:707  uint index = findIndex(_id) */\n      swap1\n      pop\n        /* \"contracts/TaskConract.sol\":721:726  tasks */\n      0x01\n        /* \"contracts/TaskConract.sol\":727:732  index */\n      dup2\n        /* \"contracts/TaskConract.sol\":721:733  tasks[index] */\n      dup2\n      sload\n      dup2\n      lt\n      tag_25\n      jumpi\n      tag_26\n      tag_27\n      jump\t// in\n    tag_26:\n    tag_25:\n      swap1\n      0x00\n      mstore\n      keccak256(0x00, 0x20)\n      swap1\n      0x03\n      mul\n      add\n        /* \"contracts/TaskConract.sol\":721:736  tasks[index].id */\n      0x00\n      add\n      sload\n        /* \"contracts/TaskConract.sol\":738:743  tasks */\n      0x01\n        /* \"contracts/TaskConract.sol\":744:749  index */\n      dup3\n        /* \"contracts/TaskConract.sol\":738:750  tasks[index] */\n      dup2\n      sload\n      dup2\n      lt\n      tag_29\n      jumpi\n      tag_30\n      tag_27\n      jump\t// in\n    tag_30:\n    tag_29:\n      swap1\n      0x00\n      mstore\n      keccak256(0x00, 0x20)\n      swap1\n      0x03\n      mul\n      add\n        /* \"contracts/TaskConract.sol\":738:755  tasks[index].name */\n      0x01\n      add\n        /* \"contracts/TaskConract.sol\":757:762  tasks */\n      0x01\n        /* \"contracts/TaskConract.sol\":763:768  index */\n      dup4\n        /* \"contracts/TaskConract.sol\":757:769  tasks[index] */\n      dup2\n      sload\n      dup2\n      lt\n      tag_32\n      jumpi\n      tag_33\n      tag_27\n      jump\t// in\n    tag_33:\n    tag_32:\n      swap1\n      0x00\n      mstore\n      keccak256(0x00, 0x20)\n      swap1\n      0x03\n      mul\n      add\n        /* \"contracts/TaskConract.sol\":757:781  tasks[index].description */\n      0x02\n      add\n        /* \"contracts/TaskConract.sol\":713:782  return (tasks[index].id, tasks[index].name, tasks[index].description) */\n      dup2\n      dup1\n      sload\n      tag_35\n      swap1\n      tag_36\n      jump\t// in\n    tag_35:\n      dup1\n      0x1f\n      add\n      0x20\n      dup1\n      swap2\n      div\n      mul\n      0x20\n      add\n      mload(0x40)\n      swap1\n      dup2\n      add\n      0x40\n      mstore\n      dup1\n      swap3\n      swap2\n      swap1\n      dup2\n      dup2\n      mstore\n      0x20\n      add\n      dup3\n      dup1\n      sload\n      tag_37\n      swap1\n      tag_36\n      jump\t// in\n    tag_37:\n      dup1\n      iszero\n      tag_38\n      jumpi\n      dup1\n      0x1f\n      lt\n      tag_39\n      jumpi\n      0x0100\n      dup1\n      dup4\n      sload\n      div\n      mul\n      dup4\n      mstore\n      swap2\n      0x20\n      add\n      swap2\n      jump(tag_38)\n    tag_39:\n      dup3\n      add\n      swap2\n      swap1\n      0x00\n      mstore\n      keccak256(0x00, 0x20)\n      swap1\n    tag_40:\n      dup2\n      sload\n      dup2\n      mstore\n      swap1\n      0x01\n      add\n      swap1\n      0x20\n      add\n      dup1\n      dup4\n      gt\n      tag_40\n      jumpi\n      dup3\n      swap1\n      sub\n      0x1f\n      and\n      dup3\n      add\n      swap2\n    tag_38:\n      pop\n      pop\n      pop\n      pop\n      pop\n      swap2\n      pop\n      dup1\n      dup1\n      sload\n      tag_41\n      swap1\n      tag_36\n      jump\t// in\n    tag_41:\n      dup1\n      0x1f\n      add\n      0x20\n      dup1\n      swap2\n      div\n      mul\n      0x20\n      add\n      mload(0x40)\n      swap1\n      dup2\n      add\n      0x40\n      mstore\n      dup1\n      swap3\n      swap2\n      swap1\n      dup2\n      dup2\n      mstore\n      0x20\n      add\n      dup3\n      dup1\n      sload\n      tag_42\n      swap1\n      tag_36\n      jump\t// in\n    tag_42:\n      dup1\n      iszero\n      tag_43\n      jumpi\n      dup1\n      0x1f\n      lt\n      tag_44\n      jumpi\n      0x0100\n      dup1\n      dup4\n      sload\n      div\n      mul\n      dup4\n      mstore\n      swap2\n      0x20\n      add\n      swap2\n      jump(tag_43)\n    tag_44:\n      dup3\n      add\n      swap2\n      swap1\n      0x00\n      mstore\n      keccak256(0x00, 0x20)\n      swap1\n    tag_45:\n      dup2\n      sload\n      dup2\n      mstore\n      swap1\n      0x01\n      add\n      swap1\n      0x20\n      add\n      dup1\n      dup4\n      gt\n      tag_45\n      jumpi\n      dup3\n      swap1\n      sub\n      0x1f\n      and\n      dup3\n      add\n      swap2\n    tag_43:\n      pop\n      pop\n      pop\n      pop\n      pop\n      swap1\n      pop\n      swap4\n      pop\n      swap4\n      pop\n      swap4\n      pop\n      pop\n        /* \"contracts/TaskConract.sol\":588:788  function readTask (uint _id) public view returns (uint, string memory, string memory) {... */\n      swap2\n      swap4\n      swap1\n      swap3\n      pop\n      jump\t// out\n        /* \"contracts/TaskConract.sol\":358:584  function findIndex (uint _id) internal view returns (uint)  {... */\n    tag_24:\n        /* \"contracts/TaskConract.sol\":411:415  uint */\n      0x00\n        /* \"contracts/TaskConract.sol\":435:441  uint i */\n      0x00\n        /* \"contracts/TaskConract.sol\":442:443  0 */\n      0x00\n        /* \"contracts/TaskConract.sol\":435:443  uint i=0 */\n      swap1\n      pop\n        /* \"contracts/TaskConract.sol\":430:545  for (uint i=0; i < tasks.length; i++){... */\n    tag_47:\n        /* \"contracts/TaskConract.sol\":449:454  tasks */\n      0x01\n        /* \"contracts/TaskConract.sol\":449:461  tasks.length */\n      dup1\n      sload\n      swap1\n      pop\n        /* \"contracts/TaskConract.sol\":445:446  i */\n      dup2\n        /* \"contracts/TaskConract.sol\":445:461  i < tasks.length */\n      lt\n        /* \"contracts/TaskConract.sol\":430:545  for (uint i=0; i < tasks.length; i++){... */\n      iszero\n      tag_48\n      jumpi\n        /* \"contracts/TaskConract.sol\":497:500  _id */\n      dup3\n        /* \"contracts/TaskConract.sol\":482:487  tasks */\n      0x01\n        /* \"contracts/TaskConract.sol\":488:489  i */\n      dup3\n        /* \"contracts/TaskConract.sol\":482:490  tasks[i] */\n      dup2\n      sload\n      dup2\n      lt\n      tag_50\n      jumpi\n      tag_51\n      tag_27\n      jump\t// in\n    tag_51:\n    tag_50:\n      swap1\n      0x00\n      mstore\n      keccak256(0x00, 0x20)\n      swap1\n      0x03\n      mul\n      add\n        /* \"contracts/TaskConract.sol\":482:493  tasks[i].id */\n      0x00\n      add\n      sload\n        /* \"contracts/TaskConract.sol\":482:500  tasks[i].id == _id */\n      sub\n        /* \"contracts/TaskConract.sol\":478:536  if (tasks[i].id == _id){... */\n      tag_53\n      jumpi\n        /* \"contracts/TaskConract.sol\":523:524  i */\n      dup1\n        /* \"contracts/TaskConract.sol\":516:524  return i */\n      swap2\n      pop\n      pop\n      jump(tag_46)\n        /* \"contracts/TaskConract.sol\":478:536  if (tasks[i].id == _id){... */\n    tag_53:\n        /* \"contracts/TaskConract.sol\":463:466  i++ */\n      dup1\n      dup1\n      0x01\n      add\n      swap2\n      pop\n      pop\n        /* \"contracts/TaskConract.sol\":430:545  for (uint i=0; i < tasks.length; i++){... */\n      jump(tag_47)\n    tag_48:\n      pop\n        /* \"contracts/TaskConract.sol\":551:575  revert('task not found') */\n      mload(0x40)\n      0x08c379a000000000000000000000000000000000000000000000000000000000\n      dup2\n      mstore\n      0x04\n      add\n      tag_54\n      swap1\n      tag_55\n      jump\t// in\n    tag_54:\n      mload(0x40)\n      dup1\n      swap2\n      sub\n      swap1\n      revert\n        /* \"contracts/TaskConract.sol\":358:584  function findIndex (uint _id) internal view returns (uint)  {... */\n    tag_46:\n      swap2\n      swap1\n      pop\n      jump\t// out\n        /* \"#utility.yul\":7:82   */\n    tag_56:\n        /* \"#utility.yul\":40:46   */\n      0x00\n        /* \"#utility.yul\":73:75   */\n      0x40\n        /* \"#utility.yul\":67:76   */\n      mload\n        /* \"#utility.yul\":57:76   */\n      swap1\n      pop\n        /* \"#utility.yul\":7:82   */\n      swap1\n      jump\t// out\n        /* \"#utility.yul\":88:205   */\n    tag_57:\n        /* \"#utility.yul\":197:198   */\n      0x00\n        /* \"#utility.yul\":194:195   */\n      0x00\n        /* \"#utility.yul\":187:199   */\n      revert\n        /* \"#utility.yul\":211:328   */\n    tag_58:\n        /* \"#utility.yul\":320:321   */\n      0x00\n        /* \"#utility.yul\":317:318   */\n      0x00\n        /* \"#utility.yul\":310:322   */\n      revert\n        /* \"#utility.yul\":334:451   */\n    tag_59:\n        /* \"#utility.yul\":443:444   */\n      0x00\n        /* \"#utility.yul\":440:441   */\n      0x00\n        /* \"#utility.yul\":433:445   */\n      revert\n        /* \"#utility.yul\":457:574   */\n    tag_60:\n        /* \"#utility.yul\":566:567   */\n      0x00\n        /* \"#utility.yul\":563:564   */\n      0x00\n        /* \"#utility.yul\":556:568   */\n      revert\n        /* \"#utility.yul\":580:682   */\n    tag_61:\n        /* \"#utility.yul\":621:627   */\n      0x00\n        /* \"#utility.yul\":672:674   */\n      0x1f\n        /* \"#utility.yul\":668:675   */\n      not\n        /* \"#utility.yul\":663:665   */\n      0x1f\n        /* \"#utility.yul\":656:661   */\n      dup4\n        /* \"#utility.yul\":652:666   */\n      add\n        /* \"#utility.yul\":648:676   */\n      and\n        /* \"#utility.yul\":638:676   */\n      swap1\n      pop\n        /* \"#utility.yul\":580:682   */\n      swap2\n      swap1\n      pop\n      jump\t// out\n        /* \"#utility.yul\":688:868   */\n    tag_62:\n        /* \"#utility.yul\":736:813   */\n      0x4e487b7100000000000000000000000000000000000000000000000000000000\n        /* \"#utility.yul\":733:734   */\n      0x00\n        /* \"#utility.yul\":726:814   */\n      mstore\n        /* \"#utility.yul\":833:837   */\n      0x41\n        /* \"#utility.yul\":830:831   */\n      0x04\n        /* \"#utility.yul\":823:838   */\n      mstore\n        /* \"#utility.yul\":857:861   */\n      0x24\n        /* \"#utility.yul\":854:855   */\n      0x00\n        /* \"#utility.yul\":847:862   */\n      revert\n        /* \"#utility.yul\":874:1155   */\n    tag_63:\n        /* \"#utility.yul\":957:984   */\n      tag_105\n        /* \"#utility.yul\":979:983   */\n      dup3\n        /* \"#utility.yul\":957:984   */\n      tag_61\n      jump\t// in\n    tag_105:\n        /* \"#utility.yul\":949:955   */\n      dup2\n        /* \"#utility.yul\":945:985   */\n      add\n        /* \"#utility.yul\":1087:1093   */\n      dup2\n        /* \"#utility.yul\":1075:1085   */\n      dup2\n        /* \"#utility.yul\":1072:1094   */\n      lt\n        /* \"#utility.yul\":1051:1069   */\n      0xffffffffffffffff\n        /* \"#utility.yul\":1039:1049   */\n      dup3\n        /* \"#utility.yul\":1036:1070   */\n      gt\n        /* \"#utility.yul\":1033:1095   */\n      or\n        /* \"#utility.yul\":1030:1118   */\n      iszero\n      tag_106\n      jumpi\n        /* \"#utility.yul\":1098:1116   */\n      tag_107\n      tag_62\n      jump\t// in\n    tag_107:\n        /* \"#utility.yul\":1030:1118   */\n    tag_106:\n        /* \"#utility.yul\":1138:1148   */\n      dup1\n        /* \"#utility.yul\":1134:1136   */\n      0x40\n        /* \"#utility.yul\":1127:1149   */\n      mstore\n        /* \"#utility.yul\":917:1155   */\n      pop\n        /* \"#utility.yul\":874:1155   */\n      pop\n      pop\n      jump\t// out\n        /* \"#utility.yul\":1161:1290   */\n    tag_64:\n        /* \"#utility.yul\":1195:1201   */\n      0x00\n        /* \"#utility.yul\":1222:1242   */\n      tag_109\n      tag_56\n      jump\t// in\n    tag_109:\n        /* \"#utility.yul\":1212:1242   */\n      swap1\n      pop\n        /* \"#utility.yul\":1251:1284   */\n      tag_110\n        /* \"#utility.yul\":1279:1283   */\n      dup3\n        /* \"#utility.yul\":1271:1277   */\n      dup3\n        /* \"#utility.yul\":1251:1284   */\n      tag_63\n      jump\t// in\n    tag_110:\n        /* \"#utility.yul\":1161:1290   */\n      swap2\n      swap1\n      pop\n      jump\t// out\n        /* \"#utility.yul\":1296:1604   */\n    tag_65:\n        /* \"#utility.yul\":1358:1362   */\n      0x00\n        /* \"#utility.yul\":1448:1466   */\n      0xffffffffffffffff\n        /* \"#utility.yul\":1440:1446   */\n      dup3\n        /* \"#utility.yul\":1437:1467   */\n      gt\n        /* \"#utility.yul\":1434:1490   */\n      iszero\n      tag_112\n      jumpi\n        /* \"#utility.yul\":1470:1488   */\n      tag_113\n      tag_62\n      jump\t// in\n    tag_113:\n        /* \"#utility.yul\":1434:1490   */\n    tag_112:\n        /* \"#utility.yul\":1508:1537   */\n      tag_114\n        /* \"#utility.yul\":1530:1536   */\n      dup3\n        /* \"#utility.yul\":1508:1537   */\n      tag_61\n      jump\t// in\n    tag_114:\n        /* \"#utility.yul\":1500:1537   */\n      swap1\n      pop\n        /* \"#utility.yul\":1592:1596   */\n      0x20\n        /* \"#utility.yul\":1586:1590   */\n      dup2\n        /* \"#utility.yul\":1582:1597   */\n      add\n        /* \"#utility.yul\":1574:1597   */\n      swap1\n      pop\n        /* \"#utility.yul\":1296:1604   */\n      swap2\n      swap1\n      pop\n      jump\t// out\n        /* \"#utility.yul\":1610:1758   */\n    tag_66:\n        /* \"#utility.yul\":1708:1714   */\n      dup3\n        /* \"#utility.yul\":1703:1706   */\n      dup2\n        /* \"#utility.yul\":1698:1701   */\n      dup4\n        /* \"#utility.yul\":1685:1715   */\n      calldatacopy\n        /* \"#utility.yul\":1749:1750   */\n      0x00\n        /* \"#utility.yul\":1740:1746   */\n      dup4\n        /* \"#utility.yul\":1735:1738   */\n      dup4\n        /* \"#utility.yul\":1731:1747   */\n      add\n        /* \"#utility.yul\":1724:1751   */\n      mstore\n        /* \"#utility.yul\":1610:1758   */\n      pop\n      pop\n      pop\n      jump\t// out\n        /* \"#utility.yul\":1764:2189   */\n    tag_67:\n        /* \"#utility.yul\":1842:1847   */\n      0x00\n        /* \"#utility.yul\":1867:1933   */\n      tag_117\n        /* \"#utility.yul\":1883:1932   */\n      tag_118\n        /* \"#utility.yul\":1925:1931   */\n      dup5\n        /* \"#utility.yul\":1883:1932   */\n      tag_65\n      jump\t// in\n    tag_118:\n        /* \"#utility.yul\":1867:1933   */\n      tag_64\n      jump\t// in\n    tag_117:\n        /* \"#utility.yul\":1858:1933   */\n      swap1\n      pop\n        /* \"#utility.yul\":1956:1962   */\n      dup3\n        /* \"#utility.yul\":1949:1954   */\n      dup2\n        /* \"#utility.yul\":1942:1963   */\n      mstore\n        /* \"#utility.yul\":1994:1998   */\n      0x20\n        /* \"#utility.yul\":1987:1992   */\n      dup2\n        /* \"#utility.yul\":1983:1999   */\n      add\n        /* \"#utility.yul\":2032:2035   */\n      dup5\n        /* \"#utility.yul\":2023:2029   */\n      dup5\n        /* \"#utility.yul\":2018:2021   */\n      dup5\n        /* \"#utility.yul\":2014:2030   */\n      add\n        /* \"#utility.yul\":2011:2036   */\n      gt\n        /* \"#utility.yul\":2008:2120   */\n      iszero\n      tag_119\n      jumpi\n        /* \"#utility.yul\":2039:2118   */\n      tag_120\n      tag_60\n      jump\t// in\n    tag_120:\n        /* \"#utility.yul\":2008:2120   */\n    tag_119:\n        /* \"#utility.yul\":2129:2183   */\n      tag_121\n        /* \"#utility.yul\":2176:2182   */\n      dup5\n        /* \"#utility.yul\":2171:2174   */\n      dup3\n        /* \"#utility.yul\":2166:2169   */\n      dup6\n        /* \"#utility.yul\":2129:2183   */\n      tag_66\n      jump\t// in\n    tag_121:\n        /* \"#utility.yul\":1848:2189   */\n      pop\n        /* \"#utility.yul\":1764:2189   */\n      swap4\n      swap3\n      pop\n      pop\n      pop\n      jump\t// out\n        /* \"#utility.yul\":2209:2549   */\n    tag_68:\n        /* \"#utility.yul\":2265:2270   */\n      0x00\n        /* \"#utility.yul\":2314:2317   */\n      dup3\n        /* \"#utility.yul\":2307:2311   */\n      0x1f\n        /* \"#utility.yul\":2299:2305   */\n      dup4\n        /* \"#utility.yul\":2295:2312   */\n      add\n        /* \"#utility.yul\":2291:2318   */\n      slt\n        /* \"#utility.yul\":2281:2403   */\n      tag_123\n      jumpi\n        /* \"#utility.yul\":2322:2401   */\n      tag_124\n      tag_59\n      jump\t// in\n    tag_124:\n        /* \"#utility.yul\":2281:2403   */\n    tag_123:\n        /* \"#utility.yul\":2439:2445   */\n      dup2\n        /* \"#utility.yul\":2426:2446   */\n      calldataload\n        /* \"#utility.yul\":2464:2543   */\n      tag_125\n        /* \"#utility.yul\":2539:2542   */\n      dup5\n        /* \"#utility.yul\":2531:2537   */\n      dup3\n        /* \"#utility.yul\":2524:2528   */\n      0x20\n        /* \"#utility.yul\":2516:2522   */\n      dup7\n        /* \"#utility.yul\":2512:2529   */\n      add\n        /* \"#utility.yul\":2464:2543   */\n      tag_67\n      jump\t// in\n    tag_125:\n        /* \"#utility.yul\":2455:2543   */\n      swap2\n      pop\n        /* \"#utility.yul\":2271:2549   */\n      pop\n        /* \"#utility.yul\":2209:2549   */\n      swap3\n      swap2\n      pop\n      pop\n      jump\t// out\n        /* \"#utility.yul\":2555:3389   */\n    tag_7:\n        /* \"#utility.yul\":2643:2649   */\n      0x00\n        /* \"#utility.yul\":2651:2657   */\n      0x00\n        /* \"#utility.yul\":2700:2702   */\n      0x40\n        /* \"#utility.yul\":2688:2697   */\n      dup4\n        /* \"#utility.yul\":2679:2686   */\n      dup6\n        /* \"#utility.yul\":2675:2698   */\n      sub\n        /* \"#utility.yul\":2671:2703   */\n      slt\n        /* \"#utility.yul\":2668:2787   */\n      iszero\n      tag_127\n      jumpi\n        /* \"#utility.yul\":2706:2785   */\n      tag_128\n      tag_57\n      jump\t// in\n    tag_128:\n        /* \"#utility.yul\":2668:2787   */\n    tag_127:\n        /* \"#utility.yul\":2854:2855   */\n      0x00\n        /* \"#utility.yul\":2843:2852   */\n      dup4\n        /* \"#utility.yul\":2839:2856   */\n      add\n        /* \"#utility.yul\":2826:2857   */\n      calldataload\n        /* \"#utility.yul\":2884:2902   */\n      0xffffffffffffffff\n        /* \"#utility.yul\":2876:2882   */\n      dup2\n        /* \"#utility.yul\":2873:2903   */\n      gt\n        /* \"#utility.yul\":2870:2987   */\n      iszero\n      tag_129\n      jumpi\n        /* \"#utility.yul\":2906:2985   */\n      tag_130\n      tag_58\n      jump\t// in\n    tag_130:\n        /* \"#utility.yul\":2870:2987   */\n    tag_129:\n        /* \"#utility.yul\":3011:3074   */\n      tag_131\n        /* \"#utility.yul\":3066:3073   */\n      dup6\n        /* \"#utility.yul\":3057:3063   */\n      dup3\n        /* \"#utility.yul\":3046:3055   */\n      dup7\n        /* \"#utility.yul\":3042:3064   */\n      add\n        /* \"#utility.yul\":3011:3074   */\n      tag_68\n      jump\t// in\n    tag_131:\n        /* \"#utility.yul\":3001:3074   */\n      swap3\n      pop\n        /* \"#utility.yul\":2797:3084   */\n      pop\n        /* \"#utility.yul\":3151:3153   */\n      0x20\n        /* \"#utility.yul\":3140:3149   */\n      dup4\n        /* \"#utility.yul\":3136:3154   */\n      add\n        /* \"#utility.yul\":3123:3155   */\n      calldataload\n        /* \"#utility.yul\":3182:3200   */\n      0xffffffffffffffff\n        /* \"#utility.yul\":3174:3180   */\n      dup2\n        /* \"#utility.yul\":3171:3201   */\n      gt\n        /* \"#utility.yul\":3168:3285   */\n      iszero\n      tag_132\n      jumpi\n        /* \"#utility.yul\":3204:3283   */\n      tag_133\n      tag_58\n      jump\t// in\n    tag_133:\n        /* \"#utility.yul\":3168:3285   */\n    tag_132:\n        /* \"#utility.yul\":3309:3372   */\n      tag_134\n        /* \"#utility.yul\":3364:3371   */\n      dup6\n        /* \"#utility.yul\":3355:3361   */\n      dup3\n        /* \"#utility.yul\":3344:3353   */\n      dup7\n        /* \"#utility.yul\":3340:3362   */\n      add\n        /* \"#utility.yul\":3309:3372   */\n      tag_68\n      jump\t// in\n    tag_134:\n        /* \"#utility.yul\":3299:3372   */\n      swap2\n      pop\n        /* \"#utility.yul\":3094:3382   */\n      pop\n        /* \"#utility.yul\":2555:3389   */\n      swap3\n      pop\n      swap3\n      swap1\n      pop\n      jump\t// out\n        /* \"#utility.yul\":3395:3472   */\n    tag_69:\n        /* \"#utility.yul\":3432:3439   */\n      0x00\n        /* \"#utility.yul\":3461:3466   */\n      dup2\n        /* \"#utility.yul\":3450:3466   */\n      swap1\n      pop\n        /* \"#utility.yul\":3395:3472   */\n      swap2\n      swap1\n      pop\n      jump\t// out\n        /* \"#utility.yul\":3478:3600   */\n    tag_70:\n        /* \"#utility.yul\":3551:3575   */\n      tag_137\n        /* \"#utility.yul\":3569:3574   */\n      dup2\n        /* \"#utility.yul\":3551:3575   */\n      tag_69\n      jump\t// in\n    tag_137:\n        /* \"#utility.yul\":3544:3549   */\n      dup2\n        /* \"#utility.yul\":3541:3576   */\n      eq\n        /* \"#utility.yul\":3531:3594   */\n      tag_138\n      jumpi\n        /* \"#utility.yul\":3590:3591   */\n      0x00\n        /* \"#utility.yul\":3587:3588   */\n      0x00\n        /* \"#utility.yul\":3580:3592   */\n      revert\n        /* \"#utility.yul\":3531:3594   */\n    tag_138:\n        /* \"#utility.yul\":3478:3600   */\n      pop\n      jump\t// out\n        /* \"#utility.yul\":3606:3745   */\n    tag_71:\n        /* \"#utility.yul\":3652:3657   */\n      0x00\n        /* \"#utility.yul\":3690:3696   */\n      dup2\n        /* \"#utility.yul\":3677:3697   */\n      calldataload\n        /* \"#utility.yul\":3668:3697   */\n      swap1\n      pop\n        /* \"#utility.yul\":3706:3739   */\n      tag_140\n        /* \"#utility.yul\":3733:3738   */\n      dup2\n        /* \"#utility.yul\":3706:3739   */\n      tag_70\n      jump\t// in\n    tag_140:\n        /* \"#utility.yul\":3606:3745   */\n      swap3\n      swap2\n      pop\n      pop\n      jump\t// out\n        /* \"#utility.yul\":3751:4080   */\n    tag_11:\n        /* \"#utility.yul\":3810:3816   */\n      0x00\n        /* \"#utility.yul\":3859:3861   */\n      0x20\n        /* \"#utility.yul\":3847:3856   */\n      dup3\n        /* \"#utility.yul\":3838:3845   */\n      dup5\n        /* \"#utility.yul\":3834:3857   */\n      sub\n        /* \"#utility.yul\":3830:3862   */\n      slt\n        /* \"#utility.yul\":3827:3946   */\n      iszero\n      tag_142\n      jumpi\n        /* \"#utility.yul\":3865:3944   */\n      tag_143\n      tag_57\n      jump\t// in\n    tag_143:\n        /* \"#utility.yul\":3827:3946   */\n    tag_142:\n        /* \"#utility.yul\":3985:3986   */\n      0x00\n        /* \"#utility.yul\":4010:4063   */\n      tag_144\n        /* \"#utility.yul\":4055:4062   */\n      dup5\n        /* \"#utility.yul\":4046:4052   */\n      dup3\n        /* \"#utility.yul\":4035:4044   */\n      dup6\n        /* \"#utility.yul\":4031:4053   */\n      add\n        /* \"#utility.yul\":4010:4063   */\n      tag_71\n      jump\t// in\n    tag_144:\n        /* \"#utility.yul\":4000:4063   */\n      swap2\n      pop\n        /* \"#utility.yul\":3956:4073   */\n      pop\n        /* \"#utility.yul\":3751:4080   */\n      swap3\n      swap2\n      pop\n      pop\n      jump\t// out\n        /* \"#utility.yul\":4086:4204   */\n    tag_72:\n        /* \"#utility.yul\":4173:4197   */\n      tag_146\n        /* \"#utility.yul\":4191:4196   */\n      dup2\n        /* \"#utility.yul\":4173:4197   */\n      tag_69\n      jump\t// in\n    tag_146:\n        /* \"#utility.yul\":4168:4171   */\n      dup3\n        /* \"#utility.yul\":4161:4198   */\n      mstore\n        /* \"#utility.yul\":4086:4204   */\n      pop\n      pop\n      jump\t// out\n        /* \"#utility.yul\":4210:4309   */\n    tag_73:\n        /* \"#utility.yul\":4262:4268   */\n      0x00\n        /* \"#utility.yul\":4296:4301   */\n      dup2\n        /* \"#utility.yul\":4290:4302   */\n      mload\n        /* \"#utility.yul\":4280:4302   */\n      swap1\n      pop\n        /* \"#utility.yul\":4210:4309   */\n      swap2\n      swap1\n      pop\n      jump\t// out\n        /* \"#utility.yul\":4315:4484   */\n    tag_74:\n        /* \"#utility.yul\":4399:4410   */\n      0x00\n        /* \"#utility.yul\":4433:4439   */\n      dup3\n        /* \"#utility.yul\":4428:4431   */\n      dup3\n        /* \"#utility.yul\":4421:4440   */\n      mstore\n        /* \"#utility.yul\":4473:4477   */\n      0x20\n        /* \"#utility.yul\":4468:4471   */\n      dup3\n        /* \"#utility.yul\":4464:4478   */\n      add\n        /* \"#utility.yul\":4449:4478   */\n      swap1\n      pop\n        /* \"#utility.yul\":4315:4484   */\n      swap3\n      swap2\n      pop\n      pop\n      jump\t// out\n        /* \"#utility.yul\":4490:4629   */\n    tag_75:\n        /* \"#utility.yul\":4579:4585   */\n      dup3\n        /* \"#utility.yul\":4574:4577   */\n      dup2\n        /* \"#utility.yul\":4569:4572   */\n      dup4\n        /* \"#utility.yul\":4563:4586   */\n      mcopy\n        /* \"#utility.yul\":4620:4621   */\n      0x00\n        /* \"#utility.yul\":4611:4617   */\n      dup4\n        /* \"#utility.yul\":4606:4609   */\n      dup4\n        /* \"#utility.yul\":4602:4618   */\n      add\n        /* \"#utility.yul\":4595:4622   */\n      mstore\n        /* \"#utility.yul\":4490:4629   */\n      pop\n      pop\n      pop\n      jump\t// out\n        /* \"#utility.yul\":4635:5012   */\n    tag_76:\n        /* \"#utility.yul\":4723:4726   */\n      0x00\n        /* \"#utility.yul\":4751:4790   */\n      tag_151\n        /* \"#utility.yul\":4784:4789   */\n      dup3\n        /* \"#utility.yul\":4751:4790   */\n      tag_73\n      jump\t// in\n    tag_151:\n        /* \"#utility.yul\":4806:4877   */\n      tag_152\n        /* \"#utility.yul\":4870:4876   */\n      dup2\n        /* \"#utility.yul\":4865:4868   */\n      dup6\n        /* \"#utility.yul\":4806:4877   */\n      tag_74\n      jump\t// in\n    tag_152:\n        /* \"#utility.yul\":4799:4877   */\n      swap4\n      pop\n        /* \"#utility.yul\":4886:4951   */\n      tag_153\n        /* \"#utility.yul\":4944:4950   */\n      dup2\n        /* \"#utility.yul\":4939:4942   */\n      dup6\n        /* \"#utility.yul\":4932:4936   */\n      0x20\n        /* \"#utility.yul\":4925:4930   */\n      dup7\n        /* \"#utility.yul\":4921:4937   */\n      add\n        /* \"#utility.yul\":4886:4951   */\n      tag_75\n      jump\t// in\n    tag_153:\n        /* \"#utility.yul\":4976:5005   */\n      tag_154\n        /* \"#utility.yul\":4998:5004   */\n      dup2\n        /* \"#utility.yul\":4976:5005   */\n      tag_61\n      jump\t// in\n    tag_154:\n        /* \"#utility.yul\":4971:4974   */\n      dup5\n        /* \"#utility.yul\":4967:5006   */\n      add\n        /* \"#utility.yul\":4960:5006   */\n      swap2\n      pop\n        /* \"#utility.yul\":4727:5012   */\n      pop\n        /* \"#utility.yul\":4635:5012   */\n      swap3\n      swap2\n      pop\n      pop\n      jump\t// out\n        /* \"#utility.yul\":5018:5642   */\n    tag_14:\n        /* \"#utility.yul\":5207:5211   */\n      0x00\n        /* \"#utility.yul\":5245:5247   */\n      0x60\n        /* \"#utility.yul\":5234:5243   */\n      dup3\n        /* \"#utility.yul\":5230:5248   */\n      add\n        /* \"#utility.yul\":5222:5248   */\n      swap1\n      pop\n        /* \"#utility.yul\":5258:5329   */\n      tag_156\n        /* \"#utility.yul\":5326:5327   */\n      0x00\n        /* \"#utility.yul\":5315:5324   */\n      dup4\n        /* \"#utility.yul\":5311:5328   */\n      add\n        /* \"#utility.yul\":5302:5308   */\n      dup7\n        /* \"#utility.yul\":5258:5329   */\n      tag_72\n      jump\t// in\n    tag_156:\n        /* \"#utility.yul\":5376:5385   */\n      dup2\n        /* \"#utility.yul\":5370:5374   */\n      dup2\n        /* \"#utility.yul\":5366:5386   */\n      sub\n        /* \"#utility.yul\":5361:5363   */\n      0x20\n        /* \"#utility.yul\":5350:5359   */\n      dup4\n        /* \"#utility.yul\":5346:5364   */\n      add\n        /* \"#utility.yul\":5339:5387   */\n      mstore\n        /* \"#utility.yul\":5404:5482   */\n      tag_157\n        /* \"#utility.yul\":5477:5481   */\n      dup2\n        /* \"#utility.yul\":5468:5474   */\n      dup6\n        /* \"#utility.yul\":5404:5482   */\n      tag_76\n      jump\t// in\n    tag_157:\n        /* \"#utility.yul\":5396:5482   */\n      swap1\n      pop\n        /* \"#utility.yul\":5529:5538   */\n      dup2\n        /* \"#utility.yul\":5523:5527   */\n      dup2\n        /* \"#utility.yul\":5519:5539   */\n      sub\n        /* \"#utility.yul\":5514:5516   */\n      0x40\n        /* \"#utility.yul\":5503:5512   */\n      dup4\n        /* \"#utility.yul\":5499:5517   */\n      add\n        /* \"#utility.yul\":5492:5540   */\n      mstore\n        /* \"#utility.yul\":5557:5635   */\n      tag_158\n        /* \"#utility.yul\":5630:5634   */\n      dup2\n        /* \"#utility.yul\":5621:5627   */\n      dup5\n        /* \"#utility.yul\":5557:5635   */\n      tag_76\n      jump\t// in\n    tag_158:\n        /* \"#utility.yul\":5549:5635   */\n      swap1\n      pop\n        /* \"#utility.yul\":5018:5642   */\n      swap5\n      swap4\n      pop\n      pop\n      pop\n      pop\n      jump\t// out\n        /* \"#utility.yul\":5648:5828   */\n    tag_77:\n        /* \"#utility.yul\":5696:5773   */\n      0x4e487b7100000000000000000000000000000000000000000000000000000000\n        /* \"#utility.yul\":5693:5694   */\n      0x00\n        /* \"#utility.yul\":5686:5774   */\n      mstore\n        /* \"#utility.yul\":5793:5797   */\n      0x22\n        /* \"#utility.yul\":5790:5791   */\n      0x04\n        /* \"#utility.yul\":5783:5798   */\n      mstore\n        /* \"#utility.yul\":5817:5821   */\n      0x24\n        /* \"#utility.yul\":5814:5815   */\n      0x00\n        /* \"#utility.yul\":5807:5822   */\n      revert\n        /* \"#utility.yul\":5834:6154   */\n    tag_36:\n        /* \"#utility.yul\":5878:5884   */\n      0x00\n        /* \"#utility.yul\":5915:5916   */\n      0x02\n        /* \"#utility.yul\":5909:5913   */\n      dup3\n        /* \"#utility.yul\":5905:5917   */\n      div\n        /* \"#utility.yul\":5895:5917   */\n      swap1\n      pop\n        /* \"#utility.yul\":5962:5963   */\n      0x01\n        /* \"#utility.yul\":5956:5960   */\n      dup3\n        /* \"#utility.yul\":5952:5964   */\n      and\n        /* \"#utility.yul\":5983:6001   */\n      dup1\n        /* \"#utility.yul\":5973:6054   */\n      tag_161\n      jumpi\n        /* \"#utility.yul\":6039:6043   */\n      0x7f\n        /* \"#utility.yul\":6031:6037   */\n      dup3\n        /* \"#utility.yul\":6027:6044   */\n      and\n        /* \"#utility.yul\":6017:6044   */\n      swap2\n      pop\n        /* \"#utility.yul\":5973:6054   */\n    tag_161:\n        /* \"#utility.yul\":6101:6103   */\n      0x20\n        /* \"#utility.yul\":6093:6099   */\n      dup3\n        /* \"#utility.yul\":6090:6104   */\n      lt\n        /* \"#utility.yul\":6070:6088   */\n      dup2\n        /* \"#utility.yul\":6067:6105   */\n      sub\n        /* \"#utility.yul\":6064:6148   */\n      tag_162\n      jumpi\n        /* \"#utility.yul\":6120:6138   */\n      tag_163\n      tag_77\n      jump\t// in\n    tag_163:\n        /* \"#utility.yul\":6064:6148   */\n    tag_162:\n        /* \"#utility.yul\":5885:6154   */\n      pop\n        /* \"#utility.yul\":5834:6154   */\n      swap2\n      swap1\n      pop\n      jump\t// out\n        /* \"#utility.yul\":6160:6301   */\n    tag_78:\n        /* \"#utility.yul\":6209:6213   */\n      0x00\n        /* \"#utility.yul\":6232:6235   */\n      dup2\n        /* \"#utility.yul\":6224:6235   */\n      swap1\n      pop\n        /* \"#utility.yul\":6255:6258   */\n      dup2\n        /* \"#utility.yul\":6252:6253   */\n      0x00\n        /* \"#utility.yul\":6245:6259   */\n      mstore\n        /* \"#utility.yul\":6289:6293   */\n      0x20\n        /* \"#utility.yul\":6286:6287   */\n      0x00\n        /* \"#utility.yul\":6276:6294   */\n      keccak256\n        /* \"#utility.yul\":6268:6294   */\n      swap1\n      pop\n        /* \"#utility.yul\":6160:6301   */\n      swap2\n      swap1\n      pop\n      jump\t// out\n        /* \"#utility.yul\":6307:6400   */\n    tag_79:\n        /* \"#utility.yul\":6344:6350   */\n      0x00\n        /* \"#utility.yul\":6391:6393   */\n      0x20\n        /* \"#utility.yul\":6386:6388   */\n      0x1f\n        /* \"#utility.yul\":6379:6384   */\n      dup4\n        /* \"#utility.yul\":6375:6389   */\n      add\n        /* \"#utility.yul\":6371:6394   */\n      div\n        /* \"#utility.yul\":6361:6394   */\n      swap1\n      pop\n        /* \"#utility.yul\":6307:6400   */\n      swap2\n      swap1\n      pop\n      jump\t// out\n        /* \"#utility.yul\":6406:6513   */\n    tag_80:\n        /* \"#utility.yul\":6450:6458   */\n      0x00\n        /* \"#utility.yul\":6500:6505   */\n      dup3\n        /* \"#utility.yul\":6494:6498   */\n      dup3\n        /* \"#utility.yul\":6490:6506   */\n      shl\n        /* \"#utility.yul\":6469:6506   */\n      swap1\n      pop\n        /* \"#utility.yul\":6406:6513   */\n      swap3\n      swap2\n      pop\n      pop\n      jump\t// out\n        /* \"#utility.yul\":6519:6912   */\n    tag_81:\n        /* \"#utility.yul\":6588:6594   */\n      0x00\n        /* \"#utility.yul\":6638:6639   */\n      0x08\n        /* \"#utility.yul\":6626:6636   */\n      dup4\n        /* \"#utility.yul\":6622:6640   */\n      mul\n        /* \"#utility.yul\":6661:6758   */\n      tag_168\n        /* \"#utility.yul\":6691:6757   */\n      0xffffffffffffffffffffffffffffffffffffffffffffffffffffffffffffffff\n        /* \"#utility.yul\":6680:6689   */\n      dup3\n        /* \"#utility.yul\":6661:6758   */\n      tag_80\n      jump\t// in\n    tag_168:\n        /* \"#utility.yul\":6779:6818   */\n      tag_169\n        /* \"#utility.yul\":6809:6817   */\n      dup7\n        /* \"#utility.yul\":6798:6807   */\n      dup4\n        /* \"#utility.yul\":6779:6818   */\n      tag_80\n      jump\t// in\n    tag_169:\n        /* \"#utility.yul\":6767:6818   */\n      swap6\n      pop\n        /* \"#utility.yul\":6851:6855   */\n      dup1\n        /* \"#utility.yul\":6847:6856   */\n      not\n        /* \"#utility.yul\":6840:6845   */\n      dup5\n        /* \"#utility.yul\":6836:6857   */\n      and\n        /* \"#utility.yul\":6827:6857   */\n      swap4\n      pop\n        /* \"#utility.yul\":6900:6904   */\n      dup1\n        /* \"#utility.yul\":6890:6898   */\n      dup7\n        /* \"#utility.yul\":6886:6905   */\n      and\n        /* \"#utility.yul\":6879:6884   */\n      dup5\n        /* \"#utility.yul\":6876:6906   */\n      or\n        /* \"#utility.yul\":6866:6906   */\n      swap3\n      pop\n        /* \"#utility.yul\":6595:6912   */\n      pop\n      pop\n        /* \"#utility.yul\":6519:6912   */\n      swap4\n      swap3\n      pop\n      pop\n      pop\n      jump\t// out\n        /* \"#utility.yul\":6918:6978   */\n    tag_82:\n        /* \"#utility.yul\":6946:6949   */\n      0x00\n        /* \"#utility.yul\":6967:6972   */\n      dup2\n        /* \"#utility.yul\":6960:6972   */\n      swap1\n      pop\n        /* \"#utility.yul\":6918:6978   */\n      swap2\n      swap1\n      pop\n      jump\t// out\n        /* \"#utility.yul\":6984:7126   */\n    tag_83:\n        /* \"#utility.yul\":7034:7043   */\n      0x00\n        /* \"#utility.yul\":7067:7120   */\n      tag_172\n        /* \"#utility.yul\":7085:7119   */\n      tag_173\n        /* \"#utility.yul\":7094:7118   */\n      tag_174\n        /* \"#utility.yul\":7112:7117   */\n      dup5\n        /* \"#utility.yul\":7094:7118   */\n      tag_69\n      jump\t// in\n    tag_174:\n        /* \"#utility.yul\":7085:7119   */\n      tag_82\n      jump\t// in\n    tag_173:\n        /* \"#utility.yul\":7067:7120   */\n      tag_69\n      jump\t// in\n    tag_172:\n        /* \"#utility.yul\":7054:7120   */\n      swap1\n      pop\n        /* \"#utility.yul\":6984:7126   */\n      swap2\n      swap1\n      pop\n      jump\t// out\n        /* \"#utility.yul\":7132:7207   */\n    tag_84:\n        /* \"#utility.yul\":7175:7178   */\n      0x00\n        /* \"#utility.yul\":7196:7201   */\n      dup2\n        /* \"#utility.yul\":7189:7201   */\n      swap1\n      pop\n        /* \"#utility.yul\":7132:7207   */\n      swap2\n      swap1\n      pop\n      jump\t// out\n        /* \"#utility.yul\":7213:7482   */\n    tag_85:\n        /* \"#utility.yul\":7323:7362   */\n      tag_177\n        /* \"#utility.yul\":7354:7361   */\n      dup4\n        /* \"#utility.yul\":7323:7362   */\n      tag_83\n      jump\t// in\n    tag_177:\n        /* \"#utility.yul\":7384:7475   */\n      tag_178\n        /* \"#utility.yul\":7433:7474   */\n      tag_179\n        /* \"#utility.yul\":7457:7473   */\n      dup3\n        /* \"#utility.yul\":7433:7474   */\n      tag_84\n      jump\t// in\n    tag_179:\n        /* \"#utility.yul\":7425:7431   */\n      dup5\n        /* \"#utility.yul\":7418:7422   */\n      dup5\n        /* \"#utility.yul\":7412:7423   */\n      sload\n        /* \"#utility.yul\":7384:7475   */\n      tag_81\n      jump\t// in\n    tag_178:\n        /* \"#utility.yul\":7378:7382   */\n      dup3\n        /* \"#utility.yul\":7371:7476   */\n      sstore\n        /* \"#utility.yul\":7289:7482   */\n      pop\n        /* \"#utility.yul\":7213:7482   */\n      pop\n      pop\n      pop\n      jump\t// out\n        /* \"#utility.yul\":7488:7561   */\n    tag_86:\n        /* \"#utility.yul\":7533:7536   */\n      0x00\n        /* \"#utility.yul\":7554:7555   */\n      0x00\n        /* \"#utility.yul\":7547:7555   */\n      swap1\n      pop\n        /* \"#utility.yul\":7488:7561   */\n      swap1\n      jump\t// out\n        /* \"#utility.yul\":7567:7756   */\n    tag_87:\n        /* \"#utility.yul\":7644:7676   */\n      tag_182\n      tag_86\n      jump\t// in\n    tag_182:\n        /* \"#utility.yul\":7685:7750   */\n      tag_183\n        /* \"#utility.yul\":7743:7749   */\n      dup2\n        /* \"#utility.yul\":7735:7741   */\n      dup5\n        /* \"#utility.yul\":7729:7733   */\n      dup5\n        /* \"#utility.yul\":7685:7750   */\n      tag_85\n      jump\t// in\n    tag_183:\n        /* \"#utility.yul\":7620:7756   */\n      pop\n        /* \"#utility.yul\":7567:7756   */\n      pop\n      pop\n      jump\t// out\n        /* \"#utility.yul\":7762:7948   */\n    tag_88:\n        /* \"#utility.yul\":7822:7942   */\n    tag_185:\n        /* \"#utility.yul\":7839:7842   */\n      dup2\n        /* \"#utility.yul\":7832:7837   */\n      dup2\n        /* \"#utility.yul\":7829:7843   */\n      lt\n        /* \"#utility.yul\":7822:7942   */\n      iszero\n      tag_187\n      jumpi\n        /* \"#utility.yul\":7893:7932   */\n      tag_188\n        /* \"#utility.yul\":7930:7931   */\n      0x00\n        /* \"#utility.yul\":7923:7928   */\n      dup3\n        /* \"#utility.yul\":7893:7932   */\n      tag_87\n      jump\t// in\n    tag_188:\n        /* \"#utility.yul\":7866:7867   */\n      0x01\n        /* \"#utility.yul\":7859:7864   */\n      dup2\n        /* \"#utility.yul\":7855:7868   */\n      add\n        /* \"#utility.yul\":7846:7868   */\n      swap1\n      pop\n        /* \"#utility.yul\":7822:7942   */\n      jump(tag_185)\n    tag_187:\n        /* \"#utility.yul\":7762:7948   */\n      pop\n      pop\n      jump\t// out\n        /* \"#utility.yul\":7954:8497   */\n    tag_89:\n        /* \"#utility.yul\":8055:8057   */\n      0x1f\n        /* \"#utility.yul\":8050:8053   */\n      dup3\n        /* \"#utility.yul\":8047:8058   */\n      gt\n        /* \"#utility.yul\":8044:8490   */\n      iszero\n      tag_190\n      jumpi\n        /* \"#utility.yul\":8089:8127   */\n      tag_191\n        /* \"#utility.yul\":8121:8126   */\n      dup2\n        /* \"#utility.yul\":8089:8127   */\n      tag_78\n      jump\t// in\n    tag_191:\n        /* \"#utility.yul\":8173:8202   */\n      tag_192\n        /* \"#utility.yul\":8191:8201   */\n      dup5\n        /* \"#utility.yul\":8173:8202   */\n      tag_79\n      jump\t// in\n    tag_192:\n        /* \"#utility.yul\":8163:8171   */\n      dup2\n        /* \"#utility.yul\":8159:8203   */\n      add\n        /* \"#utility.yul\":8356:8358   */\n      0x20\n        /* \"#utility.yul\":8344:8354   */\n      dup6\n        /* \"#utility.yul\":8341:8359   */\n      lt\n        /* \"#utility.yul\":8338:8387   */\n      iszero\n      tag_193\n      jumpi\n        /* \"#utility.yul\":8377:8385   */\n      dup2\n        /* \"#utility.yul\":8362:8385   */\n      swap1\n      pop\n        /* \"#utility.yul\":8338:8387   */\n    tag_193:\n        /* \"#utility.yul\":8400:8480   */\n      tag_194\n        /* \"#utility.yul\":8456:8478   */\n      tag_195\n        /* \"#utility.yul\":8474:8477   */\n      dup6\n        /* \"#utility.yul\":8456:8478   */\n      tag_79\n      jump\t// in\n    tag_195:\n        /* \"#utility.yul\":8446:8454   */\n      dup4\n        /* \"#utility.yul\":8442:8479   */\n      add\n        /* \"#utility.yul\":8429:8440   */\n      dup3\n        /* \"#utility.yul\":8400:8480   */\n      tag_88\n      jump\t// in\n    tag_194:\n        /* \"#utility.yul\":8059:8490   */\n      pop\n      pop\n        /* \"#utility.yul\":8044:8490   */\n    tag_190:\n        /* \"#utility.yul\":7954:8497   */\n      pop\n      pop\n      pop\n      jump\t// out\n        /* \"#utility.yul\":8503:8620   */\n    tag_90:\n        /* \"#utility.yul\":8557:8565   */\n      0x00\n        /* \"#utility.yul\":8607:8612   */\n      dup3\n        /* \"#utility.yul\":8601:8605   */\n      dup3\n        /* \"#utility.yul\":8597:8613   */\n      shr\n        /* \"#utility.yul\":8576:8613   */\n      swap1\n      pop\n        /* \"#utility.yul\":8503:8620   */\n      swap3\n      swap2\n      pop\n      pop\n      jump\t// out\n        /* \"#utility.yul\":8626:8795   */\n    tag_91:\n        /* \"#utility.yul\":8670:8676   */\n      0x00\n        /* \"#utility.yul\":8703:8754   */\n      tag_198\n        /* \"#utility.yul\":8751:8752   */\n      0x00\n        /* \"#utility.yul\":8747:8753   */\n      not\n        /* \"#utility.yul\":8739:8744   */\n      dup5\n        /* \"#utility.yul\":8736:8737   */\n      0x08\n        /* \"#utility.yul\":8732:8745   */\n      mul\n        /* \"#utility.yul\":8703:8754   */\n      tag_90\n      jump\t// in\n    tag_198:\n        /* \"#utility.yul\":8699:8755   */\n      not\n        /* \"#utility.yul\":8784:8788   */\n      dup1\n        /* \"#utility.yul\":8778:8782   */\n      dup4\n        /* \"#utility.yul\":8774:8789   */\n      and\n        /* \"#utility.yul\":8764:8789   */\n      swap2\n      pop\n        /* \"#utility.yul\":8677:8795   */\n      pop\n        /* \"#utility.yul\":8626:8795   */\n      swap3\n      swap2\n      pop\n      pop\n      jump\t// out\n        /* \"#utility.yul\":8800:9095   */\n    tag_92:\n        /* \"#utility.yul\":8876:8880   */\n      0x00\n        /* \"#utility.yul\":9022:9051   */\n      tag_200\n        /* \"#utility.yul\":9047:9050   */\n      dup4\n        /* \"#utility.yul\":9041:9045   */\n      dup4\n        /* \"#utility.yul\":9022:9051   */\n      tag_91\n      jump\t// in\n    tag_200:\n        /* \"#utility.yul\":9014:9051   */\n      swap2\n      pop\n        /* \"#utility.yul\":9084:9087   */\n      dup3\n        /* \"#utility.yul\":9081:9082   */\n      0x02\n        /* \"#utility.yul\":9077:9088   */\n      mul\n        /* \"#utility.yul\":9071:9075   */\n      dup3\n        /* \"#utility.yul\":9068:9089   */\n      or\n        /* \"#utility.yul\":9060:9089   */\n      swap1\n      pop\n        /* \"#utility.yul\":8800:9095   */\n      swap3\n      swap2\n      pop\n      pop\n      jump\t// out\n        /* \"#utility.yul\":9100:10495   */\n    tag_18:\n        /* \"#utility.yul\":9217:9254   */\n      tag_202\n        /* \"#utility.yul\":9250:9253   */\n      dup3\n        /* \"#utility.yul\":9217:9254   */\n      tag_73\n      jump\t// in\n    tag_202:\n        /* \"#utility.yul\":9319:9337   */\n      0xffffffffffffffff\n        /* \"#utility.yul\":9311:9317   */\n      dup2\n        /* \"#utility.yul\":9308:9338   */\n      gt\n        /* \"#utility.yul\":9305:9361   */\n      iszero\n      tag_203\n      jumpi\n        /* \"#utility.yul\":9341:9359   */\n      tag_204\n      tag_62\n      jump\t// in\n    tag_204:\n        /* \"#utility.yul\":9305:9361   */\n    tag_203:\n        /* \"#utility.yul\":9385:9423   */\n      tag_205\n        /* \"#utility.yul\":9417:9421   */\n      dup3\n        /* \"#utility.yul\":9411:9422   */\n      sload\n        /* \"#utility.yul\":9385:9423   */\n      tag_36\n      jump\t// in\n    tag_205:\n        /* \"#utility.yul\":9470:9537   */\n      tag_206\n        /* \"#utility.yul\":9530:9536   */\n      dup3\n        /* \"#utility.yul\":9522:9528   */\n      dup3\n        /* \"#utility.yul\":9516:9520   */\n      dup6\n        /* \"#utility.yul\":9470:9537   */\n      tag_89\n      jump\t// in\n    tag_206:\n        /* \"#utility.yul\":9564:9565   */\n      0x00\n        /* \"#utility.yul\":9588:9592   */\n      0x20\n        /* \"#utility.yul\":9575:9592   */\n      swap1\n      pop\n        /* \"#utility.yul\":9620:9622   */\n      0x1f\n        /* \"#utility.yul\":9612:9618   */\n      dup4\n        /* \"#utility.yul\":9609:9623   */\n      gt\n        /* \"#utility.yul\":9637:9638   */\n      0x01\n        /* \"#utility.yul\":9632:10250   */\n      dup2\n      eq\n      tag_208\n      jumpi\n        /* \"#utility.yul\":10294:10295   */\n      0x00\n        /* \"#utility.yul\":10311:10317   */\n      dup5\n        /* \"#utility.yul\":10308:10385   */\n      iszero\n      tag_209\n      jumpi\n        /* \"#utility.yul\":10360:10369   */\n      dup3\n        /* \"#utility.yul\":10355:10358   */\n      dup8\n        /* \"#utility.yul\":10351:10370   */\n      add\n        /* \"#utility.yul\":10345:10371   */\n      mload\n        /* \"#utility.yul\":10336:10371   */\n      swap1\n      pop\n        /* \"#utility.yul\":10308:10385   */\n    tag_209:\n        /* \"#utility.yul\":10411:10478   */\n      tag_210\n        /* \"#utility.yul\":10471:10477   */\n      dup6\n        /* \"#utility.yul\":10464:10469   */\n      dup3\n        /* \"#utility.yul\":10411:10478   */\n      tag_92\n      jump\t// in\n    tag_210:\n        /* \"#utility.yul\":10405:10409   */\n      dup7\n        /* \"#utility.yul\":10398:10479   */\n      sstore\n        /* \"#utility.yul\":10267:10489   */\n      pop\n        /* \"#utility.yul\":9602:10489   */\n      jump(tag_207)\n        /* \"#utility.yul\":9632:10250   */\n    tag_208:\n        /* \"#utility.yul\":9684:9688   */\n      0x1f\n        /* \"#utility.yul\":9680:9689   */\n      not\n        /* \"#utility.yul\":9672:9678   */\n      dup5\n        /* \"#utility.yul\":9668:9690   */\n      and\n        /* \"#utility.yul\":9718:9755   */\n      tag_211\n        /* \"#utility.yul\":9750:9754   */\n      dup7\n        /* \"#utility.yul\":9718:9755   */\n      tag_78\n      jump\t// in\n    tag_211:\n        /* \"#utility.yul\":9777:9778   */\n      0x00\n        /* \"#utility.yul\":9791:9999   */\n    tag_212:\n        /* \"#utility.yul\":9805:9812   */\n      dup3\n        /* \"#utility.yul\":9802:9803   */\n      dup2\n        /* \"#utility.yul\":9799:9813   */\n      lt\n        /* \"#utility.yul\":9791:9999   */\n      iszero\n      tag_214\n      jumpi\n        /* \"#utility.yul\":9884:9893   */\n      dup5\n        /* \"#utility.yul\":9879:9882   */\n      dup10\n        /* \"#utility.yul\":9875:9894   */\n      add\n        /* \"#utility.yul\":9869:9895   */\n      mload\n        /* \"#utility.yul\":9861:9867   */\n      dup3\n        /* \"#utility.yul\":9854:9896   */\n      sstore\n        /* \"#utility.yul\":9935:9936   */\n      0x01\n        /* \"#utility.yul\":9927:9933   */\n      dup3\n        /* \"#utility.yul\":9923:9937   */\n      add\n        /* \"#utility.yul\":9913:9937   */\n      swap2\n      pop\n        /* \"#utility.yul\":9982:9984   */\n      0x20\n        /* \"#utility.yul\":9971:9980   */\n      dup6\n        /* \"#utility.yul\":9967:9985   */\n      add\n        /* \"#utility.yul\":9954:9985   */\n      swap5\n      pop\n        /* \"#utility.yul\":9828:9832   */\n      0x20\n        /* \"#utility.yul\":9825:9826   */\n      dup2\n        /* \"#utility.yul\":9821:9833   */\n      add\n        /* \"#utility.yul\":9816:9833   */\n      swap1\n      pop\n        /* \"#utility.yul\":9791:9999   */\n      jump(tag_212)\n    tag_214:\n        /* \"#utility.yul\":10027:10033   */\n      dup7\n        /* \"#utility.yul\":10018:10025   */\n      dup4\n        /* \"#utility.yul\":10015:10034   */\n      lt\n        /* \"#utility.yul\":10012:10191   */\n      iszero\n      tag_215\n      jumpi\n        /* \"#utility.yul\":10085:10094   */\n      dup5\n        /* \"#utility.yul\":10080:10083   */\n      dup10\n        /* \"#utility.yul\":10076:10095   */\n      add\n        /* \"#utility.yul\":10070:10096   */\n      mload\n        /* \"#utility.yul\":10128:10176   */\n      tag_216\n        /* \"#utility.yul\":10170:10174   */\n      0x1f\n        /* \"#utility.yul\":10162:10168   */\n      dup10\n        /* \"#utility.yul\":10158:10175   */\n      and\n        /* \"#utility.yul\":10147:10156   */\n      dup3\n        /* \"#utility.yul\":10128:10176   */\n      tag_91\n      jump\t// in\n    tag_216:\n        /* \"#utility.yul\":10120:10126   */\n      dup4\n        /* \"#utility.yul\":10113:10177   */\n      sstore\n        /* \"#utility.yul\":10035:10191   */\n      pop\n        /* \"#utility.yul\":10012:10191   */\n    tag_215:\n        /* \"#utility.yul\":10237:10238   */\n      0x01\n        /* \"#utility.yul\":10233:10234   */\n      0x02\n        /* \"#utility.yul\":10225:10231   */\n      dup9\n        /* \"#utility.yul\":10221:10235   */\n      mul\n        /* \"#utility.yul\":10217:10239   */\n      add\n        /* \"#utility.yul\":10211:10215   */\n      dup9\n        /* \"#utility.yul\":10204:10240   */\n      sstore\n        /* \"#utility.yul\":9639:10250   */\n      pop\n      pop\n      pop\n        /* \"#utility.yul\":9602:10489   */\n    tag_207:\n      pop\n        /* \"#utility.yul\":9192:10495   */\n      pop\n      pop\n      pop\n        /* \"#utility.yul\":9100:10495   */\n      pop\n      pop\n      jump\t// out\n        /* \"#utility.yul\":10501:10681   */\n    tag_93:\n        /* \"#utility.yul\":10549:10626   */\n      0x4e487b7100000000000000000000000000000000000000000000000000000000\n        /* \"#utility.yul\":10546:10547   */\n      0x00\n        /* \"#utility.yul\":10539:10627   */\n      mstore\n        /* \"#utility.yul\":10646:10650   */\n      0x11\n        /* \"#utility.yul\":10643:10644   */\n      0x04\n        /* \"#utility.yul\":10636:10651   */\n      mstore\n        /* \"#utility.yul\":10670:10674   */\n      0x24\n        /* \"#utility.yul\":10667:10668   */\n      0x00\n        /* \"#utility.yul\":10660:10675   */\n      revert\n        /* \"#utility.yul\":10687:10920   */\n    tag_21:\n        /* \"#utility.yul\":10726:10729   */\n      0x00\n        /* \"#utility.yul\":10749:10773   */\n      tag_219\n        /* \"#utility.yul\":10767:10772   */\n      dup3\n        /* \"#utility.yul\":10749:10773   */\n      tag_69\n      jump\t// in\n    tag_219:\n        /* \"#utility.yul\":10740:10773   */\n      swap2\n      pop\n        /* \"#utility.yul\":10795:10861   */\n      0xffffffffffffffffffffffffffffffffffffffffffffffffffffffffffffffff\n        /* \"#utility.yul\":10788:10793   */\n      dup3\n        /* \"#utility.yul\":10785:10862   */\n      sub\n        /* \"#utility.yul\":10782:10885   */\n      tag_220\n      jumpi\n        /* \"#utility.yul\":10865:10883   */\n      tag_221\n      tag_93\n      jump\t// in\n    tag_221:\n        /* \"#utility.yul\":10782:10885   */\n    tag_220:\n        /* \"#utility.yul\":10912:10913   */\n      0x01\n        /* \"#utility.yul\":10905:10910   */\n      dup3\n        /* \"#utility.yul\":10901:10914   */\n      add\n        /* \"#utility.yul\":10894:10914   */\n      swap1\n      pop\n        /* \"#utility.yul\":10687:10920   */\n      swap2\n      swap1\n      pop\n      jump\t// out\n        /* \"#utility.yul\":10926:11106   */\n    tag_27:\n        /* \"#utility.yul\":10974:11051   */\n      0x4e487b7100000000000000000000000000000000000000000000000000000000\n        /* \"#utility.yul\":10971:10972   */\n      0x00\n        /* \"#utility.yul\":10964:11052   */\n      mstore\n        /* \"#utility.yul\":11071:11075   */\n      0x32\n        /* \"#utility.yul\":11068:11069   */\n      0x04\n        /* \"#utility.yul\":11061:11076   */\n      mstore\n        /* \"#utility.yul\":11095:11099   */\n      0x24\n        /* \"#utility.yul\":11092:11093   */\n      0x00\n        /* \"#utility.yul\":11085:11100   */\n      revert\n        /* \"#utility.yul\":11112:11276   */\n    tag_94:\n        /* \"#utility.yul\":11252:11268   */\n      0x7461736b206e6f7420666f756e64000000000000000000000000000000000000\n        /* \"#utility.yul\":11248:11249   */\n      0x00\n        /* \"#utility.yul\":11240:11246   */\n      dup3\n        /* \"#utility.yul\":11236:11250   */\n      add\n        /* \"#utility.yul\":11229:11269   */\n      mstore\n        /* \"#utility.yul\":11112:11276   */\n      pop\n      jump\t// out\n        /* \"#utility.yul\":11282:11648   */\n    tag_95:\n        /* \"#utility.yul\":11424:11427   */\n      0x00\n        /* \"#utility.yul\":11445:11512   */\n      tag_225\n        /* \"#utility.yul\":11509:11511   */\n      0x0e\n        /* \"#utility.yul\":11504:11507   */\n      dup4\n        /* \"#utility.yul\":11445:11512   */\n      tag_74\n      jump\t// in\n    tag_225:\n        /* \"#utility.yul\":11438:11512   */\n      swap2\n      pop\n        /* \"#utility.yul\":11521:11614   */\n      tag_226\n        /* \"#utility.yul\":11610:11613   */\n      dup3\n        /* \"#utility.yul\":11521:11614   */\n      tag_94\n      jump\t// in\n    tag_226:\n        /* \"#utility.yul\":11639:11641   */\n      0x20\n        /* \"#utility.yul\":11634:11637   */\n      dup3\n        /* \"#utility.yul\":11630:11642   */\n      add\n        /* \"#utility.yul\":11623:11642   */\n      swap1\n      pop\n        /* \"#utility.yul\":11282:11648   */\n      swap2\n      swap1\n      pop\n      jump\t// out\n        /* \"#utility.yul\":11654:12073   */\n    tag_55:\n        /* \"#utility.yul\":11820:11824   */\n      0x00\n        /* \"#utility.yul\":11858:11860   */\n      0x20\n        /* \"#utility.yul\":11847:11856   */\n      dup3\n        /* \"#utility.yul\":11843:11861   */\n      add\n        /* \"#utility.yul\":11835:11861   */\n      swap1\n      pop\n        /* \"#utility.yul\":11907:11916   */\n      dup2\n        /* \"#utility.yul\":11901:11905   */\n      dup2\n        /* \"#utility.yul\":11897:11917   */\n      sub\n        /* \"#utility.yul\":11893:11894   */\n      0x00\n        /* \"#utility.yul\":11882:11891   */\n      dup4\n        /* \"#utility.yul\":11878:11895   */\n      add\n        /* \"#utility.yul\":11871:11918   */\n      mstore\n        /* \"#utility.yul\":11935:12066   */\n      tag_228\n        /* \"#utility.yul\":12061:12065   */\n      dup2\n        /* \"#utility.yul\":11935:12066   */\n      tag_95\n      jump\t// in\n    tag_228:\n        /* \"#utility.yul\":11927:12066   */\n      swap1\n      pop\n        /* \"#utility.yul\":11654:12073   */\n      swap2\n      swap1\n      pop\n      jump\t// out\n\n    auxdata: 0xa2646970667358221220403804fd2fb6e88afca989b226b3dfa7e1c881aa7cf43d62f079dcc0193753ba64736f6c634300081b0033\n}\n",
				"bytecode": {
					"linkReferences": {},
					"object": "6080604052348015600e575f5ffd5b50610a268061001c5f395ff3fe608060405234801561000f575f5ffd5b5060043610610034575f3560e01c8063292a458514610038578063ab755faf14610054575b5f5ffd5b610052600480360381019061004d9190610495565b610086565b005b61006e6004803603810190610069919061053e565b61011a565b60405161007d939291906105d8565b60405180910390f35b600160405180606001604052805f54815260200184815260200183815250908060018154018082558091505060019003905f5260205f2090600302015f909190919091505f820151815f015560208201518160010190816100e79190610818565b5060408201518160020190816100fd9190610818565b5050505f5f81548092919061011190610914565b91905055505050565b5f6060805f610128856102b5565b90506001818154811061013e5761013d61095b565b5b905f5260205f2090600302015f0154600182815481106101615761016061095b565b5b905f5260205f209060030201600101600183815481106101845761018361095b565b5b905f5260205f20906003020160020181805461019f90610648565b80601f01602080910402602001604051908101604052809291908181526020018280546101cb90610648565b80156102165780601f106101ed57610100808354040283529160200191610216565b820191905f5260205f20905b8154815290600101906020018083116101f957829003601f168201915b5050505050915080805461022990610648565b80601f016020809104026020016040519081016040528092919081815260200182805461025590610648565b80156102a05780601f10610277576101008083540402835291602001916102a0565b820191905f5260205f20905b81548152906001019060200180831161028357829003601f168201915b50505050509050935093509350509193909250565b5f5f5f90505b6001805490508110156103075782600182815481106102dd576102dc61095b565b5b905f5260205f2090600302015f0154036102fa5780915050610343565b80806001019150506102bb565b506040517f08c379a000000000000000000000000000000000000000000000000000000000815260040161033a906109d2565b60405180910390fd5b919050565b5f604051905090565b5f5ffd5b5f5ffd5b5f5ffd5b5f5ffd5b5f601f19601f8301169050919050565b7f4e487b71000000000000000000000000000000000000000000000000000000005f52604160045260245ffd5b6103a782610361565b810181811067ffffffffffffffff821117156103c6576103c5610371565b5b80604052505050565b5f6103d8610348565b90506103e4828261039e565b919050565b5f67ffffffffffffffff82111561040357610402610371565b5b61040c82610361565b9050602081019050919050565b828183375f83830152505050565b5f610439610434846103e9565b6103cf565b9050828152602081018484840111156104555761045461035d565b5b610460848285610419565b509392505050565b5f82601f83011261047c5761047b610359565b5b813561048c848260208601610427565b91505092915050565b5f5f604083850312156104ab576104aa610351565b5b5f83013567ffffffffffffffff8111156104c8576104c7610355565b5b6104d485828601610468565b925050602083013567ffffffffffffffff8111156104f5576104f4610355565b5b61050185828601610468565b9150509250929050565b5f819050919050565b61051d8161050b565b8114610527575f5ffd5b50565b5f8135905061053881610514565b92915050565b5f6020828403121561055357610552610351565b5b5f6105608482850161052a565b91505092915050565b6105728161050b565b82525050565b5f81519050919050565b5f82825260208201905092915050565b8281835e5f83830152505050565b5f6105aa82610578565b6105b48185610582565b93506105c4818560208601610592565b6105cd81610361565b840191505092915050565b5f6060820190506105eb5f830186610569565b81810360208301526105fd81856105a0565b9050818103604083015261061181846105a0565b9050949350505050565b7f4e487b71000000000000000000000000000000000000000000000000000000005f52602260045260245ffd5b5f600282049050600182168061065f57607f821691505b6020821081036106725761067161061b565b5b50919050565b5f819050815f5260205f209050919050565b5f6020601f8301049050919050565b5f82821b905092915050565b5f600883026106d47fffffffffffffffffffffffffffffffffffffffffffffffffffffffffffffffff82610699565b6106de8683610699565b95508019841693508086168417925050509392505050565b5f819050919050565b5f61071961071461070f8461050b565b6106f6565b61050b565b9050919050565b5f819050919050565b610732836106ff565b61074661073e82610720565b8484546106a5565b825550505050565b5f5f905090565b61075d61074e565b610768818484610729565b505050565b5b8181101561078b576107805f82610755565b60018101905061076e565b5050565b601f8211156107d0576107a181610678565b6107aa8461068a565b810160208510156107b9578190505b6107cd6107c58561068a565b83018261076d565b50505b505050565b5f82821c905092915050565b5f6107f05f19846008026107d5565b1980831691505092915050565b5f61080883836107e1565b9150826002028217905092915050565b61082182610578565b67ffffffffffffffff81111561083a57610839610371565b5b6108448254610648565b61084f82828561078f565b5f60209050601f831160018114610880575f841561086e578287015190505b61087885826107fd565b8655506108df565b601f19841661088e86610678565b5f5b828110156108b557848901518255600182019150602085019450602081019050610890565b868310156108d257848901516108ce601f8916826107e1565b8355505b6001600288020188555050505b505050505050565b7f4e487b71000000000000000000000000000000000000000000000000000000005f52601160045260245ffd5b5f61091e8261050b565b91507fffffffffffffffffffffffffffffffffffffffffffffffffffffffffffffffff82036109505761094f6108e7565b5b600182019050919050565b7f4e487b71000000000000000000000000000000000000000000000000000000005f52603260045260245ffd5b7f7461736b206e6f7420666f756e640000000000000000000000000000000000005f82015250565b5f6109bc600e83610582565b91506109c782610988565b602082019050919050565b5f6020820190508181035f8301526109e9816109b0565b905091905056fea2646970667358221220403804fd2fb6e88afca989b226b3dfa7e1c881aa7cf43d62f079dcc0193753ba64736f6c634300081b0033",
					"opcodes": "PUSH1 0x80 PUSH1 0x40 MSTORE CALLVALUE DUP1 ISZERO PUSH1 0xE JUMPI PUSH0 PUSH0 REVERT JUMPDEST POP PUSH2 0xA26 DUP1 PUSH2 0x1C PUSH0 CODECOPY PUSH0 RETURN INVALID PUSH1 0x80 PUSH1 0x40 MSTORE CALLVALUE DUP1 ISZERO PUSH2 0xF JUMPI PUSH0 PUSH0 REVERT JUMPDEST POP PUSH1 0x4 CALLDATASIZE LT PUSH2 0x34 JUMPI PUSH0 CALLDATALOAD PUSH1 0xE0 SHR DUP1 PUSH4 0x292A4585 EQ PUSH2 0x38 JUMPI DUP1 PUSH4 0xAB755FAF EQ PUSH2 0x54 JUMPI JUMPDEST PUSH0 PUSH0 REVERT JUMPDEST PUSH2 0x52 PUSH1 0x4 DUP1 CALLDATASIZE SUB DUP2 ADD SWAP1 PUSH2 0x4D SWAP2 SWAP1 PUSH2 0x495 JUMP JUMPDEST PUSH2 0x86 JUMP JUMPDEST STOP JUMPDEST PUSH2 0x6E PUSH1 0x4 DUP1 CALLDATASIZE SUB DUP2 ADD SWAP1 PUSH2 0x69 SWAP2 SWAP1 PUSH2 0x53E JUMP JUMPDEST PUSH2 0x11A JUMP JUMPDEST PUSH1 0x40 MLOAD PUSH2 0x7D SWAP4 SWAP3 SWAP2 SWAP1 PUSH2 0x5D8 JUMP JUMPDEST PUSH1 0x40 MLOAD DUP1 SWAP2 SUB SWAP1 RETURN JUMPDEST PUSH1 0x1 PUSH1 0x40 MLOAD DUP1 PUSH1 0x60 ADD PUSH1 0x40 MSTORE DUP1 PUSH0 SLOAD DUP2 MSTORE PUSH1 0x20 ADD DUP5 DUP2 MSTORE PUSH1 0x20 ADD DUP4 DUP2 MSTORE POP SWAP1 DUP1 PUSH1 0x1 DUP2 SLOAD ADD DUP1 DUP3 SSTORE DUP1 SWAP2 POP POP PUSH1 0x1 SWAP1 SUB SWAP1 PUSH0 MSTORE PUSH1 0x20 PUSH0 KECCAK256 SWAP1 PUSH1 0x3 MUL ADD PUSH0 SWAP1 SWAP2 SWAP1 SWAP2 SWAP1 SWAP2 POP PUSH0 DUP3 ADD MLOAD DUP2 PUSH0 ADD SSTORE PUSH1 0x20 DUP3 ADD MLOAD DUP2 PUSH1 0x1 ADD SWAP1 DUP2 PUSH2 0xE7 SWAP2 SWAP1 PUSH2 0x818 JUMP JUMPDEST POP PUSH1 0x40 DUP3 ADD MLOAD DUP2 PUSH1 0x2 ADD SWAP1 DUP2 PUSH2 0xFD SWAP2 SWAP1 PUSH2 0x818 JUMP JUMPDEST POP POP POP PUSH0 PUSH0 DUP2 SLOAD DUP1 SWAP3 SWAP2 SWAP1 PUSH2 0x111 SWAP1 PUSH2 0x914 JUMP JUMPDEST SWAP2 SWAP1 POP SSTORE POP POP POP JUMP JUMPDEST PUSH0 PUSH1 0x60 DUP1 PUSH0 PUSH2 0x128 DUP6 PUSH2 0x2B5 JUMP JUMPDEST SWAP1 POP PUSH1 0x1 DUP2 DUP2 SLOAD DUP2 LT PUSH2 0x13E JUMPI PUSH2 0x13D PUSH2 0x95B JUMP JUMPDEST JUMPDEST SWAP1 PUSH0 MSTORE PUSH1 0x20 PUSH0 KECCAK256 SWAP1 PUSH1 0x3 MUL ADD PUSH0 ADD SLOAD PUSH1 0x1 DUP3 DUP2 SLOAD DUP2 LT PUSH2 0x161 JUMPI PUSH2 0x160 PUSH2 0x95B JUMP JUMPDEST JUMPDEST SWAP1 PUSH0 MSTORE PUSH1 0x20 PUSH0 KECCAK256 SWAP1 PUSH1 0x3 MUL ADD PUSH1 0x1 ADD PUSH1 0x1 DUP4 DUP2 SLOAD DUP2 LT PUSH2 0x184 JUMPI PUSH2 0x183 PUSH2 0x95B JUMP JUMPDEST JUMPDEST SWAP1 PUSH0 MSTORE PUSH1 0x20 PUSH0 KECCAK256 SWAP1 PUSH1 0x3 MUL ADD PUSH1 0x2 ADD DUP2 DUP1 SLOAD PUSH2 0x19F SWAP1 PUSH2 0x648 JUMP JUMPDEST DUP1 PUSH1 0x1F ADD PUSH1 0x20 DUP1 SWAP2 DIV MUL PUSH1 0x20 ADD PUSH1 0x40 MLOAD SWAP1 DUP2 ADD PUSH1 0x40 MSTORE DUP1 SWAP3 SWAP2 SWAP1 DUP2 DUP2 MSTORE PUSH1 0x20 ADD DUP3 DUP1 SLOAD PUSH2 0x1CB SWAP1 PUSH2 0x648 JUMP JUMPDEST DUP1 ISZERO PUSH2 0x216 JUMPI DUP1 PUSH1 0x1F LT PUSH2 0x1ED JUMPI PUSH2 0x100 DUP1 DUP4 SLOAD DIV MUL DUP4 MSTORE SWAP2 PUSH1 0x20 ADD SWAP2 PUSH2 0x216 JUMP JUMPDEST DUP3 ADD SWAP2 SWAP1 PUSH0 MSTORE PUSH1 0x20 PUSH0 KECCAK256 SWAP1 JUMPDEST DUP2 SLOAD DUP2 MSTORE SWAP1 PUSH1 0x1 ADD SWAP1 PUSH1 0x20 ADD DUP1 DUP4 GT PUSH2 0x1F9 JUMPI DUP3 SWAP1 SUB PUSH1 0x1F AND DUP3 ADD SWAP2 JUMPDEST POP POP POP POP POP SWAP2 POP DUP1 DUP1 SLOAD PUSH2 0x229 SWAP1 PUSH2 0x648 JUMP JUMPDEST DUP1 PUSH1 0x1F ADD PUSH1 0x20 DUP1 SWAP2 DIV MUL PUSH1 0x20 ADD PUSH1 0x40 MLOAD SWAP1 DUP2 ADD PUSH1 0x40 MSTORE DUP1 SWAP3 SWAP2 SWAP1 DUP2 DUP2 MSTORE PUSH1 0x20 ADD DUP3 DUP1 SLOAD PUSH2 0x255 SWAP1 PUSH2 0x648 JUMP JUMPDEST DUP1 ISZERO PUSH2 0x2A0 JUMPI DUP1 PUSH1 0x1F LT PUSH2 0x277 JUMPI PUSH2 0x100 DUP1 DUP4 SLOAD DIV MUL DUP4 MSTORE SWAP2 PUSH1 0x20 ADD SWAP2 PUSH2 0x2A0 JUMP JUMPDEST DUP3 ADD SWAP2 SWAP1 PUSH0 MSTORE PUSH1 0x20 PUSH0 KECCAK256 SWAP1 JUMPDEST DUP2 SLOAD DUP2 MSTORE SWAP1 PUSH1 0x1 ADD SWAP1 PUSH1 0x20 ADD DUP1 DUP4 GT PUSH2 0x283 JUMPI DUP3 SWAP1 SUB PUSH1 0x1F AND DUP3 ADD SWAP2 JUMPDEST POP POP POP POP POP SWAP1 POP SWAP4 POP SWAP4 POP SWAP4 POP POP SWAP2 SWAP4 SWAP1 SWAP3 POP JUMP JUMPDEST PUSH0 PUSH0 PUSH0 SWAP1 POP JUMPDEST PUSH1 0x1 DUP1 SLOAD SWAP1 POP DUP2 LT ISZERO PUSH2 0x307 JUMPI DUP3 PUSH1 0x1 DUP3 DUP2 SLOAD DUP2 LT PUSH2 0x2DD JUMPI PUSH2 0x2DC PUSH2 0x95B JUMP JUMPDEST JUMPDEST SWAP1 PUSH0 MSTORE PUSH1 0x20 PUSH0 KECCAK256 SWAP1 PUSH1 0x3 MUL ADD PUSH0 ADD SLOAD SUB PUSH2 0x2FA JUMPI DUP1 SWAP2 POP POP PUSH2 0x343 JUMP JUMPDEST DUP1 DUP1 PUSH1 0x1 ADD SWAP2 POP POP PUSH2 0x2BB JUMP JUMPDEST POP PUSH1 0x40 MLOAD PUSH32 0x8C379A000000000000000000000000000000000000000000000000000000000 DUP2 MSTORE PUSH1 0x4 ADD PUSH2 0x33A SWAP1 PUSH2 0x9D2 JUMP JUMPDEST PUSH1 0x40 MLOAD DUP1 SWAP2 SUB SWAP1 REVERT JUMPDEST SWAP2 SWAP1 POP JUMP JUMPDEST PUSH0 PUSH1 0x40 MLOAD SWAP1 POP SWAP1 JUMP JUMPDEST PUSH0 PUSH0 REVERT JUMPDEST PUSH0 PUSH0 REVERT JUMPDEST PUSH0 PUSH0 REVERT JUMPDEST PUSH0 PUSH0 REVERT JUMPDEST PUSH0 PUSH1 0x1F NOT PUSH1 0x1F DUP4 ADD AND SWAP1 POP SWAP2 SWAP1 POP JUMP JUMPDEST PUSH32 0x4E487B7100000000000000000000000000000000000000000000000000000000 PUSH0 MSTORE PUSH1 0x41 PUSH1 0x4 MSTORE PUSH1 0x24 PUSH0 REVERT JUMPDEST PUSH2 0x3A7 DUP3 PUSH2 0x361 JUMP JUMPDEST DUP2 ADD DUP2 DUP2 LT PUSH8 0xFFFFFFFFFFFFFFFF DUP3 GT OR ISZERO PUSH2 0x3C6 JUMPI PUSH2 0x3C5 PUSH2 0x371 JUMP JUMPDEST JUMPDEST DUP1 PUSH1 0x40 MSTORE POP POP POP JUMP JUMPDEST PUSH0 PUSH2 0x3D8 PUSH2 0x348 JUMP JUMPDEST SWAP1 POP PUSH2 0x3E4 DUP3 DUP3 PUSH2 0x39E JUMP JUMPDEST SWAP2 SWAP1 POP JUMP JUMPDEST PUSH0 PUSH8 0xFFFFFFFFFFFFFFFF DUP3 GT ISZERO PUSH2 0x403 JUMPI PUSH2 0x402 PUSH2 0x371 JUMP JUMPDEST JUMPDEST PUSH2 0x40C DUP3 PUSH2 0x361 JUMP JUMPDEST SWAP1 POP PUSH1 0x20 DUP2 ADD SWAP1 POP SWAP2 SWAP1 POP JUMP JUMPDEST DUP3 DUP2 DUP4 CALLDATACOPY PUSH0 DUP4 DUP4 ADD MSTORE POP POP POP JUMP JUMPDEST PUSH0 PUSH2 0x439 PUSH2 0x434 DUP5 PUSH2 0x3E9 JUMP JUMPDEST PUSH2 0x3CF JUMP JUMPDEST SWAP1 POP DUP3 DUP2 MSTORE PUSH1 0x20 DUP2 ADD DUP5 DUP5 DUP5 ADD GT ISZERO PUSH2 0x455 JUMPI PUSH2 0x454 PUSH2 0x35D JUMP JUMPDEST JUMPDEST PUSH2 0x460 DUP5 DUP3 DUP6 PUSH2 0x419 JUMP JUMPDEST POP SWAP4 SWAP3 POP POP POP JUMP JUMPDEST PUSH0 DUP3 PUSH1 0x1F DUP4 ADD SLT PUSH2 0x47C JUMPI PUSH2 0x47B PUSH2 0x359 JUMP JUMPDEST JUMPDEST DUP2 CALLDATALOAD PUSH2 0x48C DUP5 DUP3 PUSH1 0x20 DUP7 ADD PUSH2 0x427 JUMP JUMPDEST SWAP2 POP POP SWAP3 SWAP2 POP POP JUMP JUMPDEST PUSH0 PUSH0 PUSH1 0x40 DUP4 DUP6 SUB SLT ISZERO PUSH2 0x4AB JUMPI PUSH2 0x4AA PUSH2 0x351 JUMP JUMPDEST JUMPDEST PUSH0 DUP4 ADD CALLDATALOAD PUSH8 0xFFFFFFFFFFFFFFFF DUP2 GT ISZERO PUSH2 0x4C8 JUMPI PUSH2 0x4C7 PUSH2 0x355 JUMP JUMPDEST JUMPDEST PUSH2 0x4D4 DUP6 DUP3 DUP7 ADD PUSH2 0x468 JUMP JUMPDEST SWAP3 POP POP PUSH1 0x20 DUP4 ADD CALLDATALOAD PUSH8 0xFFFFFFFFFFFFFFFF DUP2 GT ISZERO PUSH2 0x4F5 JUMPI PUSH2 0x4F4 PUSH2 0x355 JUMP JUMPDEST JUMPDEST PUSH2 0x501 DUP6 DUP3 DUP7 ADD PUSH2 0x468 JUMP JUMPDEST SWAP2 POP POP SWAP3 POP SWAP3 SWAP1 POP JUMP JUMPDEST PUSH0 DUP2 SWAP1 POP SWAP2 SWAP1 POP JUMP JUMPDEST PUSH2 0x51D DUP2 PUSH2 0x50B JUMP JUMPDEST DUP2 EQ PUSH2 0x527 JUMPI PUSH0 PUSH0 REVERT JUMPDEST POP JUMP JUMPDEST PUSH0 DUP2 CALLDATALOAD SWAP1 POP PUSH2 0x538 DUP2 PUSH2 0x514 JUMP JUMPDEST SWAP3 SWAP2 POP POP JUMP JUMPDEST PUSH0 PUSH1 0x20 DUP3 DUP5 SUB SLT ISZERO PUSH2 0x553 JUMPI PUSH2 0x552 PUSH2 0x351 JUMP JUMPDEST JUMPDEST PUSH0 PUSH2 0x560 DUP5 DUP3 DUP6 ADD PUSH2 0x52A JUMP JUMPDEST SWAP2 POP POP SWAP3 SWAP2 POP POP JUMP JUMPDEST PUSH2 0x572 DUP2 PUSH2 0x50B JUMP JUMPDEST DUP3 MSTORE POP POP JUMP JUMPDEST PUSH0 DUP2 MLOAD SWAP1 POP SWAP2 SWAP1 POP JUMP JUMPDEST PUSH0 DUP3 DUP3 MSTORE PUSH1 0x20 DUP3 ADD SWAP1 POP SWAP3 SWAP2 POP POP JUMP JUMPDEST DUP3 DUP2 DUP4 MCOPY PUSH0 DUP4 DUP4 ADD MSTORE POP POP POP JUMP JUMPDEST PUSH0 PUSH2 0x5AA DUP3 PUSH2 0x578 JUMP JUMPDEST PUSH2 0x5B4 DUP2 DUP6 PUSH2 0x582 JUMP JUMPDEST SWAP4 POP PUSH2 0x5C4 DUP2 DUP6 PUSH1 0x20 DUP7 ADD PUSH2 0x592 JUMP JUMPDEST PUSH2 0x5CD DUP2 PUSH2 0x361 JUMP JUMPDEST DUP5 ADD SWAP2 POP POP SWAP3 SWAP2 POP POP JUMP JUMPDEST PUSH0 PUSH1 0x60 DUP3 ADD SWAP1 POP PUSH2 0x5EB PUSH0 DUP4 ADD DUP7 PUSH2 0x569 JUMP JUMPDEST DUP2 DUP2 SUB PUSH1 0x20 DUP4 ADD MSTORE PUSH2 0x5FD DUP2 DUP6 PUSH2 0x5A0 JUMP JUMPDEST SWAP1 POP DUP2 DUP2 SUB PUSH1 0x40 DUP4 ADD MSTORE PUSH2 0x611 DUP2 DUP5 PUSH2 0x5A0 JUMP JUMPDEST SWAP1 POP SWAP5 SWAP4 POP POP POP POP JUMP JUMPDEST PUSH32 0x4E487B7100000000000000000000000000000000000000000000000000000000 PUSH0 MSTORE PUSH1 0x22 PUSH1 0x4 MSTORE PUSH1 0x24 PUSH0 REVERT JUMPDEST PUSH0 PUSH1 0x2 DUP3 DIV SWAP1 POP PUSH1 0x1 DUP3 AND DUP1 PUSH2 0x65F JUMPI PUSH1 0x7F DUP3 AND SWAP2 POP JUMPDEST PUSH1 0x20 DUP3 LT DUP2 SUB PUSH2 0x672 JUMPI PUSH2 0x671 PUSH2 0x61B JUMP JUMPDEST JUMPDEST POP SWAP2 SWAP1 POP JUMP JUMPDEST PUSH0 DUP2 SWAP1 POP DUP2 PUSH0 MSTORE PUSH1 0x20 PUSH0 KECCAK256 SWAP1 POP SWAP2 SWAP1 POP JUMP JUMPDEST PUSH0 PUSH1 0x20 PUSH1 0x1F DUP4 ADD DIV SWAP1 POP SWAP2 SWAP1 POP JUMP JUMPDEST PUSH0 DUP3 DUP3 SHL SWAP1 POP SWAP3 SWAP2 POP POP JUMP JUMPDEST PUSH0 PUSH1 0x8 DUP4 MUL PUSH2 0x6D4 PUSH32 0xFFFFFFFFFFFFFFFFFFFFFFFFFFFFFFFFFFFFFFFFFFFFFFFFFFFFFFFFFFFFFFFF DUP3 PUSH2 0x699 JUMP JUMPDEST PUSH2 0x6DE DUP7 DUP4 PUSH2 0x699 JUMP JUMPDEST SWAP6 POP DUP1 NOT DUP5 AND SWAP4 POP DUP1 DUP7 AND DUP5 OR SWAP3 POP POP POP SWAP4 SWAP3 POP POP POP JUMP JUMPDEST PUSH0 DUP2 SWAP1 POP SWAP2 SWAP1 POP JUMP JUMPDEST PUSH0 PUSH2 0x719 PUSH2 0x714 PUSH2 0x70F DUP5 PUSH2 0x50B JUMP JUMPDEST PUSH2 0x6F6 JUMP JUMPDEST PUSH2 0x50B JUMP JUMPDEST SWAP1 POP SWAP2 SWAP1 POP JUMP JUMPDEST PUSH0 DUP2 SWAP1 POP SWAP2 SWAP1 POP JUMP JUMPDEST PUSH2 0x732 DUP4 PUSH2 0x6FF JUMP JUMPDEST PUSH2 0x746 PUSH2 0x73E DUP3 PUSH2 0x720 JUMP JUMPDEST DUP5 DUP5 SLOAD PUSH2 0x6A5 JUMP JUMPDEST DUP3 SSTORE POP POP POP POP JUMP JUMPDEST PUSH0 PUSH0 SWAP1 POP SWAP1 JUMP JUMPDEST PUSH2 0x75D PUSH2 0x74E JUMP JUMPDEST PUSH2 0x768 DUP2 DUP5 DUP5 PUSH2 0x729 JUMP JUMPDEST POP POP POP JUMP JUMPDEST JUMPDEST DUP2 DUP2 LT ISZERO PUSH2 0x78B JUMPI PUSH2 0x780 PUSH0 DUP3 PUSH2 0x755 JUMP JUMPDEST PUSH1 0x1 DUP2 ADD SWAP1 POP PUSH2 0x76E JUMP JUMPDEST POP POP JUMP JUMPDEST PUSH1 0x1F DUP3 GT ISZERO PUSH2 0x7D0 JUMPI PUSH2 0x7A1 DUP2 PUSH2 0x678 JUMP JUMPDEST PUSH2 0x7AA DUP5 PUSH2 0x68A JUMP JUMPDEST DUP2 ADD PUSH1 0x20 DUP6 LT ISZERO PUSH2 0x7B9 JUMPI DUP2 SWAP1 POP JUMPDEST PUSH2 0x7CD PUSH2 0x7C5 DUP6 PUSH2 0x68A JUMP JUMPDEST DUP4 ADD DUP3 PUSH2 0x76D JUMP JUMPDEST POP POP JUMPDEST POP POP POP JUMP JUMPDEST PUSH0 DUP3 DUP3 SHR SWAP1 POP SWAP3 SWAP2 POP POP JUMP JUMPDEST PUSH0 PUSH2 0x7F0 PUSH0 NOT DUP5 PUSH1 0x8 MUL PUSH2 0x7D5 JUMP JUMPDEST NOT DUP1 DUP4 AND SWAP2 POP POP SWAP3 SWAP2 POP POP JUMP JUMPDEST PUSH0 PUSH2 0x808 DUP4 DUP4 PUSH2 0x7E1 JUMP JUMPDEST SWAP2 POP DUP3 PUSH1 0x2 MUL DUP3 OR SWAP1 POP SWAP3 SWAP2 POP POP JUMP JUMPDEST PUSH2 0x821 DUP3 PUSH2 0x578 JUMP JUMPDEST PUSH8 0xFFFFFFFFFFFFFFFF DUP2 GT ISZERO PUSH2 0x83A JUMPI PUSH2 0x839 PUSH2 0x371 JUMP JUMPDEST JUMPDEST PUSH2 0x844 DUP3 SLOAD PUSH2 0x648 JUMP JUMPDEST PUSH2 0x84F DUP3 DUP3 DUP6 PUSH2 0x78F JUMP JUMPDEST PUSH0 PUSH1 0x20 SWAP1 POP PUSH1 0x1F DUP4 GT PUSH1 0x1 DUP2 EQ PUSH2 0x880 JUMPI PUSH0 DUP5 ISZERO PUSH2 0x86E JUMPI DUP3 DUP8 ADD MLOAD SWAP1 POP JUMPDEST PUSH2 0x878 DUP6 DUP3 PUSH2 0x7FD JUMP JUMPDEST DUP7 SSTORE POP PUSH2 0x8DF JUMP JUMPDEST PUSH1 0x1F NOT DUP5 AND PUSH2 0x88E DUP7 PUSH2 0x678 JUMP JUMPDEST PUSH0 JUMPDEST DUP3 DUP2 LT ISZERO PUSH2 0x8B5 JUMPI DUP5 DUP10 ADD MLOAD DUP3 SSTORE PUSH1 0x1 DUP3 ADD SWAP2 POP PUSH1 0x20 DUP6 ADD SWAP5 POP PUSH1 0x20 DUP2 ADD SWAP1 POP PUSH2 0x890 JUMP JUMPDEST DUP7 DUP4 LT ISZERO PUSH2 0x8D2 JUMPI DUP5 DUP10 ADD MLOAD PUSH2 0x8CE PUSH1 0x1F DUP10 AND DUP3 PUSH2 0x7E1 JUMP JUMPDEST DUP4 SSTORE POP JUMPDEST PUSH1 0x1 PUSH1 0x2 DUP9 MUL ADD DUP9 SSTORE POP POP POP JUMPDEST POP POP POP POP POP POP JUMP JUMPDEST PUSH32 0x4E487B7100000000000000000000000000000000000000000000000000000000 PUSH0 MSTORE PUSH1 0x11 PUSH1 0x4 MSTORE PUSH1 0x24 PUSH0 REVERT JUMPDEST PUSH0 PUSH2 0x91E DUP3 PUSH2 0x50B JUMP JUMPDEST SWAP2 POP PUSH32 0xFFFFFFFFFFFFFFFFFFFFFFFFFFFFFFFFFFFFFFFFFFFFFFFFFFFFFFFFFFFFFFFF DUP3 SUB PUSH2 0x950 JUMPI PUSH2 0x94F PUSH2 0x8E7 JUMP JUMPDEST JUMPDEST PUSH1 0x1 DUP3 ADD SWAP1 POP SWAP2 SWAP1 POP JUMP JUMPDEST PUSH32 0x4E487B7100000000000000000000000000000000000000000000000000000000 PUSH0 MSTORE PUSH1 0x32 PUSH1 0x4 MSTORE PUSH1 0x24 PUSH0 REVERT JUMPDEST PUSH32 0x7461736B206E6F7420666F756E64000000000000000000000000000000000000 PUSH0 DUP3 ADD MSTORE POP JUMP JUMPDEST PUSH0 PUSH2 0x9BC PUSH1 0xE DUP4 PUSH2 0x582 JUMP JUMPDEST SWAP2 POP PUSH2 0x9C7 DUP3 PUSH2 0x988 JUMP JUMPDEST PUSH1 0x20 DUP3 ADD SWAP1 POP SWAP2 SWAP1 POP JUMP JUMPDEST PUSH0 PUSH1 0x20 DUP3 ADD SWAP1 POP DUP2 DUP2 SUB PUSH0 DUP4 ADD MSTORE PUSH2 0x9E9 DUP2 PUSH2 0x9B0 JUMP JUMPDEST SWAP1 POP SWAP2 SWAP1 POP JUMP INVALID LOG2 PUSH5 0x6970667358 0x22 SLT KECCAK256 BLOCKHASH CODESIZE DIV REVERT 0x2F 0xB6 0xE8 DUP11 0xFC 0xA9 DUP10 0xB2 0x26 0xB3 0xDF 0xA7 0xE1 0xC8 DUP2 0xAA PUSH29 0xF43D62F079DCC0193753BA64736F6C634300081B003300000000000000 "
				},
				"gasEstimates": {
					"creation": {
						"codeDepositCost": "519600",
						"executionCost": "554",
						"totalCost": "520154"
					},
					"external": {
						"createTask(string,string)": "infinite",
						"readTask(uint256)": "infinite"
					},
					"internal": {
						"findIndex(uint256)": "infinite"
					}
				},
				"methodIdentifiers": {
					"createTask(string,string)": "292a4585",
					"readTask(uint256)": "ab755faf"
				}
			},
			"storageLayout": {
				"storage": [
					{
						"astId": 3,
						"contract": "contracts/TaskConract.sol:TasContract",
						"label": "nextId",
						"offset": 0,
						"slot": "0",
						"type": "t_uint256"
					},
					{
						"astId": 14,
						"contract": "contracts/TaskConract.sol:TasContract",
						"label": "tasks",
						"offset": 0,
						"slot": "1",
						"type": "t_array(t_struct(Task)10_storage)dyn_storage"
					}
				],
				"types": {
					"t_array(t_struct(Task)10_storage)dyn_storage": {
						"base": "t_struct(Task)10_storage",
						"encoding": "dynamic_array",
						"label": "struct TasContract.Task[]",
						"numberOfBytes": "32"
					},
					"t_string_storage": {
						"encoding": "bytes",
						"label": "string",
						"numberOfBytes": "32"
					},
					"t_struct(Task)10_storage": {
						"encoding": "inplace",
						"label": "struct TasContract.Task",
						"members": [
							{
								"astId": 5,
								"contract": "contracts/TaskConract.sol:TasContract",
								"label": "id",
								"offset": 0,
								"slot": "0",
								"type": "t_uint256"
							},
							{
								"astId": 7,
								"contract": "contracts/TaskConract.sol:TasContract",
								"label": "name",
								"offset": 0,
								"slot": "1",
								"type": "t_string_storage"
							},
							{
								"astId": 9,
								"contract": "contracts/TaskConract.sol:TasContract",
								"label": "description",
								"offset": 0,
								"slot": "2",
								"type": "t_string_storage"
							}
						],
						"numberOfBytes": "96"
					},
					"t_uint256": {
						"encoding": "inplace",
						"label": "uint256",
						"numberOfBytes": "32"
					}
				}
			},
			"userdoc": {
				"kind": "user",
				"methods": {},
				"version": 1
			}
		}
	}
}