{
	"contracts/FundeMe.sol": {
		"FundMe": {
			"abi": [
				{
					"inputs": [
						{
							"internalType": "address",
							"name": "",
							"type": "address"
						}
					],
					"name": "addressToAmountFounded",
					"outputs": [
						{
							"internalType": "uint256",
							"name": "",
							"type": "uint256"
						}
					],
					"stateMutability": "view",
					"type": "function"
				},
				{
					"inputs": [],
					"name": "fund",
					"outputs": [],
					"stateMutability": "payable",
					"type": "function"
				},
				{
					"inputs": [],
					"name": "getPrice",
					"outputs": [
						{
							"internalType": "uint256",
							"name": "",
							"type": "uint256"
						}
					],
					"stateMutability": "view",
					"type": "function"
				},
				{
					"inputs": [],
					"name": "getVersion",
					"outputs": [
						{
							"internalType": "uint256",
							"name": "",
							"type": "uint256"
						}
					],
					"stateMutability": "view",
					"type": "function"
				}
			],
			"devdoc": {
				"kind": "dev",
				"methods": {},
				"version": 1
			},
			"evm": {
				"assembly": "    /* \"contracts/FundeMe.sol\":184:1110  contract FundMe{... */\n  mstore(0x40, 0x80)\n  callvalue\n  dup1\n  iszero\n  tag_1\n  jumpi\n  revert(0x00, 0x00)\ntag_1:\n  pop\n  dataSize(sub_0)\n  dup1\n  dataOffset(sub_0)\n  0x00\n  codecopy\n  0x00\n  return\nstop\n\nsub_0: assembly {\n        /* \"contracts/FundeMe.sol\":184:1110  contract FundMe{... */\n      mstore(0x40, 0x80)\n      jumpi(tag_1, lt(calldatasize, 0x04))\n      shr(0xe0, calldataload(0x00))\n      dup1\n      0x0d8e6e2c\n      eq\n      tag_2\n      jumpi\n      dup1\n      0x69d1c5af\n      eq\n      tag_3\n      jumpi\n      dup1\n      0x98d5fdca\n      eq\n      tag_4\n      jumpi\n      dup1\n      0xb60d4288\n      eq\n      tag_5\n      jumpi\n    tag_1:\n      revert(0x00, 0x00)\n        /* \"contracts/FundeMe.sol\":370:660  function getVersion() public view returns(uint256){... */\n    tag_2:\n      callvalue\n      dup1\n      iszero\n      tag_6\n      jumpi\n      revert(0x00, 0x00)\n    tag_6:\n      pop\n      tag_7\n      tag_8\n      jump\t// in\n    tag_7:\n      mload(0x40)\n      tag_9\n      swap2\n      swap1\n      tag_10\n      jump\t// in\n    tag_9:\n      mload(0x40)\n      dup1\n      swap2\n      sub\n      swap1\n      return\n        /* \"contracts/FundeMe.sol\":206:262  mapping (address=>uint256) public addressToAmountFounded */\n    tag_3:\n      callvalue\n      dup1\n      iszero\n      tag_11\n      jumpi\n      revert(0x00, 0x00)\n    tag_11:\n      pop\n      tag_12\n      0x04\n      dup1\n      calldatasize\n      sub\n      dup2\n      add\n      swap1\n      tag_13\n      swap2\n      swap1\n      tag_14\n      jump\t// in\n    tag_13:\n      tag_15\n      jump\t// in\n    tag_12:\n      mload(0x40)\n      tag_16\n      swap2\n      swap1\n      tag_10\n      jump\t// in\n    tag_16:\n      mload(0x40)\n      dup1\n      swap2\n      sub\n      swap1\n      return\n        /* \"contracts/FundeMe.sol\":669:1107  function getPrice() public view returns (uint256){... */\n    tag_4:\n      callvalue\n      dup1\n      iszero\n      tag_17\n      jumpi\n      revert(0x00, 0x00)\n    tag_17:\n      pop\n      tag_18\n      tag_19\n      jump\t// in\n    tag_18:\n      mload(0x40)\n      tag_20\n      swap2\n      swap1\n      tag_10\n      jump\t// in\n    tag_20:\n      mload(0x40)\n      dup1\n      swap2\n      sub\n      swap1\n      return\n        /* \"contracts/FundeMe.sol\":269:364  function fund()public payable{... */\n    tag_5:\n      tag_21\n      tag_22\n      jump\t// in\n    tag_21:\n      stop\n        /* \"contracts/FundeMe.sol\":370:660  function getVersion() public view returns(uint256){... */\n    tag_8:\n        /* \"contracts/FundeMe.sol\":412:419  uint256 */\n      0x00\n        /* \"contracts/FundeMe.sol\":431:462  AggregatorV3Interface priceFeed */\n      0x00\n        /* \"contracts/FundeMe.sol\":487:529  0x1b44F3514812d835EB1BDB0acB33d3fA3351Ee43 */\n      0x1b44f3514812d835eb1bdb0acb33d3fa3351ee43\n        /* \"contracts/FundeMe.sol\":431:530  AggregatorV3Interface priceFeed = AggregatorV3Interface(0x1b44F3514812d835EB1BDB0acB33d3fA3351Ee43) */\n      swap1\n      pop\n        /* \"contracts/FundeMe.sol\":591:600  priceFeed */\n      dup1\n        /* \"contracts/FundeMe.sol\":591:608  priceFeed.version */\n      0xffffffffffffffffffffffffffffffffffffffff\n      and\n      0x54fd4d50\n        /* \"contracts/FundeMe.sol\":591:610  priceFeed.version() */\n      mload(0x40)\n      dup2\n      0xffffffff\n      and\n      0xe0\n      shl\n      dup2\n      mstore\n      0x04\n      add\n      0x20\n      mload(0x40)\n      dup1\n      dup4\n      sub\n      dup2\n      dup7\n      gas\n      staticcall\n      iszero\n      dup1\n      iszero\n      tag_25\n      jumpi\n      returndatacopy(0x00, 0x00, returndatasize)\n      revert(0x00, returndatasize)\n    tag_25:\n      pop\n      pop\n      pop\n      pop\n      mload(0x40)\n      returndatasize\n      not(0x1f)\n      0x1f\n      dup3\n      add\n      and\n      dup3\n      add\n      dup1\n      0x40\n      mstore\n      pop\n      dup2\n      add\n      swap1\n      tag_26\n      swap2\n      swap1\n      tag_27\n      jump\t// in\n    tag_26:\n        /* \"contracts/FundeMe.sol\":584:610  return priceFeed.version() */\n      swap2\n      pop\n      pop\n        /* \"contracts/FundeMe.sol\":370:660  function getVersion() public view returns(uint256){... */\n      swap1\n      jump\t// out\n        /* \"contracts/FundeMe.sol\":206:262  mapping (address=>uint256) public addressToAmountFounded */\n    tag_15:\n      mstore(0x20, 0x00)\n      dup1\n      0x00\n      mstore\n      keccak256(0x00, 0x40)\n      0x00\n      swap2\n      pop\n      swap1\n      pop\n      sload\n      dup2\n      jump\t// out\n        /* \"contracts/FundeMe.sol\":669:1107  function getPrice() public view returns (uint256){... */\n    tag_19:\n        /* \"contracts/FundeMe.sol\":710:717  uint256 */\n      0x00\n        /* \"contracts/FundeMe.sol\":729:760  AggregatorV3Interface priceFeed */\n      0x00\n        /* \"contracts/FundeMe.sol\":785:827  0x1b44F3514812d835EB1BDB0acB33d3fA3351Ee43 */\n      0x1b44f3514812d835eb1bdb0acb33d3fa3351ee43\n        /* \"contracts/FundeMe.sol\":729:828  AggregatorV3Interface priceFeed = AggregatorV3Interface(0x1b44F3514812d835EB1BDB0acB33d3fA3351Ee43) */\n      swap1\n      pop\n        /* \"contracts/FundeMe.sol\":841:854  int256 answer */\n      0x00\n        /* \"contracts/FundeMe.sol\":860:869  priceFeed */\n      dup2\n        /* \"contracts/FundeMe.sol\":860:885  priceFeed.latestRoundData */\n      0xffffffffffffffffffffffffffffffffffffffff\n      and\n      0xfeaf968c\n        /* \"contracts/FundeMe.sol\":860:887  priceFeed.latestRoundData() */\n      mload(0x40)\n      dup2\n      0xffffffff\n      and\n      0xe0\n      shl\n      dup2\n      mstore\n      0x04\n      add\n      0xa0\n      mload(0x40)\n      dup1\n      dup4\n      sub\n      dup2\n      dup7\n      gas\n      staticcall\n      iszero\n      dup1\n      iszero\n      tag_30\n      jumpi\n      returndatacopy(0x00, 0x00, returndatasize)\n      revert(0x00, returndatasize)\n    tag_30:\n      pop\n      pop\n      pop\n      pop\n      mload(0x40)\n      returndatasize\n      not(0x1f)\n      0x1f\n      dup3\n      add\n      and\n      dup3\n      add\n      dup1\n      0x40\n      mstore\n      pop\n      dup2\n      add\n      swap1\n      tag_31\n      swap2\n      swap1\n      tag_32\n      jump\t// in\n    tag_31:\n        /* \"contracts/FundeMe.sol\":839:887  (,int256 answer,,,)= priceFeed.latestRoundData() */\n      pop\n      pop\n      pop\n      swap2\n      pop\n      pop\n        /* \"contracts/FundeMe.sol\":1049:1060  10000000000 */\n      0x02540be400\n        /* \"contracts/FundeMe.sol\":1040:1046  answer */\n      dup2\n        /* \"contracts/FundeMe.sol\":1040:1060  answer * 10000000000 */\n      tag_33\n      swap2\n      swap1\n      tag_34\n      jump\t// in\n    tag_33:\n        /* \"contracts/FundeMe.sol\":1025:1061  return uint256(answer * 10000000000) */\n      swap3\n      pop\n      pop\n      pop\n        /* \"contracts/FundeMe.sol\":669:1107  function getPrice() public view returns (uint256){... */\n      swap1\n      jump\t// out\n        /* \"contracts/FundeMe.sol\":269:364  function fund()public payable{... */\n    tag_22:\n        /* \"contracts/FundeMe.sol\":347:356  msg.value */\n      callvalue\n        /* \"contracts/FundeMe.sol\":309:331  addressToAmountFounded */\n      0x00\n        /* \"contracts/FundeMe.sol\":309:343  addressToAmountFounded[msg.sender] */\n      0x00\n        /* \"contracts/FundeMe.sol\":332:342  msg.sender */\n      caller\n        /* \"contracts/FundeMe.sol\":309:343  addressToAmountFounded[msg.sender] */\n      0xffffffffffffffffffffffffffffffffffffffff\n      and\n      0xffffffffffffffffffffffffffffffffffffffff\n      and\n      dup2\n      mstore\n      0x20\n      add\n      swap1\n      dup2\n      mstore\n      0x20\n      add\n      0x00\n      keccak256\n      0x00\n        /* \"contracts/FundeMe.sol\":309:356  addressToAmountFounded[msg.sender] += msg.value */\n      dup3\n      dup3\n      sload\n      tag_36\n      swap2\n      swap1\n      tag_37\n      jump\t// in\n    tag_36:\n      swap3\n      pop\n      pop\n      dup2\n      swap1\n      sstore\n      pop\n        /* \"contracts/FundeMe.sol\":269:364  function fund()public payable{... */\n      jump\t// out\n        /* \"#utility.yul\":7:84   */\n    tag_38:\n        /* \"#utility.yul\":44:51   */\n      0x00\n        /* \"#utility.yul\":73:78   */\n      dup2\n        /* \"#utility.yul\":62:78   */\n      swap1\n      pop\n        /* \"#utility.yul\":7:84   */\n      swap2\n      swap1\n      pop\n      jump\t// out\n        /* \"#utility.yul\":90:208   */\n    tag_39:\n        /* \"#utility.yul\":177:201   */\n      tag_59\n        /* \"#utility.yul\":195:200   */\n      dup2\n        /* \"#utility.yul\":177:201   */\n      tag_38\n      jump\t// in\n    tag_59:\n        /* \"#utility.yul\":172:175   */\n      dup3\n        /* \"#utility.yul\":165:202   */\n      mstore\n        /* \"#utility.yul\":90:208   */\n      pop\n      pop\n      jump\t// out\n        /* \"#utility.yul\":214:436   */\n    tag_10:\n        /* \"#utility.yul\":307:311   */\n      0x00\n        /* \"#utility.yul\":345:347   */\n      0x20\n        /* \"#utility.yul\":334:343   */\n      dup3\n        /* \"#utility.yul\":330:348   */\n      add\n        /* \"#utility.yul\":322:348   */\n      swap1\n      pop\n        /* \"#utility.yul\":358:429   */\n      tag_61\n        /* \"#utility.yul\":426:427   */\n      0x00\n        /* \"#utility.yul\":415:424   */\n      dup4\n        /* \"#utility.yul\":411:428   */\n      add\n        /* \"#utility.yul\":402:408   */\n      dup5\n        /* \"#utility.yul\":358:429   */\n      tag_39\n      jump\t// in\n    tag_61:\n        /* \"#utility.yul\":214:436   */\n      swap3\n      swap2\n      pop\n      pop\n      jump\t// out\n        /* \"#utility.yul\":523:640   */\n    tag_41:\n        /* \"#utility.yul\":632:633   */\n      0x00\n        /* \"#utility.yul\":629:630   */\n      0x00\n        /* \"#utility.yul\":622:634   */\n      revert\n        /* \"#utility.yul\":769:895   */\n    tag_43:\n        /* \"#utility.yul\":806:813   */\n      0x00\n        /* \"#utility.yul\":846:888   */\n      0xffffffffffffffffffffffffffffffffffffffff\n        /* \"#utility.yul\":839:844   */\n      dup3\n        /* \"#utility.yul\":835:889   */\n      and\n        /* \"#utility.yul\":824:889   */\n      swap1\n      pop\n        /* \"#utility.yul\":769:895   */\n      swap2\n      swap1\n      pop\n      jump\t// out\n        /* \"#utility.yul\":901:997   */\n    tag_44:\n        /* \"#utility.yul\":938:945   */\n      0x00\n        /* \"#utility.yul\":967:991   */\n      tag_67\n        /* \"#utility.yul\":985:990   */\n      dup3\n        /* \"#utility.yul\":967:991   */\n      tag_43\n      jump\t// in\n    tag_67:\n        /* \"#utility.yul\":956:991   */\n      swap1\n      pop\n        /* \"#utility.yul\":901:997   */\n      swap2\n      swap1\n      pop\n      jump\t// out\n        /* \"#utility.yul\":1003:1125   */\n    tag_45:\n        /* \"#utility.yul\":1076:1100   */\n      tag_69\n        /* \"#utility.yul\":1094:1099   */\n      dup2\n        /* \"#utility.yul\":1076:1100   */\n      tag_44\n      jump\t// in\n    tag_69:\n        /* \"#utility.yul\":1069:1074   */\n      dup2\n        /* \"#utility.yul\":1066:1101   */\n      eq\n        /* \"#utility.yul\":1056:1119   */\n      tag_70\n      jumpi\n        /* \"#utility.yul\":1115:1116   */\n      0x00\n        /* \"#utility.yul\":1112:1113   */\n      0x00\n        /* \"#utility.yul\":1105:1117   */\n      revert\n        /* \"#utility.yul\":1056:1119   */\n    tag_70:\n        /* \"#utility.yul\":1003:1125   */\n      pop\n      jump\t// out\n        /* \"#utility.yul\":1131:1270   */\n    tag_46:\n        /* \"#utility.yul\":1177:1182   */\n      0x00\n        /* \"#utility.yul\":1215:1221   */\n      dup2\n        /* \"#utility.yul\":1202:1222   */\n      calldataload\n        /* \"#utility.yul\":1193:1222   */\n      swap1\n      pop\n        /* \"#utility.yul\":1231:1264   */\n      tag_72\n        /* \"#utility.yul\":1258:1263   */\n      dup2\n        /* \"#utility.yul\":1231:1264   */\n      tag_45\n      jump\t// in\n    tag_72:\n        /* \"#utility.yul\":1131:1270   */\n      swap3\n      swap2\n      pop\n      pop\n      jump\t// out\n        /* \"#utility.yul\":1276:1605   */\n    tag_14:\n        /* \"#utility.yul\":1335:1341   */\n      0x00\n        /* \"#utility.yul\":1384:1386   */\n      0x20\n        /* \"#utility.yul\":1372:1381   */\n      dup3\n        /* \"#utility.yul\":1363:1370   */\n      dup5\n        /* \"#utility.yul\":1359:1382   */\n      sub\n        /* \"#utility.yul\":1355:1387   */\n      slt\n        /* \"#utility.yul\":1352:1471   */\n      iszero\n      tag_74\n      jumpi\n        /* \"#utility.yul\":1390:1469   */\n      tag_75\n      tag_41\n      jump\t// in\n    tag_75:\n        /* \"#utility.yul\":1352:1471   */\n    tag_74:\n        /* \"#utility.yul\":1510:1511   */\n      0x00\n        /* \"#utility.yul\":1535:1588   */\n      tag_76\n        /* \"#utility.yul\":1580:1587   */\n      dup5\n        /* \"#utility.yul\":1571:1577   */\n      dup3\n        /* \"#utility.yul\":1560:1569   */\n      dup6\n        /* \"#utility.yul\":1556:1578   */\n      add\n        /* \"#utility.yul\":1535:1588   */\n      tag_46\n      jump\t// in\n    tag_76:\n        /* \"#utility.yul\":1525:1588   */\n      swap2\n      pop\n        /* \"#utility.yul\":1481:1598   */\n      pop\n        /* \"#utility.yul\":1276:1605   */\n      swap3\n      swap2\n      pop\n      pop\n      jump\t// out\n        /* \"#utility.yul\":1611:1733   */\n    tag_47:\n        /* \"#utility.yul\":1684:1708   */\n      tag_78\n        /* \"#utility.yul\":1702:1707   */\n      dup2\n        /* \"#utility.yul\":1684:1708   */\n      tag_38\n      jump\t// in\n    tag_78:\n        /* \"#utility.yul\":1677:1682   */\n      dup2\n        /* \"#utility.yul\":1674:1709   */\n      eq\n        /* \"#utility.yul\":1664:1727   */\n      tag_79\n      jumpi\n        /* \"#utility.yul\":1723:1724   */\n      0x00\n        /* \"#utility.yul\":1720:1721   */\n      0x00\n        /* \"#utility.yul\":1713:1725   */\n      revert\n        /* \"#utility.yul\":1664:1727   */\n    tag_79:\n        /* \"#utility.yul\":1611:1733   */\n      pop\n      jump\t// out\n        /* \"#utility.yul\":1739:1882   */\n    tag_48:\n        /* \"#utility.yul\":1796:1801   */\n      0x00\n        /* \"#utility.yul\":1827:1833   */\n      dup2\n        /* \"#utility.yul\":1821:1834   */\n      mload\n        /* \"#utility.yul\":1812:1834   */\n      swap1\n      pop\n        /* \"#utility.yul\":1843:1876   */\n      tag_81\n        /* \"#utility.yul\":1870:1875   */\n      dup2\n        /* \"#utility.yul\":1843:1876   */\n      tag_47\n      jump\t// in\n    tag_81:\n        /* \"#utility.yul\":1739:1882   */\n      swap3\n      swap2\n      pop\n      pop\n      jump\t// out\n        /* \"#utility.yul\":1888:2239   */\n    tag_27:\n        /* \"#utility.yul\":1958:1964   */\n      0x00\n        /* \"#utility.yul\":2007:2009   */\n      0x20\n        /* \"#utility.yul\":1995:2004   */\n      dup3\n        /* \"#utility.yul\":1986:1993   */\n      dup5\n        /* \"#utility.yul\":1982:2005   */\n      sub\n        /* \"#utility.yul\":1978:2010   */\n      slt\n        /* \"#utility.yul\":1975:2094   */\n      iszero\n      tag_83\n      jumpi\n        /* \"#utility.yul\":2013:2092   */\n      tag_84\n      tag_41\n      jump\t// in\n    tag_84:\n        /* \"#utility.yul\":1975:2094   */\n    tag_83:\n        /* \"#utility.yul\":2133:2134   */\n      0x00\n        /* \"#utility.yul\":2158:2222   */\n      tag_85\n        /* \"#utility.yul\":2214:2221   */\n      dup5\n        /* \"#utility.yul\":2205:2211   */\n      dup3\n        /* \"#utility.yul\":2194:2203   */\n      dup6\n        /* \"#utility.yul\":2190:2212   */\n      add\n        /* \"#utility.yul\":2158:2222   */\n      tag_48\n      jump\t// in\n    tag_85:\n        /* \"#utility.yul\":2148:2222   */\n      swap2\n      pop\n        /* \"#utility.yul\":2104:2232   */\n      pop\n        /* \"#utility.yul\":1888:2239   */\n      swap3\n      swap2\n      pop\n      pop\n      jump\t// out\n        /* \"#utility.yul\":2245:2350   */\n    tag_49:\n        /* \"#utility.yul\":2281:2288   */\n      0x00\n        /* \"#utility.yul\":2321:2343   */\n      0xffffffffffffffffffff\n        /* \"#utility.yul\":2314:2319   */\n      dup3\n        /* \"#utility.yul\":2310:2344   */\n      and\n        /* \"#utility.yul\":2299:2344   */\n      swap1\n      pop\n        /* \"#utility.yul\":2245:2350   */\n      swap2\n      swap1\n      pop\n      jump\t// out\n        /* \"#utility.yul\":2356:2476   */\n    tag_50:\n        /* \"#utility.yul\":2428:2451   */\n      tag_88\n        /* \"#utility.yul\":2445:2450   */\n      dup2\n        /* \"#utility.yul\":2428:2451   */\n      tag_49\n      jump\t// in\n    tag_88:\n        /* \"#utility.yul\":2421:2426   */\n      dup2\n        /* \"#utility.yul\":2418:2452   */\n      eq\n        /* \"#utility.yul\":2408:2470   */\n      tag_89\n      jumpi\n        /* \"#utility.yul\":2466:2467   */\n      0x00\n        /* \"#utility.yul\":2463:2464   */\n      0x00\n        /* \"#utility.yul\":2456:2468   */\n      revert\n        /* \"#utility.yul\":2408:2470   */\n    tag_89:\n        /* \"#utility.yul\":2356:2476   */\n      pop\n      jump\t// out\n        /* \"#utility.yul\":2482:2623   */\n    tag_51:\n        /* \"#utility.yul\":2538:2543   */\n      0x00\n        /* \"#utility.yul\":2569:2575   */\n      dup2\n        /* \"#utility.yul\":2563:2576   */\n      mload\n        /* \"#utility.yul\":2554:2576   */\n      swap1\n      pop\n        /* \"#utility.yul\":2585:2617   */\n      tag_91\n        /* \"#utility.yul\":2611:2616   */\n      dup2\n        /* \"#utility.yul\":2585:2617   */\n      tag_50\n      jump\t// in\n    tag_91:\n        /* \"#utility.yul\":2482:2623   */\n      swap3\n      swap2\n      pop\n      pop\n      jump\t// out\n        /* \"#utility.yul\":2629:2705   */\n    tag_52:\n        /* \"#utility.yul\":2665:2672   */\n      0x00\n        /* \"#utility.yul\":2694:2699   */\n      dup2\n        /* \"#utility.yul\":2683:2699   */\n      swap1\n      pop\n        /* \"#utility.yul\":2629:2705   */\n      swap2\n      swap1\n      pop\n      jump\t// out\n        /* \"#utility.yul\":2711:2831   */\n    tag_53:\n        /* \"#utility.yul\":2783:2806   */\n      tag_94\n        /* \"#utility.yul\":2800:2805   */\n      dup2\n        /* \"#utility.yul\":2783:2806   */\n      tag_52\n      jump\t// in\n    tag_94:\n        /* \"#utility.yul\":2776:2781   */\n      dup2\n        /* \"#utility.yul\":2773:2807   */\n      eq\n        /* \"#utility.yul\":2763:2825   */\n      tag_95\n      jumpi\n        /* \"#utility.yul\":2821:2822   */\n      0x00\n        /* \"#utility.yul\":2818:2819   */\n      0x00\n        /* \"#utility.yul\":2811:2823   */\n      revert\n        /* \"#utility.yul\":2763:2825   */\n    tag_95:\n        /* \"#utility.yul\":2711:2831   */\n      pop\n      jump\t// out\n        /* \"#utility.yul\":2837:2978   */\n    tag_54:\n        /* \"#utility.yul\":2893:2898   */\n      0x00\n        /* \"#utility.yul\":2924:2930   */\n      dup2\n        /* \"#utility.yul\":2918:2931   */\n      mload\n        /* \"#utility.yul\":2909:2931   */\n      swap1\n      pop\n        /* \"#utility.yul\":2940:2972   */\n      tag_97\n        /* \"#utility.yul\":2966:2971   */\n      dup2\n        /* \"#utility.yul\":2940:2972   */\n      tag_53\n      jump\t// in\n    tag_97:\n        /* \"#utility.yul\":2837:2978   */\n      swap3\n      swap2\n      pop\n      pop\n      jump\t// out\n        /* \"#utility.yul\":2984:3955   */\n    tag_32:\n        /* \"#utility.yul\":3087:3093   */\n      0x00\n        /* \"#utility.yul\":3095:3101   */\n      0x00\n        /* \"#utility.yul\":3103:3109   */\n      0x00\n        /* \"#utility.yul\":3111:3117   */\n      0x00\n        /* \"#utility.yul\":3119:3125   */\n      0x00\n        /* \"#utility.yul\":3168:3171   */\n      0xa0\n        /* \"#utility.yul\":3156:3165   */\n      dup7\n        /* \"#utility.yul\":3147:3154   */\n      dup9\n        /* \"#utility.yul\":3143:3166   */\n      sub\n        /* \"#utility.yul\":3139:3172   */\n      slt\n        /* \"#utility.yul\":3136:3256   */\n      iszero\n      tag_99\n      jumpi\n        /* \"#utility.yul\":3175:3254   */\n      tag_100\n      tag_41\n      jump\t// in\n    tag_100:\n        /* \"#utility.yul\":3136:3256   */\n    tag_99:\n        /* \"#utility.yul\":3295:3296   */\n      0x00\n        /* \"#utility.yul\":3320:3383   */\n      tag_101\n        /* \"#utility.yul\":3375:3382   */\n      dup9\n        /* \"#utility.yul\":3366:3372   */\n      dup3\n        /* \"#utility.yul\":3355:3364   */\n      dup10\n        /* \"#utility.yul\":3351:3373   */\n      add\n        /* \"#utility.yul\":3320:3383   */\n      tag_51\n      jump\t// in\n    tag_101:\n        /* \"#utility.yul\":3310:3383   */\n      swap6\n      pop\n        /* \"#utility.yul\":3266:3393   */\n      pop\n        /* \"#utility.yul\":3432:3434   */\n      0x20\n        /* \"#utility.yul\":3458:3521   */\n      tag_102\n        /* \"#utility.yul\":3513:3520   */\n      dup9\n        /* \"#utility.yul\":3504:3510   */\n      dup3\n        /* \"#utility.yul\":3493:3502   */\n      dup10\n        /* \"#utility.yul\":3489:3511   */\n      add\n        /* \"#utility.yul\":3458:3521   */\n      tag_54\n      jump\t// in\n    tag_102:\n        /* \"#utility.yul\":3448:3521   */\n      swap5\n      pop\n        /* \"#utility.yul\":3403:3531   */\n      pop\n        /* \"#utility.yul\":3570:3572   */\n      0x40\n        /* \"#utility.yul\":3596:3660   */\n      tag_103\n        /* \"#utility.yul\":3652:3659   */\n      dup9\n        /* \"#utility.yul\":3643:3649   */\n      dup3\n        /* \"#utility.yul\":3632:3641   */\n      dup10\n        /* \"#utility.yul\":3628:3650   */\n      add\n        /* \"#utility.yul\":3596:3660   */\n      tag_48\n      jump\t// in\n    tag_103:\n        /* \"#utility.yul\":3586:3660   */\n      swap4\n      pop\n        /* \"#utility.yul\":3541:3670   */\n      pop\n        /* \"#utility.yul\":3709:3711   */\n      0x60\n        /* \"#utility.yul\":3735:3799   */\n      tag_104\n        /* \"#utility.yul\":3791:3798   */\n      dup9\n        /* \"#utility.yul\":3782:3788   */\n      dup3\n        /* \"#utility.yul\":3771:3780   */\n      dup10\n        /* \"#utility.yul\":3767:3789   */\n      add\n        /* \"#utility.yul\":3735:3799   */\n      tag_48\n      jump\t// in\n    tag_104:\n        /* \"#utility.yul\":3725:3799   */\n      swap3\n      pop\n        /* \"#utility.yul\":3680:3809   */\n      pop\n        /* \"#utility.yul\":3848:3851   */\n      0x80\n        /* \"#utility.yul\":3875:3938   */\n      tag_105\n        /* \"#utility.yul\":3930:3937   */\n      dup9\n        /* \"#utility.yul\":3921:3927   */\n      dup3\n        /* \"#utility.yul\":3910:3919   */\n      dup10\n        /* \"#utility.yul\":3906:3928   */\n      add\n        /* \"#utility.yul\":3875:3938   */\n      tag_51\n      jump\t// in\n    tag_105:\n        /* \"#utility.yul\":3865:3938   */\n      swap2\n      pop\n        /* \"#utility.yul\":3819:3948   */\n      pop\n        /* \"#utility.yul\":2984:3955   */\n      swap3\n      swap6\n      pop\n      swap3\n      swap6\n      swap1\n      swap4\n      pop\n      jump\t// out\n        /* \"#utility.yul\":3961:4141   */\n    tag_55:\n        /* \"#utility.yul\":4009:4086   */\n      0x4e487b7100000000000000000000000000000000000000000000000000000000\n        /* \"#utility.yul\":4006:4007   */\n      0x00\n        /* \"#utility.yul\":3999:4087   */\n      mstore\n        /* \"#utility.yul\":4106:4110   */\n      0x11\n        /* \"#utility.yul\":4103:4104   */\n      0x04\n        /* \"#utility.yul\":4096:4111   */\n      mstore\n        /* \"#utility.yul\":4130:4134   */\n      0x24\n        /* \"#utility.yul\":4127:4128   */\n      0x00\n        /* \"#utility.yul\":4120:4135   */\n      revert\n        /* \"#utility.yul\":4147:4703   */\n    tag_34:\n        /* \"#utility.yul\":4186:4193   */\n      0x00\n        /* \"#utility.yul\":4209:4228   */\n      tag_108\n        /* \"#utility.yul\":4226:4227   */\n      dup3\n        /* \"#utility.yul\":4209:4228   */\n      tag_52\n      jump\t// in\n    tag_108:\n        /* \"#utility.yul\":4204:4228   */\n      swap2\n      pop\n        /* \"#utility.yul\":4242:4261   */\n      tag_109\n        /* \"#utility.yul\":4259:4260   */\n      dup4\n        /* \"#utility.yul\":4242:4261   */\n      tag_52\n      jump\t// in\n    tag_109:\n        /* \"#utility.yul\":4237:4261   */\n      swap3\n      pop\n        /* \"#utility.yul\":4296:4297   */\n      dup3\n        /* \"#utility.yul\":4293:4294   */\n      dup3\n        /* \"#utility.yul\":4289:4298   */\n      mul\n        /* \"#utility.yul\":4318:4347   */\n      tag_110\n        /* \"#utility.yul\":4335:4346   */\n      dup2\n        /* \"#utility.yul\":4318:4347   */\n      tag_52\n      jump\t// in\n    tag_110:\n        /* \"#utility.yul\":4307:4347   */\n      swap2\n      pop\n        /* \"#utility.yul\":4405:4471   */\n      0x8000000000000000000000000000000000000000000000000000000000000000\n        /* \"#utility.yul\":4402:4403   */\n      dup5\n        /* \"#utility.yul\":4399:4472   */\n      eq\n        /* \"#utility.yul\":4395:4396   */\n      0x00\n        /* \"#utility.yul\":4392:4393   */\n      dup5\n        /* \"#utility.yul\":4388:4397   */\n      slt\n        /* \"#utility.yul\":4384:4473   */\n      and\n        /* \"#utility.yul\":4381:4496   */\n      iszero\n      tag_111\n      jumpi\n        /* \"#utility.yul\":4476:4494   */\n      tag_112\n      tag_55\n      jump\t// in\n    tag_112:\n        /* \"#utility.yul\":4381:4496   */\n    tag_111:\n        /* \"#utility.yul\":4646:4647   */\n      dup3\n        /* \"#utility.yul\":4637:4644   */\n      dup3\n        /* \"#utility.yul\":4632:4648   */\n      sdiv\n        /* \"#utility.yul\":4629:4630   */\n      dup5\n        /* \"#utility.yul\":4626:4649   */\n      eq\n        /* \"#utility.yul\":4606:4607   */\n      dup4\n        /* \"#utility.yul\":4599:4608   */\n      iszero\n        /* \"#utility.yul\":4579:4663   */\n      or\n        /* \"#utility.yul\":4556:4696   */\n      tag_113\n      jumpi\n        /* \"#utility.yul\":4676:4694   */\n      tag_114\n      tag_55\n      jump\t// in\n    tag_114:\n        /* \"#utility.yul\":4556:4696   */\n    tag_113:\n        /* \"#utility.yul\":4194:4703   */\n      pop\n        /* \"#utility.yul\":4147:4703   */\n      swap3\n      swap2\n      pop\n      pop\n      jump\t// out\n        /* \"#utility.yul\":4709:4900   */\n    tag_37:\n        /* \"#utility.yul\":4749:4752   */\n      0x00\n        /* \"#utility.yul\":4768:4788   */\n      tag_116\n        /* \"#utility.yul\":4786:4787   */\n      dup3\n        /* \"#utility.yul\":4768:4788   */\n      tag_38\n      jump\t// in\n    tag_116:\n        /* \"#utility.yul\":4763:4788   */\n      swap2\n      pop\n        /* \"#utility.yul\":4802:4822   */\n      tag_117\n        /* \"#utility.yul\":4820:4821   */\n      dup4\n        /* \"#utility.yul\":4802:4822   */\n      tag_38\n      jump\t// in\n    tag_117:\n        /* \"#utility.yul\":4797:4822   */\n      swap3\n      pop\n        /* \"#utility.yul\":4845:4846   */\n      dup3\n        /* \"#utility.yul\":4842:4843   */\n      dup3\n        /* \"#utility.yul\":4838:4847   */\n      add\n        /* \"#utility.yul\":4831:4847   */\n      swap1\n      pop\n        /* \"#utility.yul\":4866:4869   */\n      dup1\n        /* \"#utility.yul\":4863:4864   */\n      dup3\n        /* \"#utility.yul\":4860:4870   */\n      gt\n        /* \"#utility.yul\":4857:4893   */\n      iszero\n      tag_118\n      jumpi\n        /* \"#utility.yul\":4873:4891   */\n      tag_119\n      tag_55\n      jump\t// in\n    tag_119:\n        /* \"#utility.yul\":4857:4893   */\n    tag_118:\n        /* \"#utility.yul\":4709:4900   */\n      swap3\n      swap2\n      pop\n      pop\n      jump\t// out\n\n    auxdata: 0xa26469706673582212201595c3ba8d05c6df0d49ca52db57c55189c99f2f1aeef9909ef3c4e09f06457e64736f6c634300081b0033\n}\n",
				"bytecode": {
					"linkReferences": {},
					"object": "6080604052348015600e575f5ffd5b506105798061001c5f395ff3fe60806040526004361061003e575f3560e01c80630d8e6e2c1461004257806369d1c5af1461006c57806398d5fdca146100a8578063b60d4288146100d2575b5f5ffd5b34801561004d575f5ffd5b506100566100dc565b604051610063919061028d565b60405180910390f35b348015610077575f5ffd5b50610092600480360381019061008d9190610304565b610168565b60405161009f919061028d565b60405180910390f35b3480156100b3575f5ffd5b506100bc61017c565b6040516100c9919061028d565b60405180910390f35b6100da610221565b005b5f5f731b44f3514812d835eb1bdb0acb33d3fa3351ee4390508073ffffffffffffffffffffffffffffffffffffffff166354fd4d506040518163ffffffff1660e01b8152600401602060405180830381865afa15801561013e573d5f5f3e3d5ffd5b505050506040513d601f19601f820116820180604052508101906101629190610359565b91505090565b5f602052805f5260405f205f915090505481565b5f5f731b44f3514812d835eb1bdb0acb33d3fa3351ee4390505f8173ffffffffffffffffffffffffffffffffffffffff1663feaf968c6040518163ffffffff1660e01b815260040160a060405180830381865afa1580156101df573d5f5f3e3d5ffd5b505050506040513d601f19601f8201168201806040525081019061020391906103f6565b5050509150506402540be4008161021a919061049a565b9250505090565b345f5f3373ffffffffffffffffffffffffffffffffffffffff1673ffffffffffffffffffffffffffffffffffffffff1681526020019081526020015f205f82825461026c9190610510565b92505081905550565b5f819050919050565b61028781610275565b82525050565b5f6020820190506102a05f83018461027e565b92915050565b5f5ffd5b5f73ffffffffffffffffffffffffffffffffffffffff82169050919050565b5f6102d3826102aa565b9050919050565b6102e3816102c9565b81146102ed575f5ffd5b50565b5f813590506102fe816102da565b92915050565b5f60208284031215610319576103186102a6565b5b5f610326848285016102f0565b91505092915050565b61033881610275565b8114610342575f5ffd5b50565b5f815190506103538161032f565b92915050565b5f6020828403121561036e5761036d6102a6565b5b5f61037b84828501610345565b91505092915050565b5f69ffffffffffffffffffff82169050919050565b6103a281610384565b81146103ac575f5ffd5b50565b5f815190506103bd81610399565b92915050565b5f819050919050565b6103d5816103c3565b81146103df575f5ffd5b50565b5f815190506103f0816103cc565b92915050565b5f5f5f5f5f60a0868803121561040f5761040e6102a6565b5b5f61041c888289016103af565b955050602061042d888289016103e2565b945050604061043e88828901610345565b935050606061044f88828901610345565b9250506080610460888289016103af565b9150509295509295909350565b7f4e487b71000000000000000000000000000000000000000000000000000000005f52601160045260245ffd5b5f6104a4826103c3565b91506104af836103c3565b92508282026104bd816103c3565b91507f800000000000000000000000000000000000000000000000000000000000000084145f841216156104f4576104f361046d565b5b82820584148315176105095761050861046d565b5b5092915050565b5f61051a82610275565b915061052583610275565b925082820190508082111561053d5761053c61046d565b5b9291505056fea26469706673582212201595c3ba8d05c6df0d49ca52db57c55189c99f2f1aeef9909ef3c4e09f06457e64736f6c634300081b0033",
					"opcodes": "PUSH1 0x80 PUSH1 0x40 MSTORE CALLVALUE DUP1 ISZERO PUSH1 0xE JUMPI PUSH0 PUSH0 REVERT JUMPDEST POP PUSH2 0x579 DUP1 PUSH2 0x1C PUSH0 CODECOPY PUSH0 RETURN INVALID PUSH1 0x80 PUSH1 0x40 MSTORE PUSH1 0x4 CALLDATASIZE LT PUSH2 0x3E JUMPI PUSH0 CALLDATALOAD PUSH1 0xE0 SHR DUP1 PUSH4 0xD8E6E2C EQ PUSH2 0x42 JUMPI DUP1 PUSH4 0x69D1C5AF EQ PUSH2 0x6C JUMPI DUP1 PUSH4 0x98D5FDCA EQ PUSH2 0xA8 JUMPI DUP1 PUSH4 0xB60D4288 EQ PUSH2 0xD2 JUMPI JUMPDEST PUSH0 PUSH0 REVERT JUMPDEST CALLVALUE DUP1 ISZERO PUSH2 0x4D JUMPI PUSH0 PUSH0 REVERT JUMPDEST POP PUSH2 0x56 PUSH2 0xDC JUMP JUMPDEST PUSH1 0x40 MLOAD PUSH2 0x63 SWAP2 SWAP1 PUSH2 0x28D JUMP JUMPDEST PUSH1 0x40 MLOAD DUP1 SWAP2 SUB SWAP1 RETURN JUMPDEST CALLVALUE DUP1 ISZERO PUSH2 0x77 JUMPI PUSH0 PUSH0 REVERT JUMPDEST POP PUSH2 0x92 PUSH1 0x4 DUP1 CALLDATASIZE SUB DUP2 ADD SWAP1 PUSH2 0x8D SWAP2 SWAP1 PUSH2 0x304 JUMP JUMPDEST PUSH2 0x168 JUMP JUMPDEST PUSH1 0x40 MLOAD PUSH2 0x9F SWAP2 SWAP1 PUSH2 0x28D JUMP JUMPDEST PUSH1 0x40 MLOAD DUP1 SWAP2 SUB SWAP1 RETURN JUMPDEST CALLVALUE DUP1 ISZERO PUSH2 0xB3 JUMPI PUSH0 PUSH0 REVERT JUMPDEST POP PUSH2 0xBC PUSH2 0x17C JUMP JUMPDEST PUSH1 0x40 MLOAD PUSH2 0xC9 SWAP2 SWAP1 PUSH2 0x28D JUMP JUMPDEST PUSH1 0x40 MLOAD DUP1 SWAP2 SUB SWAP1 RETURN JUMPDEST PUSH2 0xDA PUSH2 0x221 JUMP JUMPDEST STOP JUMPDEST PUSH0 PUSH0 PUSH20 0x1B44F3514812D835EB1BDB0ACB33D3FA3351EE43 SWAP1 POP DUP1 PUSH20 0xFFFFFFFFFFFFFFFFFFFFFFFFFFFFFFFFFFFFFFFF AND PUSH4 0x54FD4D50 PUSH1 0x40 MLOAD DUP2 PUSH4 0xFFFFFFFF AND PUSH1 0xE0 SHL DUP2 MSTORE PUSH1 0x4 ADD PUSH1 0x20 PUSH1 0x40 MLOAD DUP1 DUP4 SUB DUP2 DUP7 GAS STATICCALL ISZERO DUP1 ISZERO PUSH2 0x13E JUMPI RETURNDATASIZE PUSH0 PUSH0 RETURNDATACOPY RETURNDATASIZE PUSH0 REVERT JUMPDEST POP POP POP POP PUSH1 0x40 MLOAD RETURNDATASIZE PUSH1 0x1F NOT PUSH1 0x1F DUP3 ADD AND DUP3 ADD DUP1 PUSH1 0x40 MSTORE POP DUP2 ADD SWAP1 PUSH2 0x162 SWAP2 SWAP1 PUSH2 0x359 JUMP JUMPDEST SWAP2 POP POP SWAP1 JUMP JUMPDEST PUSH0 PUSH1 0x20 MSTORE DUP1 PUSH0 MSTORE PUSH1 0x40 PUSH0 KECCAK256 PUSH0 SWAP2 POP SWAP1 POP SLOAD DUP2 JUMP JUMPDEST PUSH0 PUSH0 PUSH20 0x1B44F3514812D835EB1BDB0ACB33D3FA3351EE43 SWAP1 POP PUSH0 DUP2 PUSH20 0xFFFFFFFFFFFFFFFFFFFFFFFFFFFFFFFFFFFFFFFF AND PUSH4 0xFEAF968C PUSH1 0x40 MLOAD DUP2 PUSH4 0xFFFFFFFF AND PUSH1 0xE0 SHL DUP2 MSTORE PUSH1 0x4 ADD PUSH1 0xA0 PUSH1 0x40 MLOAD DUP1 DUP4 SUB DUP2 DUP7 GAS STATICCALL ISZERO DUP1 ISZERO PUSH2 0x1DF JUMPI RETURNDATASIZE PUSH0 PUSH0 RETURNDATACOPY RETURNDATASIZE PUSH0 REVERT JUMPDEST POP POP POP POP PUSH1 0x40 MLOAD RETURNDATASIZE PUSH1 0x1F NOT PUSH1 0x1F DUP3 ADD AND DUP3 ADD DUP1 PUSH1 0x40 MSTORE POP DUP2 ADD SWAP1 PUSH2 0x203 SWAP2 SWAP1 PUSH2 0x3F6 JUMP JUMPDEST POP POP POP SWAP2 POP POP PUSH5 0x2540BE400 DUP2 PUSH2 0x21A SWAP2 SWAP1 PUSH2 0x49A JUMP JUMPDEST SWAP3 POP POP POP SWAP1 JUMP JUMPDEST CALLVALUE PUSH0 PUSH0 CALLER PUSH20 0xFFFFFFFFFFFFFFFFFFFFFFFFFFFFFFFFFFFFFFFF AND PUSH20 0xFFFFFFFFFFFFFFFFFFFFFFFFFFFFFFFFFFFFFFFF AND DUP2 MSTORE PUSH1 0x20 ADD SWAP1 DUP2 MSTORE PUSH1 0x20 ADD PUSH0 KECCAK256 PUSH0 DUP3 DUP3 SLOAD PUSH2 0x26C SWAP2 SWAP1 PUSH2 0x510 JUMP JUMPDEST SWAP3 POP POP DUP2 SWAP1 SSTORE POP JUMP JUMPDEST PUSH0 DUP2 SWAP1 POP SWAP2 SWAP1 POP JUMP JUMPDEST PUSH2 0x287 DUP2 PUSH2 0x275 JUMP JUMPDEST DUP3 MSTORE POP POP JUMP JUMPDEST PUSH0 PUSH1 0x20 DUP3 ADD SWAP1 POP PUSH2 0x2A0 PUSH0 DUP4 ADD DUP5 PUSH2 0x27E JUMP JUMPDEST SWAP3 SWAP2 POP POP JUMP JUMPDEST PUSH0 PUSH0 REVERT JUMPDEST PUSH0 PUSH20 0xFFFFFFFFFFFFFFFFFFFFFFFFFFFFFFFFFFFFFFFF DUP3 AND SWAP1 POP SWAP2 SWAP1 POP JUMP JUMPDEST PUSH0 PUSH2 0x2D3 DUP3 PUSH2 0x2AA JUMP JUMPDEST SWAP1 POP SWAP2 SWAP1 POP JUMP JUMPDEST PUSH2 0x2E3 DUP2 PUSH2 0x2C9 JUMP JUMPDEST DUP2 EQ PUSH2 0x2ED JUMPI PUSH0 PUSH0 REVERT JUMPDEST POP JUMP JUMPDEST PUSH0 DUP2 CALLDATALOAD SWAP1 POP PUSH2 0x2FE DUP2 PUSH2 0x2DA JUMP JUMPDEST SWAP3 SWAP2 POP POP JUMP JUMPDEST PUSH0 PUSH1 0x20 DUP3 DUP5 SUB SLT ISZERO PUSH2 0x319 JUMPI PUSH2 0x318 PUSH2 0x2A6 JUMP JUMPDEST JUMPDEST PUSH0 PUSH2 0x326 DUP5 DUP3 DUP6 ADD PUSH2 0x2F0 JUMP JUMPDEST SWAP2 POP POP SWAP3 SWAP2 POP POP JUMP JUMPDEST PUSH2 0x338 DUP2 PUSH2 0x275 JUMP JUMPDEST DUP2 EQ PUSH2 0x342 JUMPI PUSH0 PUSH0 REVERT JUMPDEST POP JUMP JUMPDEST PUSH0 DUP2 MLOAD SWAP1 POP PUSH2 0x353 DUP2 PUSH2 0x32F JUMP JUMPDEST SWAP3 SWAP2 POP POP JUMP JUMPDEST PUSH0 PUSH1 0x20 DUP3 DUP5 SUB SLT ISZERO PUSH2 0x36E JUMPI PUSH2 0x36D PUSH2 0x2A6 JUMP JUMPDEST JUMPDEST PUSH0 PUSH2 0x37B DUP5 DUP3 DUP6 ADD PUSH2 0x345 JUMP JUMPDEST SWAP2 POP POP SWAP3 SWAP2 POP POP JUMP JUMPDEST PUSH0 PUSH10 0xFFFFFFFFFFFFFFFFFFFF DUP3 AND SWAP1 POP SWAP2 SWAP1 POP JUMP JUMPDEST PUSH2 0x3A2 DUP2 PUSH2 0x384 JUMP JUMPDEST DUP2 EQ PUSH2 0x3AC JUMPI PUSH0 PUSH0 REVERT JUMPDEST POP JUMP JUMPDEST PUSH0 DUP2 MLOAD SWAP1 POP PUSH2 0x3BD DUP2 PUSH2 0x399 JUMP JUMPDEST SWAP3 SWAP2 POP POP JUMP JUMPDEST PUSH0 DUP2 SWAP1 POP SWAP2 SWAP1 POP JUMP JUMPDEST PUSH2 0x3D5 DUP2 PUSH2 0x3C3 JUMP JUMPDEST DUP2 EQ PUSH2 0x3DF JUMPI PUSH0 PUSH0 REVERT JUMPDEST POP JUMP JUMPDEST PUSH0 DUP2 MLOAD SWAP1 POP PUSH2 0x3F0 DUP2 PUSH2 0x3CC JUMP JUMPDEST SWAP3 SWAP2 POP POP JUMP JUMPDEST PUSH0 PUSH0 PUSH0 PUSH0 PUSH0 PUSH1 0xA0 DUP7 DUP9 SUB SLT ISZERO PUSH2 0x40F JUMPI PUSH2 0x40E PUSH2 0x2A6 JUMP JUMPDEST JUMPDEST PUSH0 PUSH2 0x41C DUP9 DUP3 DUP10 ADD PUSH2 0x3AF JUMP JUMPDEST SWAP6 POP POP PUSH1 0x20 PUSH2 0x42D DUP9 DUP3 DUP10 ADD PUSH2 0x3E2 JUMP JUMPDEST SWAP5 POP POP PUSH1 0x40 PUSH2 0x43E DUP9 DUP3 DUP10 ADD PUSH2 0x345 JUMP JUMPDEST SWAP4 POP POP PUSH1 0x60 PUSH2 0x44F DUP9 DUP3 DUP10 ADD PUSH2 0x345 JUMP JUMPDEST SWAP3 POP POP PUSH1 0x80 PUSH2 0x460 DUP9 DUP3 DUP10 ADD PUSH2 0x3AF JUMP JUMPDEST SWAP2 POP POP SWAP3 SWAP6 POP SWAP3 SWAP6 SWAP1 SWAP4 POP JUMP JUMPDEST PUSH32 0x4E487B7100000000000000000000000000000000000000000000000000000000 PUSH0 MSTORE PUSH1 0x11 PUSH1 0x4 MSTORE PUSH1 0x24 PUSH0 REVERT JUMPDEST PUSH0 PUSH2 0x4A4 DUP3 PUSH2 0x3C3 JUMP JUMPDEST SWAP2 POP PUSH2 0x4AF DUP4 PUSH2 0x3C3 JUMP JUMPDEST SWAP3 POP DUP3 DUP3 MUL PUSH2 0x4BD DUP2 PUSH2 0x3C3 JUMP JUMPDEST SWAP2 POP PUSH32 0x8000000000000000000000000000000000000000000000000000000000000000 DUP5 EQ PUSH0 DUP5 SLT AND ISZERO PUSH2 0x4F4 JUMPI PUSH2 0x4F3 PUSH2 0x46D JUMP JUMPDEST JUMPDEST DUP3 DUP3 SDIV DUP5 EQ DUP4 ISZERO OR PUSH2 0x509 JUMPI PUSH2 0x508 PUSH2 0x46D JUMP JUMPDEST JUMPDEST POP SWAP3 SWAP2 POP POP JUMP JUMPDEST PUSH0 PUSH2 0x51A DUP3 PUSH2 0x275 JUMP JUMPDEST SWAP2 POP PUSH2 0x525 DUP4 PUSH2 0x275 JUMP JUMPDEST SWAP3 POP DUP3 DUP3 ADD SWAP1 POP DUP1 DUP3 GT ISZERO PUSH2 0x53D JUMPI PUSH2 0x53C PUSH2 0x46D JUMP JUMPDEST JUMPDEST SWAP3 SWAP2 POP POP JUMP INVALID LOG2 PUSH5 0x6970667358 0x22 SLT KECCAK256 ISZERO SWAP6 0xC3 0xBA DUP14 SDIV 0xC6 0xDF 0xD BLOBHASH 0xCA MSTORE 0xDB JUMPI 0xC5 MLOAD DUP10 0xC9 SWAP16 0x2F BYTE 0xEE 0xF9 SWAP1 SWAP15 RETURN 0xC4 0xE0 SWAP16 MOD GASLIMIT PUSH31 0x64736F6C634300081B00330000000000000000000000000000000000000000 "
				},
				"gasEstimates": {
					"creation": {
						"codeDepositCost": "280200",
						"executionCost": "316",
						"totalCost": "280516"
					},
					"external": {
						"addressToAmountFounded(address)": "2801",
						"fund()": "infinite",
						"getPrice()": "infinite",
						"getVersion()": "infinite"
					}
				},
				"methodIdentifiers": {
					"addressToAmountFounded(address)": "69d1c5af",
					"fund()": "b60d4288",
					"getPrice()": "98d5fdca",
					"getVersion()": "0d8e6e2c"
				}
			},
			"storageLayout": {
				"storage": [
					{
						"astId": 53,
						"contract": "contracts/FundeMe.sol:FundMe",
						"label": "addressToAmountFounded",
						"offset": 0,
						"slot": "0",
						"type": "t_mapping(t_address,t_uint256)"
					}
				],
				"types": {
					"t_address": {
						"encoding": "inplace",
						"label": "address",
						"numberOfBytes": "20"
					},
					"t_mapping(t_address,t_uint256)": {
						"encoding": "mapping",
						"key": "t_address",
						"label": "mapping(address => uint256)",
						"numberOfBytes": "32",
						"value": "t_uint256"
					},
					"t_uint256": {
						"encoding": "inplace",
						"label": "uint256",
						"numberOfBytes": "32"
					}
				}
			},
			"userdoc": {
				"kind": "user",
				"methods": {},
				"version": 1
			}
		}
	}
}